{
  "contractName": "Lottery",
  "abi": [
    {
      "inputs": [],
      "stateMutability": "nonpayable",
      "type": "constructor"
    },
    {
      "anonymous": false,
      "inputs": [
        {
          "indexed": false,
          "internalType": "address",
          "name": "",
          "type": "address"
        },
        {
          "indexed": false,
          "internalType": "uint256",
          "name": "",
          "type": "uint256"
        }
      ],
      "name": "Deposit",
      "type": "event"
    },
    {
      "anonymous": false,
      "inputs": [
        {
          "indexed": false,
          "internalType": "address",
          "name": "",
          "type": "address"
        },
        {
          "indexed": false,
          "internalType": "uint256",
          "name": "",
          "type": "uint256"
        }
      ],
      "name": "withdraw",
      "type": "event"
    },
    {
      "inputs": [],
      "name": "Contract_Address",
      "outputs": [
        {
          "internalType": "address",
          "name": "",
          "type": "address"
        }
      ],
      "stateMutability": "view",
      "type": "function"
    },
    {
      "inputs": [],
      "name": "OWNER_FEE",
      "outputs": [
        {
          "internalType": "uint256",
          "name": "",
          "type": "uint256"
        }
      ],
      "stateMutability": "view",
      "type": "function"
    },
    {
      "inputs": [],
      "name": "Owner_Contract",
      "outputs": [
        {
          "internalType": "address",
          "name": "",
          "type": "address"
        }
      ],
      "stateMutability": "view",
      "type": "function"
    },
    {
      "inputs": [],
      "name": "Owner_Profits",
      "outputs": [
        {
          "internalType": "uint256",
          "name": "",
          "type": "uint256"
        }
      ],
      "stateMutability": "view",
      "type": "function"
    },
    {
      "inputs": [
        {
          "internalType": "address",
          "name": "",
          "type": "address"
        }
      ],
      "name": "users",
      "outputs": [
        {
          "internalType": "address",
          "name": "funder",
          "type": "address"
        },
        {
          "internalType": "uint256",
          "name": "amount",
          "type": "uint256"
        },
        {
          "internalType": "uint256",
          "name": "wins",
          "type": "uint256"
        },
        {
          "internalType": "uint256",
          "name": "amountWins",
          "type": "uint256"
        },
        {
          "internalType": "bool",
          "name": "betUpPrediction",
          "type": "bool"
        },
        {
          "internalType": "bool",
          "name": "betDownPrediction",
          "type": "bool"
        },
        {
          "internalType": "uint256",
          "name": "betAmountUpPrediction",
          "type": "uint256"
        },
        {
          "internalType": "uint256",
          "name": "betAmountDownPrediction",
          "type": "uint256"
        }
      ],
      "stateMutability": "view",
      "type": "function"
    },
    {
      "inputs": [
        {
          "internalType": "uint256",
          "name": "",
          "type": "uint256"
        }
      ],
      "name": "usersAddress",
      "outputs": [
        {
          "internalType": "address",
          "name": "",
          "type": "address"
        }
      ],
      "stateMutability": "view",
      "type": "function"
    },
    {
      "stateMutability": "payable",
      "type": "receive"
    },
    {
      "inputs": [
        {
          "internalType": "uint256",
          "name": "_fee",
          "type": "uint256"
        }
      ],
      "name": "changeOwnerFee",
      "outputs": [],
      "stateMutability": "nonpayable",
      "type": "function"
    },
    {
      "inputs": [],
      "name": "userFunding",
      "outputs": [],
      "stateMutability": "payable",
      "type": "function"
    },
    {
      "inputs": [
        {
          "internalType": "uint256",
          "name": "_amountWithdrawall",
          "type": "uint256"
        }
      ],
      "name": "userWithdrawall",
      "outputs": [],
      "stateMutability": "nonpayable",
      "type": "function"
    },
    {
      "inputs": [
        {
          "internalType": "uint256",
          "name": "_amountWithdrawall",
          "type": "uint256"
        }
      ],
      "name": "ownerWithdrawall",
      "outputs": [],
      "stateMutability": "nonpayable",
      "type": "function"
    },
    {
      "inputs": [],
      "name": "userDeposit",
      "outputs": [
        {
          "internalType": "uint256",
          "name": "",
          "type": "uint256"
        }
      ],
      "stateMutability": "view",
      "type": "function"
    },
    {
      "inputs": [],
      "name": "userWins",
      "outputs": [
        {
          "internalType": "uint256",
          "name": "",
          "type": "uint256"
        }
      ],
      "stateMutability": "view",
      "type": "function"
    },
    {
      "inputs": [],
      "name": "userProfits",
      "outputs": [
        {
          "internalType": "uint256",
          "name": "",
          "type": "uint256"
        }
      ],
      "stateMutability": "view",
      "type": "function"
    }
  ],
  "bytecode": "0x60806040526002805534801561001457600080fd5b50336000806101000a81548173ffffffffffffffffffffffffffffffffffffffff021916908373ffffffffffffffffffffffffffffffffffffffff16021790555030600160006101000a81548173ffffffffffffffffffffffffffffffffffffffff021916908373ffffffffffffffffffffffffffffffffffffffff1602179055506113f3806100a56000396000f3fe6080604052600436106100c65760003560e01c80639b7d17c91161007f578063b065b79a11610059578063b065b79a14610296578063cd0a3692146102bf578063cf147c05146102ea578063e16f66d41461031557610106565b80639b7d17c9146101fe578063a2c8696214610227578063a87430ba1461025257610106565b80632c91324c1461010b57806348146113146101485780635dab0fe3146101735780637b12df391461019e5780637e84a7d8146101c9578063880df190146101d357610106565b36610106577fe1fffcc4923d04b559f4d29a8bfc6cda04eb5b0d3c460751c2402c5c5cc9109c33346040516100fc929190610eb6565b60405180910390a1005b600080fd5b34801561011757600080fd5b50610132600480360381019061012d9190610f10565b61033e565b60405161013f9190610f3d565b60405180910390f35b34801561015457600080fd5b5061015d61037d565b60405161016a9190610f58565b60405180910390f35b34801561017f57600080fd5b506101886103c7565b6040516101959190610f58565b60405180910390f35b3480156101aa57600080fd5b506101b36103cd565b6040516101c09190610f58565b60405180910390f35b6101d1610417565b005b3480156101df57600080fd5b506101e86108e2565b6040516101f59190610f58565b60405180910390f35b34801561020a57600080fd5b5061022560048036038101906102209190610f10565b61092c565b005b34801561023357600080fd5b5061023c610aff565b6040516102499190610f58565b60405180910390f35b34801561025e57600080fd5b5061027960048036038101906102749190610f9f565b610b05565b60405161028d989796959493929190610fe7565b60405180910390f35b3480156102a257600080fd5b506102bd60048036038101906102b89190610f10565b610b87565b005b3480156102cb57600080fd5b506102d4610d7a565b6040516102e19190610f3d565b60405180910390f35b3480156102f657600080fd5b506102ff610da0565b60405161030c9190610f3d565b60405180910390f35b34801561032157600080fd5b5061033c60048036038101906103379190610f10565b610dc4565b005b6005818154811061034e57600080fd5b906000526020600020016000915054906101000a900473ffffffffffffffffffffffffffffffffffffffff1681565b6000600460003373ffffffffffffffffffffffffffffffffffffffff1673ffffffffffffffffffffffffffffffffffffffff16815260200190815260200160002060010154905090565b60025481565b6000600460003373ffffffffffffffffffffffffffffffffffffffff1673ffffffffffffffffffffffffffffffffffffffff16815260200190815260200160002060030154905090565b60003373ffffffffffffffffffffffffffffffffffffffff163111610471576040517f08c379a0000000000000000000000000000000000000000000000000000000008152600401610468906110c2565b60405180910390fd5b600034116104b4576040517f08c379a00000000000000000000000000000000000000000000000000000000081526004016104ab90611154565b60405180910390fd5b6040518061010001604052803373ffffffffffffffffffffffffffffffffffffffff168152602001600460003373ffffffffffffffffffffffffffffffffffffffff1673ffffffffffffffffffffffffffffffffffffffff168152602001908152602001600020600101548152602001600460003373ffffffffffffffffffffffffffffffffffffffff1673ffffffffffffffffffffffffffffffffffffffff168152602001908152602001600020600201548152602001600460003373ffffffffffffffffffffffffffffffffffffffff1673ffffffffffffffffffffffffffffffffffffffff168152602001908152602001600020600301548152602001600460003373ffffffffffffffffffffffffffffffffffffffff1673ffffffffffffffffffffffffffffffffffffffff16815260200190815260200160002060040160009054906101000a900460ff1615158152602001600460003373ffffffffffffffffffffffffffffffffffffffff1673ffffffffffffffffffffffffffffffffffffffff16815260200190815260200160002060040160019054906101000a900460ff1615158152602001600460003373ffffffffffffffffffffffffffffffffffffffff1673ffffffffffffffffffffffffffffffffffffffff168152602001908152602001600020600501548152602001600460003373ffffffffffffffffffffffffffffffffffffffff1673ffffffffffffffffffffffffffffffffffffffff16815260200190815260200160002060060154815250600460003373ffffffffffffffffffffffffffffffffffffffff1673ffffffffffffffffffffffffffffffffffffffff16815260200190815260200160002060008201518160000160006101000a81548173ffffffffffffffffffffffffffffffffffffffff021916908373ffffffffffffffffffffffffffffffffffffffff16021790555060208201518160010155604082015181600201556060820151816003015560808201518160040160006101000a81548160ff02191690831515021790555060a08201518160040160016101000a81548160ff02191690831515021790555060c0820151816005015560e0820151816006015590505034600460003373ffffffffffffffffffffffffffffffffffffffff1673ffffffffffffffffffffffffffffffffffffffff168152602001908152602001600020600101600082825461083d91906111a3565b925050819055506005339080600181540180825580915050600190039060005260206000200160009091909190916101000a81548173ffffffffffffffffffffffffffffffffffffffff021916908373ffffffffffffffffffffffffffffffffffffffff1602179055507fe1fffcc4923d04b559f4d29a8bfc6cda04eb5b0d3c460751c2402c5c5cc9109c33346040516108d8929190610eb6565b60405180910390a1565b6000600460003373ffffffffffffffffffffffffffffffffffffffff1673ffffffffffffffffffffffffffffffffffffffff16815260200190815260200160002060020154905090565b60008054906101000a900473ffffffffffffffffffffffffffffffffffffffff1673ffffffffffffffffffffffffffffffffffffffff163373ffffffffffffffffffffffffffffffffffffffff16146109ba576040517f08c379a00000000000000000000000000000000000000000000000000000000081526004016109b19061126b565b60405180910390fd5b60008114156109fe576040517f08c379a00000000000000000000000000000000000000000000000000000000081526004016109f5906112d7565b60405180910390fd5b600354811115610a43576040517f08c379a0000000000000000000000000000000000000000000000000000000008152600401610a3a90611369565b60405180910390fd5b8060036000828254610a559190611389565b9250508190555060008054906101000a900473ffffffffffffffffffffffffffffffffffffffff1673ffffffffffffffffffffffffffffffffffffffff166108fc829081150290604051600060405180830381858888f19350505050158015610ac2573d6000803e3d6000fd5b507ff3fef3a3f44f9c277339b67d54f015748bd8d6b77a985b0ab6e71126b018c34a3382604051610af4929190610eb6565b60405180910390a150565b60035481565b60046020528060005260406000206000915090508060000160009054906101000a900473ffffffffffffffffffffffffffffffffffffffff16908060010154908060020154908060030154908060040160009054906101000a900460ff16908060040160019054906101000a900460ff16908060050154908060060154905088565b6000811415610bcb576040517f08c379a0000000000000000000000000000000000000000000000000000000008152600401610bc2906112d7565b60405180910390fd5b600460003373ffffffffffffffffffffffffffffffffffffffff1673ffffffffffffffffffffffffffffffffffffffff168152602001908152602001600020600101548111158015610c5f57506000600460003373ffffffffffffffffffffffffffffffffffffffff1673ffffffffffffffffffffffffffffffffffffffff16815260200190815260200160002060010154115b610c9e576040517f08c379a0000000000000000000000000000000000000000000000000000000008152600401610c9590611369565b60405180910390fd5b80600460003373ffffffffffffffffffffffffffffffffffffffff1673ffffffffffffffffffffffffffffffffffffffff1681526020019081526020016000206001016000828254610cf09190611389565b925050819055503373ffffffffffffffffffffffffffffffffffffffff166108fc829081150290604051600060405180830381858888f19350505050158015610d3d573d6000803e3d6000fd5b507ff3fef3a3f44f9c277339b67d54f015748bd8d6b77a985b0ab6e71126b018c34a3382604051610d6f929190610eb6565b60405180910390a150565b600160009054906101000a900473ffffffffffffffffffffffffffffffffffffffff1681565b60008054906101000a900473ffffffffffffffffffffffffffffffffffffffff1681565b60008054906101000a900473ffffffffffffffffffffffffffffffffffffffff1673ffffffffffffffffffffffffffffffffffffffff163373ffffffffffffffffffffffffffffffffffffffff1614610e52576040517f08c379a0000000000000000000000000000000000000000000000000000000008152600401610e499061126b565b60405180910390fd5b8060028190555050565b600073ffffffffffffffffffffffffffffffffffffffff82169050919050565b6000610e8782610e5c565b9050919050565b610e9781610e7c565b82525050565b6000819050919050565b610eb081610e9d565b82525050565b6000604082019050610ecb6000830185610e8e565b610ed86020830184610ea7565b9392505050565b600080fd5b610eed81610e9d565b8114610ef857600080fd5b50565b600081359050610f0a81610ee4565b92915050565b600060208284031215610f2657610f25610edf565b5b6000610f3484828501610efb565b91505092915050565b6000602082019050610f526000830184610e8e565b92915050565b6000602082019050610f6d6000830184610ea7565b92915050565b610f7c81610e7c565b8114610f8757600080fd5b50565b600081359050610f9981610f73565b92915050565b600060208284031215610fb557610fb4610edf565b5b6000610fc384828501610f8a565b91505092915050565b60008115159050919050565b610fe181610fcc565b82525050565b600061010082019050610ffd600083018b610e8e565b61100a602083018a610ea7565b6110176040830189610ea7565b6110246060830188610ea7565b6110316080830187610fd8565b61103e60a0830186610fd8565b61104b60c0830185610ea7565b61105860e0830184610ea7565b9998505050505050505050565b600082825260208201905092915050565b7f596f75722077616c6c657420646f6e2068617665206d6f6e6579000000000000600082015250565b60006110ac601a83611065565b91506110b782611076565b602082019050919050565b600060208201905081810360008301526110db8161109f565b9050919050565b7f596f757220616d6f756e742066756e64656420697320696e76616c69642c207060008201527f6c65617365207370656e64206d6f726520455448000000000000000000000000602082015250565b600061113e603483611065565b9150611149826110e2565b604082019050919050565b6000602082019050818103600083015261116d81611131565b9050919050565b7f4e487b7100000000000000000000000000000000000000000000000000000000600052601160045260246000fd5b60006111ae82610e9d565b91506111b983610e9d565b9250827fffffffffffffffffffffffffffffffffffffffffffffffffffffffffffffffff038211156111ee576111ed611174565b5b828201905092915050565b7f596f75206172656e7420746865206f776e6572206f662074686973204c6f747460008201527f6572790000000000000000000000000000000000000000000000000000000000602082015250565b6000611255602383611065565b9150611260826111f9565b604082019050919050565b6000602082019050818103600083015261128481611248565b9050919050565b7f596f752063616e74207769746864726177203000000000000000000000000000600082015250565b60006112c1601383611065565b91506112cc8261128b565b602082019050919050565b600060208201905081810360008301526112f0816112b4565b9050919050565b7f596f752063616e74207769746864726177206d6f7265206d6f6e65792074686160008201527f6e20796f75206861766500000000000000000000000000000000000000000000602082015250565b6000611353602a83611065565b915061135e826112f7565b604082019050919050565b6000602082019050818103600083015261138281611346565b9050919050565b600061139482610e9d565b915061139f83610e9d565b9250828210156113b2576113b1611174565b5b82820390509291505056fea2646970667358221220f7b18953eb6172c8ef374c67b7d1d9bcc41ca719ecc2b6b6af1f0c8a9fa4955264736f6c634300080a0033",
  "immutableReferences": {},
  "source": "// SPDX-License-Identifier: MIT\r\n\r\npragma solidity ^0.8.0;\r\n\r\nimport \"@openzeppelin/contracts/utils/math/SafeMath.sol\";\r\nimport \"@chainlink/contracts/src/v0.8/interfaces/AggregatorV3Interface.sol\";\r\n\r\ncontract Lottery {\r\n\r\n    using SafeMath for uint256;\r\n\r\n    constructor() {\r\n        Owner_Contract = msg.sender;\r\n        Contract_Address = address(this);\r\n    }\r\n\r\n    address public Owner_Contract;\r\n    address public Contract_Address;\r\n    uint256 public OWNER_FEE = 2;\r\n    uint256 public Owner_Profits;\r\n\r\n    mapping (address => Competitor) public users;\r\n\r\n    event Deposit (address, uint256) ;\r\n    event withdraw (address, uint256);\r\n\r\n    struct Competitor {\r\n        address funder;\r\n        uint256 amount;\r\n        uint256 wins;\r\n        uint256 amountWins;\r\n        bool betUpPrediction;\r\n        bool betDownPrediction;\r\n        uint256 betAmountUpPrediction;\r\n        uint256 betAmountDownPrediction;\r\n    }\r\n\r\n    address[] public usersAddress;\r\n       \r\n\r\n    modifier OnlyOwner(){\r\n        require(msg.sender == Owner_Contract,\"You arent the owner of this Lottery\");\r\n        _;\r\n    }\r\n\r\n    function changeOwnerFee(uint256 _fee) public OnlyOwner {\r\n        OWNER_FEE = _fee;\r\n    }\r\n\r\n    receive()external payable{\r\n        emit Deposit(msg.sender,msg.value);\r\n    }\r\n\r\n    function userFunding() public payable{\r\n        require(msg.sender.balance > 0 ether,\"Your wallet don have money\");\r\n        require(msg.value > 0 ether,\"Your amount funded is invalid, please spend more ETH\");\r\n        \r\n        users[msg.sender] = Competitor(\r\n                            msg.sender, users[msg.sender].amount, \r\n                            users[msg.sender].wins, \r\n                            users[msg.sender].amountWins,\r\n                            users[msg.sender].betUpPrediction,\r\n                            users[msg.sender].betDownPrediction,\r\n                            users[msg.sender].betAmountUpPrediction,\r\n                            users[msg.sender].betAmountDownPrediction\r\n                            );\r\n\r\n        users[msg.sender].amount += msg.value ;\r\n        usersAddress.push(msg.sender);\r\n\r\n        emit Deposit(msg.sender,msg.value);\r\n    }\r\n\r\n    function userWithdrawall (uint256 _amountWithdrawall) public {\r\n        require(_amountWithdrawall != 0,\"You cant withdraw 0\");        \r\n        require(_amountWithdrawall <= users[msg.sender].amount && users[msg.sender].amount > 0,\"You cant withdraw more money than you have\");\r\n        \r\n\r\n        users[msg.sender].amount -= _amountWithdrawall;\r\n        payable(msg.sender).transfer(_amountWithdrawall);\r\n\r\n        emit withdraw(msg.sender, _amountWithdrawall);\r\n    }      \r\n\r\n    function ownerWithdrawall (uint256 _amountWithdrawall) public OnlyOwner{\r\n        require(_amountWithdrawall != 0,\"You cant withdraw 0\");   \r\n        require(_amountWithdrawall <= Owner_Profits,\"You cant withdraw more money than you have\"); \r\n\r\n        Owner_Profits -= _amountWithdrawall;\r\n        payable(Owner_Contract).transfer(_amountWithdrawall);\r\n\r\n        emit withdraw(msg.sender, _amountWithdrawall);\r\n    }\r\n\r\n    function userDeposit() public view returns(uint256){\r\n        return users[msg.sender].amount;\r\n    }\r\n\r\n    function userWins() public view returns(uint256){\r\n        return users[msg.sender].wins;\r\n    }\r\n\r\n    function userProfits() public view returns(uint256){\r\n        return users[msg.sender].amountWins;\r\n    }\r\n\r\n}\r\n\r\ncontract Prediction is Lottery {\r\n\r\n    AggregatorV3Interface internal priceFeed;\r\n\r\n    constructor() {\r\n        //BNB Chain TestNet\r\n        //BNB/USD\r\n\r\n        priceFeed = AggregatorV3Interface(\r\n            0x2514895c72f50D8bd4B4F9b1110F0D6bD2c97526\r\n        );\r\n    }\r\n    \r\n    uint256 private Bet_Up;\r\n    uint256 private Bet_Down;    \r\n\r\n    uint256 private Bet_Up_Factor;\r\n    uint256 private Bet_Down_Factor;\r\n\r\n    int private ActualPrice; //Alimentado por chainlink\r\n    int private PriceLocked; // Precio Bloqueado desde chainlink\r\n\r\n    uint256 private timeLocked;\r\n\r\n    event betPriceUp (address, uint256);\r\n    event betPriceDown (address, uint256);\r\n\r\n    function priceUp (uint256 _betAmount) public {\r\n        require(_betAmount > 100 wei, \"You should bet more\");\r\n        require(users[msg.sender].amount > 0 && users[msg.sender].amount >= _betAmount,\"You dont have enough balance\");\r\n\r\n        uint256  _Owner_Profits;\r\n        users[msg.sender].amount -= _betAmount;\r\n        _Owner_Profits = (_betAmount*OWNER_FEE)/100;\r\n        _betAmount -= _Owner_Profits;\r\n        Owner_Profits += _Owner_Profits;\r\n        Bet_Up += _betAmount;\r\n        calculateBetFactor();\r\n\r\n        users[msg.sender].betUpPrediction = true;\r\n        users[msg.sender].betAmountUpPrediction += _betAmount;\r\n\r\n        emit betPriceUp (msg.sender, _betAmount);\r\n    }\r\n\r\n    function priceDown (uint256 _betAmount) public {\r\n        require(_betAmount > 100 wei, \"You should bet more\");\r\n        require(users[msg.sender].amount > 0 && users[msg.sender].amount >= _betAmount,\"You dont have enough balance\");\r\n\r\n        uint256  _Owner_Profits;\r\n        users[msg.sender].amount -= _betAmount;\r\n        _Owner_Profits = (_betAmount*OWNER_FEE)/100;\r\n        _betAmount -= _Owner_Profits;\r\n        Owner_Profits += _Owner_Profits;\r\n        Bet_Down += _betAmount;\r\n        calculateBetFactor();\r\n\r\n        users[msg.sender].betDownPrediction = true;\r\n        users[msg.sender].betAmountDownPrediction += _betAmount;\r\n\r\n        emit betPriceDown (msg.sender, _betAmount);\r\n    }    \r\n\r\n    function calculateBetFactor() private {\r\n\r\n        if(Bet_Up != 0){\r\n            Bet_Up_Factor = (betTotalPrediction() * 1 ether )/ Bet_Up ;\r\n        }\r\n        if(Bet_Down != 0){\r\n            Bet_Down_Factor = (betTotalPrediction() * 1 ether)/ Bet_Down;\r\n        }     \r\n\r\n    }\r\n\r\n    function betTotalPrediction() public view returns(uint256){\r\n        return (Bet_Up + Bet_Down);\r\n    }\r\n\r\n    function priceLocked(/*int _price*/) private {// Precio Bloqueado desde chainlink\r\n        timeLocked = block.timestamp;\r\n        //PriceLocked = _price;\r\n        (,PriceLocked,,,) =priceFeed.latestRoundData(); \r\n    }\r\n\r\n    function actualPrice(/*int _price*/) private {// Alimentado por chainlink\r\n\r\n        //ActualPrice =_price;        \r\n        (,ActualPrice,,,) =priceFeed.latestRoundData(); \r\n    }\r\n\r\n    function priceLoked() public view returns(int){\r\n        return PriceLocked;\r\n    }\r\n\r\n    function timeLoked () public view returns(uint256){\r\n        return timeLocked;\r\n    }\r\n    function pricePair() public view returns (int){\r\n        int price;\r\n        (,price,,,) =priceFeed.latestRoundData();\r\n        return price;\r\n    }\r\n\r\n    \r\n\r\n    function betUpFactor() public view returns(uint256){\r\n        return Bet_Up_Factor;\r\n    }\r\n\r\n    function betDownFactor() public view returns(uint256){\r\n        return Bet_Down_Factor;\r\n    }\r\n\r\n    function RewardsCalculated() public { //Solo puede ser ejecutada en el tiempo correcto - revisar esto     \r\n        require(msg.sender == Owner_Contract,\"You arent the owner of this Lottery choose the correct Sender\");\r\n        require(block.timestamp >= (timeLocked + 5 minutes),\"The time isnt now\");\r\n        actualPrice();\r\n\r\n        if(checkBalance()){\r\n            if(ActualPrice > PriceLocked){ \r\n                for(uint256 i=0; i <usersAddress.length; i++){\r\n                    if(users[usersAddress[i]].betUpPrediction && users[usersAddress[i]].betAmountUpPrediction > 0 && users[usersAddress[i]].betAmountUpPrediction <= betTotalPrediction()){\r\n                        users[usersAddress[i]].amount += (users[usersAddress[i]].betAmountUpPrediction * Bet_Up_Factor) / 1 ether;\r\n                        users[usersAddress[i]].betAmountUpPrediction = 0;\r\n                        users[usersAddress[i]].betUpPrediction = false;                        \r\n                    }\r\n                    if(users[usersAddress[i]].betDownPrediction){\r\n                        users[usersAddress[i]].betAmountDownPrediction = 0;\r\n                        users[usersAddress[i]].betDownPrediction = false;                        \r\n                    }\r\n\r\n                }\r\n            }\r\n            if(ActualPrice < PriceLocked){ \r\n                for(uint256 i=0; i <usersAddress.length; i++){\r\n                    if(users[usersAddress[i]].betDownPrediction && users[usersAddress[i]].betAmountDownPrediction > 0 && users[usersAddress[i]].betAmountDownPrediction <= betTotalPrediction()){\r\n                        users[usersAddress[i]].amount += (users[usersAddress[i]].betAmountDownPrediction * Bet_Down_Factor) / 1 ether;\r\n                        users[usersAddress[i]].betAmountDownPrediction = 0;\r\n                        users[usersAddress[i]].betDownPrediction = false;                        \r\n                    }\r\n                    if(users[usersAddress[i]].betUpPrediction){\r\n                        users[usersAddress[i]].betAmountUpPrediction = 0;\r\n                        users[usersAddress[i]].betUpPrediction = false;                       \r\n                    }\r\n\r\n                }\r\n                \r\n            }\r\n            if(actualPrice == priceLocked){          \r\n                \r\n                for(uint256 i=0; i <usersAddress.length; i++){\r\n                    users[usersAddress[i]].amount += users[usersAddress[i]].betAmountUpPrediction  ;\r\n                    users[usersAddress[i]].betAmountUpPrediction = 0;\r\n                    users[usersAddress[i]].betUpPrediction = false;\r\n\r\n                    users[usersAddress[i]].amount += users[usersAddress[i]].betAmountDownPrediction ;\r\n                    users[usersAddress[i]].betAmountDownPrediction = 0;\r\n                    users[usersAddress[i]].betDownPrediction = false;\r\n                }\r\n                \r\n            }    \r\n            Bet_Up=0;\r\n            Bet_Up_Factor=0;\r\n            Bet_Down=0;\r\n            Bet_Down_Factor=0;\r\n\r\n            priceLocked();\r\n        }    \r\n\r\n    }\r\n\r\n    function checkBalance() public view returns(bool){\r\n            uint256 _checkedBalance;\r\n            bool _checkedBalanceFlag = false;\r\n\r\n            for(uint256 i=0; i <usersAddress.length; i++){\r\n                _checkedBalance += users[usersAddress[i]].betAmountUpPrediction + users[usersAddress[i]].betAmountDownPrediction;\r\n            }\r\n            \r\n            if(_checkedBalance == betTotalPrediction()){_checkedBalanceFlag = true;}\r\n            else{_checkedBalanceFlag = false;}\r\n\r\n            return _checkedBalanceFlag;\r\n        }\r\n\r\n\r\n\r\n}",
  "sourcePath": "D:\\Documentos\\Visual\\LoteriaV2\\PrimerPrograma\\lottery-dapp\\src\\contracts\\Lottery.sol",
  "compiler": {
    "name": "solc",
    "version": "0.8.10+commit.fc410830.Emscripten.clang"
  },
  "schemaVersion": "3.4.3",
  "updatedAt": "2022-12-23T16:17:43.487Z",
  "devdoc": {
    "kind": "dev",
    "methods": {},
    "version": 1
  },
  "userdoc": {
    "kind": "user",
    "methods": {},
    "version": 1
  }
}