{
  "contractName": "Prediction",
  "abi": [
    {
      "inputs": [],
      "stateMutability": "nonpayable",
      "type": "constructor"
    },
    {
      "anonymous": false,
      "inputs": [
        {
          "indexed": false,
          "internalType": "address",
          "name": "",
          "type": "address"
        },
        {
          "indexed": false,
          "internalType": "uint256",
          "name": "",
          "type": "uint256"
        }
      ],
      "name": "Deposit",
      "type": "event"
    },
    {
      "anonymous": false,
      "inputs": [
        {
          "indexed": false,
          "internalType": "address",
          "name": "",
          "type": "address"
        }
      ],
      "name": "Sender",
      "type": "event"
    },
    {
      "anonymous": false,
      "inputs": [
        {
          "indexed": false,
          "internalType": "address",
          "name": "",
          "type": "address"
        },
        {
          "indexed": false,
          "internalType": "uint256",
          "name": "",
          "type": "uint256"
        }
      ],
      "name": "betPriceDown",
      "type": "event"
    },
    {
      "anonymous": false,
      "inputs": [
        {
          "indexed": false,
          "internalType": "address",
          "name": "",
          "type": "address"
        },
        {
          "indexed": false,
          "internalType": "uint256",
          "name": "",
          "type": "uint256"
        }
      ],
      "name": "betPriceUp",
      "type": "event"
    },
    {
      "anonymous": false,
      "inputs": [
        {
          "indexed": false,
          "internalType": "address",
          "name": "",
          "type": "address"
        },
        {
          "indexed": false,
          "internalType": "uint256",
          "name": "",
          "type": "uint256"
        }
      ],
      "name": "withdraw",
      "type": "event"
    },
    {
      "inputs": [],
      "name": "Contract_Address",
      "outputs": [
        {
          "internalType": "address",
          "name": "",
          "type": "address"
        }
      ],
      "stateMutability": "view",
      "type": "function",
      "constant": true
    },
    {
      "inputs": [],
      "name": "OWNER_FEE",
      "outputs": [
        {
          "internalType": "uint256",
          "name": "",
          "type": "uint256"
        }
      ],
      "stateMutability": "view",
      "type": "function",
      "constant": true
    },
    {
      "inputs": [],
      "name": "Owner_Contract",
      "outputs": [
        {
          "internalType": "address",
          "name": "",
          "type": "address"
        }
      ],
      "stateMutability": "view",
      "type": "function",
      "constant": true
    },
    {
      "inputs": [],
      "name": "Owner_Profits",
      "outputs": [
        {
          "internalType": "uint256",
          "name": "",
          "type": "uint256"
        }
      ],
      "stateMutability": "view",
      "type": "function",
      "constant": true
    },
    {
      "inputs": [
        {
          "internalType": "uint256",
          "name": "_fee",
          "type": "uint256"
        }
      ],
      "name": "changeOwnerFee",
      "outputs": [],
      "stateMutability": "nonpayable",
      "type": "function"
    },
    {
      "inputs": [],
      "name": "getSender",
      "outputs": [
        {
          "internalType": "address",
          "name": "",
          "type": "address"
        }
      ],
      "stateMutability": "nonpayable",
      "type": "function"
    },
    {
      "inputs": [
        {
          "internalType": "uint256",
          "name": "_amountWithdrawall",
          "type": "uint256"
        }
      ],
      "name": "ownerWithdrawall",
      "outputs": [],
      "stateMutability": "nonpayable",
      "type": "function"
    },
    {
      "inputs": [],
      "name": "userDeposit",
      "outputs": [
        {
          "internalType": "uint256",
          "name": "",
          "type": "uint256"
        }
      ],
      "stateMutability": "view",
      "type": "function",
      "constant": true
    },
    {
      "inputs": [],
      "name": "userFunding",
      "outputs": [],
      "stateMutability": "payable",
      "type": "function",
      "payable": true
    },
    {
      "inputs": [],
      "name": "userProfits",
      "outputs": [
        {
          "internalType": "uint256",
          "name": "",
          "type": "uint256"
        }
      ],
      "stateMutability": "view",
      "type": "function",
      "constant": true
    },
    {
      "inputs": [],
      "name": "userWins",
      "outputs": [
        {
          "internalType": "uint256",
          "name": "",
          "type": "uint256"
        }
      ],
      "stateMutability": "view",
      "type": "function",
      "constant": true
    },
    {
      "inputs": [
        {
          "internalType": "uint256",
          "name": "_amountWithdrawall",
          "type": "uint256"
        }
      ],
      "name": "userWithdrawall",
      "outputs": [],
      "stateMutability": "nonpayable",
      "type": "function"
    },
    {
      "inputs": [
        {
          "internalType": "address",
          "name": "",
          "type": "address"
        }
      ],
      "name": "users",
      "outputs": [
        {
          "internalType": "address",
          "name": "funder",
          "type": "address"
        },
        {
          "internalType": "uint256",
          "name": "amount",
          "type": "uint256"
        },
        {
          "internalType": "uint256",
          "name": "wins",
          "type": "uint256"
        },
        {
          "internalType": "uint256",
          "name": "amountWins",
          "type": "uint256"
        },
        {
          "internalType": "bool",
          "name": "betUpPrediction",
          "type": "bool"
        },
        {
          "internalType": "bool",
          "name": "betDownPrediction",
          "type": "bool"
        },
        {
          "internalType": "uint256",
          "name": "betAmountUpPrediction",
          "type": "uint256"
        },
        {
          "internalType": "uint256",
          "name": "betAmountDownPrediction",
          "type": "uint256"
        }
      ],
      "stateMutability": "view",
      "type": "function",
      "constant": true
    },
    {
      "inputs": [
        {
          "internalType": "uint256",
          "name": "",
          "type": "uint256"
        }
      ],
      "name": "usersAddress",
      "outputs": [
        {
          "internalType": "address",
          "name": "",
          "type": "address"
        }
      ],
      "stateMutability": "view",
      "type": "function",
      "constant": true
    },
    {
      "stateMutability": "payable",
      "type": "receive",
      "payable": true
    },
    {
      "inputs": [
        {
          "internalType": "uint256",
          "name": "_betAmount",
          "type": "uint256"
        }
      ],
      "name": "priceUp",
      "outputs": [],
      "stateMutability": "nonpayable",
      "type": "function"
    },
    {
      "inputs": [
        {
          "internalType": "uint256",
          "name": "_betAmount",
          "type": "uint256"
        }
      ],
      "name": "priceDown",
      "outputs": [],
      "stateMutability": "nonpayable",
      "type": "function"
    },
    {
      "inputs": [],
      "name": "betTotalPrediction",
      "outputs": [
        {
          "internalType": "uint256",
          "name": "",
          "type": "uint256"
        }
      ],
      "stateMutability": "view",
      "type": "function",
      "constant": true
    },
    {
      "inputs": [],
      "name": "priceLoked",
      "outputs": [
        {
          "internalType": "int256",
          "name": "",
          "type": "int256"
        }
      ],
      "stateMutability": "view",
      "type": "function",
      "constant": true
    },
    {
      "inputs": [],
      "name": "timeLoked",
      "outputs": [
        {
          "internalType": "uint256",
          "name": "",
          "type": "uint256"
        }
      ],
      "stateMutability": "view",
      "type": "function",
      "constant": true
    },
    {
      "inputs": [],
      "name": "pricePair",
      "outputs": [
        {
          "internalType": "int256",
          "name": "",
          "type": "int256"
        }
      ],
      "stateMutability": "view",
      "type": "function",
      "constant": true
    },
    {
      "inputs": [],
      "name": "betUpFactor",
      "outputs": [
        {
          "internalType": "uint256",
          "name": "",
          "type": "uint256"
        }
      ],
      "stateMutability": "view",
      "type": "function",
      "constant": true
    },
    {
      "inputs": [],
      "name": "betDownFactor",
      "outputs": [
        {
          "internalType": "uint256",
          "name": "",
          "type": "uint256"
        }
      ],
      "stateMutability": "view",
      "type": "function",
      "constant": true
    },
    {
      "inputs": [],
      "name": "RewardsCalculated",
      "outputs": [],
      "stateMutability": "nonpayable",
      "type": "function"
    },
    {
      "inputs": [],
      "name": "checkBalance",
      "outputs": [
        {
          "internalType": "bool",
          "name": "",
          "type": "bool"
        }
      ],
      "stateMutability": "view",
      "type": "function",
      "constant": true
    }
  ],
  "bytecode": "0x60806040526002805534801561001457600080fd5b50336000806101000a81548173ffffffffffffffffffffffffffffffffffffffff021916908373ffffffffffffffffffffffffffffffffffffffff16021790555030600160006101000a81548173ffffffffffffffffffffffffffffffffffffffff021916908373ffffffffffffffffffffffffffffffffffffffff160217905550732514895c72f50d8bd4b4f9b1110f0d6bd2c97526600660006101000a81548173ffffffffffffffffffffffffffffffffffffffff021916908373ffffffffffffffffffffffffffffffffffffffff16021790555061361c806100fa6000396000f3fe60806040526004361061014f5760003560e01c8063863a6629116100b6578063a87430ba1161006f578063a87430ba14610471578063b065b79a146104b5578063c71daccb146104de578063cd0a369214610509578063cf147c0514610534578063e16f66d41461055f5761018f565b8063863a662914610387578063880df190146103b25780639b7d17c9146103dd578063a1ea8cd514610406578063a2c869621461041d578063a5d04808146104485761018f565b80635e01eb5a116101085780635e01eb5a146102a6578063731d4480146102d15780637b12df39146102fc5780637d58b9e9146103275780637e84a7d81461035257806381648ba01461035c5761018f565b80630b28a86f146101945780631ebb7036146101bd5780632c91324c146101e8578063481461131461022557806357e113e0146102505780635dab0fe31461027b5761018f565b3661018f577fe1fffcc4923d04b559f4d29a8bfc6cda04eb5b0d3c460751c2402c5c5cc9109c3334604051610185929190612c8a565b60405180910390a1005b600080fd5b3480156101a057600080fd5b506101bb60048036038101906101b69190612ce4565b610588565b005b3480156101c957600080fd5b506101d261084e565b6040516101df9190612d11565b60405180910390f35b3480156101f457600080fd5b5061020f600480360381019061020a9190612ce4565b610858565b60405161021c9190612d2c565b60405180910390f35b34801561023157600080fd5b5061023a610897565b6040516102479190612d11565b60405180910390f35b34801561025c57600080fd5b506102656108e1565b6040516102729190612d11565b60405180910390f35b34801561028757600080fd5b506102906108f8565b60405161029d9190612d11565b60405180910390f35b3480156102b257600080fd5b506102bb6108fe565b6040516102c89190612d2c565b60405180910390f35b3480156102dd57600080fd5b506102e661093d565b6040516102f39190612d11565b60405180910390f35b34801561030857600080fd5b50610311610947565b60405161031e9190612d11565b60405180910390f35b34801561033357600080fd5b5061033c610991565b6040516103499190612d60565b60405180910390f35b61035a61099b565b005b34801561036857600080fd5b50610371610e66565b60405161037e9190612d11565b60405180910390f35b34801561039357600080fd5b5061039c610e70565b6040516103a99190612d60565b60405180910390f35b3480156103be57600080fd5b506103c7610f1a565b6040516103d49190612d11565b60405180910390f35b3480156103e957600080fd5b5061040460048036038101906103ff9190612ce4565b610f64565b005b34801561041257600080fd5b5061041b611137565b005b34801561042957600080fd5b506104326122dc565b60405161043f9190612d11565b60405180910390f35b34801561045457600080fd5b5061046f600480360381019061046a9190612ce4565b6122e2565b005b34801561047d57600080fd5b5061049860048036038101906104939190612da7565b6125a8565b6040516104ac989796959493929190612def565b60405180910390f35b3480156104c157600080fd5b506104dc60048036038101906104d79190612ce4565b61262a565b005b3480156104ea57600080fd5b506104f361281d565b6040516105009190612e6d565b60405180910390f35b34801561051557600080fd5b5061051e612983565b60405161052b9190612d2c565b60405180910390f35b34801561054057600080fd5b506105496129a9565b6040516105569190612d2c565b60405180910390f35b34801561056b57600080fd5b5061058660048036038101906105819190612ce4565b6129cd565b005b606481116105cb576040517f08c379a00000000000000000000000000000000000000000000000000000000081526004016105c290612ee5565b60405180910390fd5b6000600460003373ffffffffffffffffffffffffffffffffffffffff1673ffffffffffffffffffffffffffffffffffffffff1681526020019081526020016000206001015411801561065f575080600460003373ffffffffffffffffffffffffffffffffffffffff1673ffffffffffffffffffffffffffffffffffffffff1681526020019081526020016000206001015410155b61069e576040517f08c379a000000000000000000000000000000000000000000000000000000000815260040161069590612f51565b60405180910390fd5b600081600460003373ffffffffffffffffffffffffffffffffffffffff1673ffffffffffffffffffffffffffffffffffffffff16815260200190815260200160002060010160008282546106f29190612fa0565b925050819055506064600254836107099190612fd4565b610713919061305d565b905080826107219190612fa0565b91508060036000828254610735919061308e565b92505081905550816008600082825461074e919061308e565b9250508190555061075d612a65565b6001600460003373ffffffffffffffffffffffffffffffffffffffff1673ffffffffffffffffffffffffffffffffffffffff16815260200190815260200160002060040160016101000a81548160ff02191690831515021790555081600460003373ffffffffffffffffffffffffffffffffffffffff1673ffffffffffffffffffffffffffffffffffffffff168152602001908152602001600020600601600082825461080a919061308e565b925050819055507ff711f01ae5de38645cc7107885d9a6b83d2c8b8f45e43564ae4cdc174db2976f3383604051610842929190612c8a565b60405180910390a15050565b6000600d54905090565b6005818154811061086857600080fd5b906000526020600020016000915054906101000a900473ffffffffffffffffffffffffffffffffffffffff1681565b6000600460003373ffffffffffffffffffffffffffffffffffffffff1673ffffffffffffffffffffffffffffffffffffffff16815260200190815260200160002060010154905090565b60006008546007546108f3919061308e565b905090565b60025481565b60007fd6558c3ed910d959271054471fd1c326679d9fece99c5091b00ed89627cf2bfc3360405161092f9190612d2c565b60405180910390a133905090565b6000600954905090565b6000600460003373ffffffffffffffffffffffffffffffffffffffff1673ffffffffffffffffffffffffffffffffffffffff16815260200190815260200160002060030154905090565b6000600c54905090565b60003373ffffffffffffffffffffffffffffffffffffffff1631116109f5576040517f08c379a00000000000000000000000000000000000000000000000000000000081526004016109ec90613130565b60405180910390fd5b60003411610a38576040517f08c379a0000000000000000000000000000000000000000000000000000000008152600401610a2f906131c2565b60405180910390fd5b6040518061010001604052803373ffffffffffffffffffffffffffffffffffffffff168152602001600460003373ffffffffffffffffffffffffffffffffffffffff1673ffffffffffffffffffffffffffffffffffffffff168152602001908152602001600020600101548152602001600460003373ffffffffffffffffffffffffffffffffffffffff1673ffffffffffffffffffffffffffffffffffffffff168152602001908152602001600020600201548152602001600460003373ffffffffffffffffffffffffffffffffffffffff1673ffffffffffffffffffffffffffffffffffffffff168152602001908152602001600020600301548152602001600460003373ffffffffffffffffffffffffffffffffffffffff1673ffffffffffffffffffffffffffffffffffffffff16815260200190815260200160002060040160009054906101000a900460ff1615158152602001600460003373ffffffffffffffffffffffffffffffffffffffff1673ffffffffffffffffffffffffffffffffffffffff16815260200190815260200160002060040160019054906101000a900460ff1615158152602001600460003373ffffffffffffffffffffffffffffffffffffffff1673ffffffffffffffffffffffffffffffffffffffff168152602001908152602001600020600501548152602001600460003373ffffffffffffffffffffffffffffffffffffffff1673ffffffffffffffffffffffffffffffffffffffff16815260200190815260200160002060060154815250600460003373ffffffffffffffffffffffffffffffffffffffff1673ffffffffffffffffffffffffffffffffffffffff16815260200190815260200160002060008201518160000160006101000a81548173ffffffffffffffffffffffffffffffffffffffff021916908373ffffffffffffffffffffffffffffffffffffffff16021790555060208201518160010155604082015181600201556060820151816003015560808201518160040160006101000a81548160ff02191690831515021790555060a08201518160040160016101000a81548160ff02191690831515021790555060c0820151816005015560e0820151816006015590505034600460003373ffffffffffffffffffffffffffffffffffffffff1673ffffffffffffffffffffffffffffffffffffffff1681526020019081526020016000206001016000828254610dc1919061308e565b925050819055506005339080600181540180825580915050600190039060005260206000200160009091909190916101000a81548173ffffffffffffffffffffffffffffffffffffffff021916908373ffffffffffffffffffffffffffffffffffffffff1602179055507fe1fffcc4923d04b559f4d29a8bfc6cda04eb5b0d3c460751c2402c5c5cc9109c3334604051610e5c929190612c8a565b60405180910390a1565b6000600a54905090565b600080600660009054906101000a900473ffffffffffffffffffffffffffffffffffffffff1673ffffffffffffffffffffffffffffffffffffffff1663feaf968c6040518163ffffffff1660e01b815260040160a060405180830381865afa158015610ee0573d6000803e3d6000fd5b505050506040513d601f19601f82011682018060405250810190610f049190613265565b9091929350909150905050809150508091505090565b6000600460003373ffffffffffffffffffffffffffffffffffffffff1673ffffffffffffffffffffffffffffffffffffffff16815260200190815260200160002060020154905090565b60008054906101000a900473ffffffffffffffffffffffffffffffffffffffff1673ffffffffffffffffffffffffffffffffffffffff163373ffffffffffffffffffffffffffffffffffffffff1614610ff2576040517f08c379a0000000000000000000000000000000000000000000000000000000008152600401610fe990613352565b60405180910390fd5b6000811415611036576040517f08c379a000000000000000000000000000000000000000000000000000000000815260040161102d906133be565b60405180910390fd5b60035481111561107b576040517f08c379a000000000000000000000000000000000000000000000000000000000815260040161107290613450565b60405180910390fd5b806003600082825461108d9190612fa0565b9250508190555060008054906101000a900473ffffffffffffffffffffffffffffffffffffffff1673ffffffffffffffffffffffffffffffffffffffff166108fc829081150290604051600060405180830381858888f193505050501580156110fa573d6000803e3d6000fd5b507ff3fef3a3f44f9c277339b67d54f015748bd8d6b77a985b0ab6e71126b018c34a338260405161112c929190612c8a565b60405180910390a150565b60008054906101000a900473ffffffffffffffffffffffffffffffffffffffff1673ffffffffffffffffffffffffffffffffffffffff166111766108fe565b73ffffffffffffffffffffffffffffffffffffffff16146111cc576040517f08c379a00000000000000000000000000000000000000000000000000000000081526004016111c3906134e2565b60405180910390fd5b61012c600d546111dc919061308e565b42101561121e576040517f08c379a00000000000000000000000000000000000000000000000000000000081526004016112159061354e565b60405180910390fd5b611226612ad9565b61122e61281d565b156122da57600c54600b5413156118205760005b60058054905081101561181e5760046000600583815481106112675761126661356e565b5b9060005260206000200160009054906101000a900473ffffffffffffffffffffffffffffffffffffffff1673ffffffffffffffffffffffffffffffffffffffff1673ffffffffffffffffffffffffffffffffffffffff16815260200190815260200160002060040160009054906101000a900460ff1680156113695750600060046000600584815481106112fe576112fd61356e565b5b9060005260206000200160009054906101000a900473ffffffffffffffffffffffffffffffffffffffff1673ffffffffffffffffffffffffffffffffffffffff1673ffffffffffffffffffffffffffffffffffffffff16815260200190815260200160002060050154115b80156113fc57506113786108e1565b60046000600584815481106113905761138f61356e565b5b9060005260206000200160009054906101000a900473ffffffffffffffffffffffffffffffffffffffff1673ffffffffffffffffffffffffffffffffffffffff1673ffffffffffffffffffffffffffffffffffffffff1681526020019081526020016000206005015411155b1561165857670de0b6b3a764000060095460046000600585815481106114255761142461356e565b5b9060005260206000200160009054906101000a900473ffffffffffffffffffffffffffffffffffffffff1673ffffffffffffffffffffffffffffffffffffffff1673ffffffffffffffffffffffffffffffffffffffff168152602001908152602001600020600501546114989190612fd4565b6114a2919061305d565b60046000600584815481106114ba576114b961356e565b5b9060005260206000200160009054906101000a900473ffffffffffffffffffffffffffffffffffffffff1673ffffffffffffffffffffffffffffffffffffffff1673ffffffffffffffffffffffffffffffffffffffff1681526020019081526020016000206001016000828254611531919061308e565b92505081905550600060046000600584815481106115525761155161356e565b5b9060005260206000200160009054906101000a900473ffffffffffffffffffffffffffffffffffffffff1673ffffffffffffffffffffffffffffffffffffffff1673ffffffffffffffffffffffffffffffffffffffff16815260200190815260200160002060050181905550600060046000600584815481106115d8576115d761356e565b5b9060005260206000200160009054906101000a900473ffffffffffffffffffffffffffffffffffffffff1673ffffffffffffffffffffffffffffffffffffffff1673ffffffffffffffffffffffffffffffffffffffff16815260200190815260200160002060040160006101000a81548160ff0219169083151502179055505b60046000600583815481106116705761166f61356e565b5b9060005260206000200160009054906101000a900473ffffffffffffffffffffffffffffffffffffffff1673ffffffffffffffffffffffffffffffffffffffff1673ffffffffffffffffffffffffffffffffffffffff16815260200190815260200160002060040160019054906101000a900460ff161561180b57600060046000600584815481106117055761170461356e565b5b9060005260206000200160009054906101000a900473ffffffffffffffffffffffffffffffffffffffff1673ffffffffffffffffffffffffffffffffffffffff1673ffffffffffffffffffffffffffffffffffffffff168152602001908152602001600020600601819055506000600460006005848154811061178b5761178a61356e565b5b9060005260206000200160009054906101000a900473ffffffffffffffffffffffffffffffffffffffff1673ffffffffffffffffffffffffffffffffffffffff1673ffffffffffffffffffffffffffffffffffffffff16815260200190815260200160002060040160016101000a81548160ff0219169083151502179055505b80806118169061359d565b915050611242565b505b600c54600b541215611e0d5760005b600580549050811015611e0b5760046000600583815481106118545761185361356e565b5b9060005260206000200160009054906101000a900473ffffffffffffffffffffffffffffffffffffffff1673ffffffffffffffffffffffffffffffffffffffff1673ffffffffffffffffffffffffffffffffffffffff16815260200190815260200160002060040160019054906101000a900460ff1680156119565750600060046000600584815481106118eb576118ea61356e565b5b9060005260206000200160009054906101000a900473ffffffffffffffffffffffffffffffffffffffff1673ffffffffffffffffffffffffffffffffffffffff1673ffffffffffffffffffffffffffffffffffffffff16815260200190815260200160002060060154115b80156119e957506119656108e1565b600460006005848154811061197d5761197c61356e565b5b9060005260206000200160009054906101000a900473ffffffffffffffffffffffffffffffffffffffff1673ffffffffffffffffffffffffffffffffffffffff1673ffffffffffffffffffffffffffffffffffffffff1681526020019081526020016000206006015411155b15611c4557670de0b6b3a7640000600a546004600060058581548110611a1257611a1161356e565b5b9060005260206000200160009054906101000a900473ffffffffffffffffffffffffffffffffffffffff1673ffffffffffffffffffffffffffffffffffffffff1673ffffffffffffffffffffffffffffffffffffffff16815260200190815260200160002060060154611a859190612fd4565b611a8f919061305d565b6004600060058481548110611aa757611aa661356e565b5b9060005260206000200160009054906101000a900473ffffffffffffffffffffffffffffffffffffffff1673ffffffffffffffffffffffffffffffffffffffff1673ffffffffffffffffffffffffffffffffffffffff1681526020019081526020016000206001016000828254611b1e919061308e565b9250508190555060006004600060058481548110611b3f57611b3e61356e565b5b9060005260206000200160009054906101000a900473ffffffffffffffffffffffffffffffffffffffff1673ffffffffffffffffffffffffffffffffffffffff1673ffffffffffffffffffffffffffffffffffffffff1681526020019081526020016000206006018190555060006004600060058481548110611bc557611bc461356e565b5b9060005260206000200160009054906101000a900473ffffffffffffffffffffffffffffffffffffffff1673ffffffffffffffffffffffffffffffffffffffff1673ffffffffffffffffffffffffffffffffffffffff16815260200190815260200160002060040160016101000a81548160ff0219169083151502179055505b6004600060058381548110611c5d57611c5c61356e565b5b9060005260206000200160009054906101000a900473ffffffffffffffffffffffffffffffffffffffff1673ffffffffffffffffffffffffffffffffffffffff1673ffffffffffffffffffffffffffffffffffffffff16815260200190815260200160002060040160009054906101000a900460ff1615611df85760006004600060058481548110611cf257611cf161356e565b5b9060005260206000200160009054906101000a900473ffffffffffffffffffffffffffffffffffffffff1673ffffffffffffffffffffffffffffffffffffffff1673ffffffffffffffffffffffffffffffffffffffff1681526020019081526020016000206005018190555060006004600060058481548110611d7857611d7761356e565b5b9060005260206000200160009054906101000a900473ffffffffffffffffffffffffffffffffffffffff1673ffffffffffffffffffffffffffffffffffffffff1673ffffffffffffffffffffffffffffffffffffffff16815260200190815260200160002060040160006101000a81548160ff0219169083151502179055505b8080611e039061359d565b91505061182f565b505b612b81612ad99063ffffffff1614156122b15760005b6005805490508110156122af576004600060058381548110611e4857611e4761356e565b5b9060005260206000200160009054906101000a900473ffffffffffffffffffffffffffffffffffffffff1673ffffffffffffffffffffffffffffffffffffffff1673ffffffffffffffffffffffffffffffffffffffff168152602001908152602001600020600501546004600060058481548110611ec957611ec861356e565b5b9060005260206000200160009054906101000a900473ffffffffffffffffffffffffffffffffffffffff1673ffffffffffffffffffffffffffffffffffffffff1673ffffffffffffffffffffffffffffffffffffffff1681526020019081526020016000206001016000828254611f40919061308e565b9250508190555060006004600060058481548110611f6157611f6061356e565b5b9060005260206000200160009054906101000a900473ffffffffffffffffffffffffffffffffffffffff1673ffffffffffffffffffffffffffffffffffffffff1673ffffffffffffffffffffffffffffffffffffffff1681526020019081526020016000206005018190555060006004600060058481548110611fe757611fe661356e565b5b9060005260206000200160009054906101000a900473ffffffffffffffffffffffffffffffffffffffff1673ffffffffffffffffffffffffffffffffffffffff1673ffffffffffffffffffffffffffffffffffffffff16815260200190815260200160002060040160006101000a81548160ff021916908315150217905550600460006005838154811061207e5761207d61356e565b5b9060005260206000200160009054906101000a900473ffffffffffffffffffffffffffffffffffffffff1673ffffffffffffffffffffffffffffffffffffffff1673ffffffffffffffffffffffffffffffffffffffff1681526020019081526020016000206006015460046000600584815481106120ff576120fe61356e565b5b9060005260206000200160009054906101000a900473ffffffffffffffffffffffffffffffffffffffff1673ffffffffffffffffffffffffffffffffffffffff1673ffffffffffffffffffffffffffffffffffffffff1681526020019081526020016000206001016000828254612176919061308e565b92505081905550600060046000600584815481106121975761219661356e565b5b9060005260206000200160009054906101000a900473ffffffffffffffffffffffffffffffffffffffff1673ffffffffffffffffffffffffffffffffffffffff1673ffffffffffffffffffffffffffffffffffffffff168152602001908152602001600020600601819055506000600460006005848154811061221d5761221c61356e565b5b9060005260206000200160009054906101000a900473ffffffffffffffffffffffffffffffffffffffff1673ffffffffffffffffffffffffffffffffffffffff1673ffffffffffffffffffffffffffffffffffffffff16815260200190815260200160002060040160016101000a81548160ff02191690831515021790555080806122a79061359d565b915050611e23565b505b6000600781905550600060098190555060006008819055506000600a819055506122d9612b81565b5b565b60035481565b60648111612325576040517f08c379a000000000000000000000000000000000000000000000000000000000815260040161231c90612ee5565b60405180910390fd5b6000600460003373ffffffffffffffffffffffffffffffffffffffff1673ffffffffffffffffffffffffffffffffffffffff168152602001908152602001600020600101541180156123b9575080600460003373ffffffffffffffffffffffffffffffffffffffff1673ffffffffffffffffffffffffffffffffffffffff1681526020019081526020016000206001015410155b6123f8576040517f08c379a00000000000000000000000000000000000000000000000000000000081526004016123ef90612f51565b60405180910390fd5b600081600460003373ffffffffffffffffffffffffffffffffffffffff1673ffffffffffffffffffffffffffffffffffffffff168152602001908152602001600020600101600082825461244c9190612fa0565b925050819055506064600254836124639190612fd4565b61246d919061305d565b9050808261247b9190612fa0565b9150806003600082825461248f919061308e565b9250508190555081600760008282546124a8919061308e565b925050819055506124b7612a65565b6001600460003373ffffffffffffffffffffffffffffffffffffffff1673ffffffffffffffffffffffffffffffffffffffff16815260200190815260200160002060040160006101000a81548160ff02191690831515021790555081600460003373ffffffffffffffffffffffffffffffffffffffff1673ffffffffffffffffffffffffffffffffffffffff1681526020019081526020016000206005016000828254612564919061308e565b925050819055507f671f01305b599ef1b0852f7a403578f70febad050931e5b911b400f98c0d9259338360405161259c929190612c8a565b60405180910390a15050565b60046020528060005260406000206000915090508060000160009054906101000a900473ffffffffffffffffffffffffffffffffffffffff16908060010154908060020154908060030154908060040160009054906101000a900460ff16908060040160019054906101000a900460ff16908060050154908060060154905088565b600081141561266e576040517f08c379a0000000000000000000000000000000000000000000000000000000008152600401612665906133be565b60405180910390fd5b600460003373ffffffffffffffffffffffffffffffffffffffff1673ffffffffffffffffffffffffffffffffffffffff16815260200190815260200160002060010154811115801561270257506000600460003373ffffffffffffffffffffffffffffffffffffffff1673ffffffffffffffffffffffffffffffffffffffff16815260200190815260200160002060010154115b612741576040517f08c379a000000000000000000000000000000000000000000000000000000000815260040161273890613450565b60405180910390fd5b80600460003373ffffffffffffffffffffffffffffffffffffffff1673ffffffffffffffffffffffffffffffffffffffff16815260200190815260200160002060010160008282546127939190612fa0565b925050819055503373ffffffffffffffffffffffffffffffffffffffff166108fc829081150290604051600060405180830381858888f193505050501580156127e0573d6000803e3d6000fd5b507ff3fef3a3f44f9c277339b67d54f015748bd8d6b77a985b0ab6e71126b018c34a3382604051612812929190612c8a565b60405180910390a150565b6000806000805b60058054905081101561295d5760046000600583815481106128495761284861356e565b5b9060005260206000200160009054906101000a900473ffffffffffffffffffffffffffffffffffffffff1673ffffffffffffffffffffffffffffffffffffffff1673ffffffffffffffffffffffffffffffffffffffff1681526020019081526020016000206006015460046000600584815481106128ca576128c961356e565b5b9060005260206000200160009054906101000a900473ffffffffffffffffffffffffffffffffffffffff1673ffffffffffffffffffffffffffffffffffffffff1673ffffffffffffffffffffffffffffffffffffffff1681526020019081526020016000206005015461293d919061308e565b83612948919061308e565b925080806129559061359d565b915050612824565b506129666108e1565b821415612976576001905061297b565b600090505b809250505090565b600160009054906101000a900473ffffffffffffffffffffffffffffffffffffffff1681565b60008054906101000a900473ffffffffffffffffffffffffffffffffffffffff1681565b60008054906101000a900473ffffffffffffffffffffffffffffffffffffffff1673ffffffffffffffffffffffffffffffffffffffff163373ffffffffffffffffffffffffffffffffffffffff1614612a5b576040517f08c379a0000000000000000000000000000000000000000000000000000000008152600401612a5290613352565b60405180910390fd5b8060028190555050565b600060075414612a9e57600754670de0b6b3a7640000612a836108e1565b612a8d9190612fd4565b612a97919061305d565b6009819055505b600060085414612ad757600854670de0b6b3a7640000612abc6108e1565b612ac69190612fd4565b612ad0919061305d565b600a819055505b565b600660009054906101000a900473ffffffffffffffffffffffffffffffffffffffff1673ffffffffffffffffffffffffffffffffffffffff1663feaf968c6040518163ffffffff1660e01b815260040160a060405180830381865afa158015612b46573d6000803e3d6000fd5b505050506040513d601f19601f82011682018060405250810190612b6a9190613265565b9091929350909150905050600b6000829190505550565b42600d81905550600660009054906101000a900473ffffffffffffffffffffffffffffffffffffffff1673ffffffffffffffffffffffffffffffffffffffff1663feaf968c6040518163ffffffff1660e01b815260040160a060405180830381865afa158015612bf5573d6000803e3d6000fd5b505050506040513d601f19601f82011682018060405250810190612c199190613265565b9091929350909150905050600c6000829190505550565b600073ffffffffffffffffffffffffffffffffffffffff82169050919050565b6000612c5b82612c30565b9050919050565b612c6b81612c50565b82525050565b6000819050919050565b612c8481612c71565b82525050565b6000604082019050612c9f6000830185612c62565b612cac6020830184612c7b565b9392505050565b600080fd5b612cc181612c71565b8114612ccc57600080fd5b50565b600081359050612cde81612cb8565b92915050565b600060208284031215612cfa57612cf9612cb3565b5b6000612d0884828501612ccf565b91505092915050565b6000602082019050612d266000830184612c7b565b92915050565b6000602082019050612d416000830184612c62565b92915050565b6000819050919050565b612d5a81612d47565b82525050565b6000602082019050612d756000830184612d51565b92915050565b612d8481612c50565b8114612d8f57600080fd5b50565b600081359050612da181612d7b565b92915050565b600060208284031215612dbd57612dbc612cb3565b5b6000612dcb84828501612d92565b91505092915050565b60008115159050919050565b612de981612dd4565b82525050565b600061010082019050612e05600083018b612c62565b612e12602083018a612c7b565b612e1f6040830189612c7b565b612e2c6060830188612c7b565b612e396080830187612de0565b612e4660a0830186612de0565b612e5360c0830185612c7b565b612e6060e0830184612c7b565b9998505050505050505050565b6000602082019050612e826000830184612de0565b92915050565b600082825260208201905092915050565b7f596f752073686f756c6420626574206d6f726500000000000000000000000000600082015250565b6000612ecf601383612e88565b9150612eda82612e99565b602082019050919050565b60006020820190508181036000830152612efe81612ec2565b9050919050565b7f596f7520646f6e74206861766520656e6f7567682062616c616e636500000000600082015250565b6000612f3b601c83612e88565b9150612f4682612f05565b602082019050919050565b60006020820190508181036000830152612f6a81612f2e565b9050919050565b7f4e487b7100000000000000000000000000000000000000000000000000000000600052601160045260246000fd5b6000612fab82612c71565b9150612fb683612c71565b925082821015612fc957612fc8612f71565b5b828203905092915050565b6000612fdf82612c71565b9150612fea83612c71565b9250817fffffffffffffffffffffffffffffffffffffffffffffffffffffffffffffffff048311821515161561302357613022612f71565b5b828202905092915050565b7f4e487b7100000000000000000000000000000000000000000000000000000000600052601260045260246000fd5b600061306882612c71565b915061307383612c71565b9250826130835761308261302e565b5b828204905092915050565b600061309982612c71565b91506130a483612c71565b9250827fffffffffffffffffffffffffffffffffffffffffffffffffffffffffffffffff038211156130d9576130d8612f71565b5b828201905092915050565b7f596f75722077616c6c657420646f6e2068617665206d6f6e6579000000000000600082015250565b600061311a601a83612e88565b9150613125826130e4565b602082019050919050565b600060208201905081810360008301526131498161310d565b9050919050565b7f596f757220616d6f756e742066756e64656420697320696e76616c69642c207060008201527f6c65617365207370656e64206d6f726520455448000000000000000000000000602082015250565b60006131ac603483612e88565b91506131b782613150565b604082019050919050565b600060208201905081810360008301526131db8161319f565b9050919050565b600069ffffffffffffffffffff82169050919050565b613201816131e2565b811461320c57600080fd5b50565b60008151905061321e816131f8565b92915050565b61322d81612d47565b811461323857600080fd5b50565b60008151905061324a81613224565b92915050565b60008151905061325f81612cb8565b92915050565b600080600080600060a0868803121561328157613280612cb3565b5b600061328f8882890161320f565b95505060206132a08882890161323b565b94505060406132b188828901613250565b93505060606132c288828901613250565b92505060806132d38882890161320f565b9150509295509295909350565b7f596f75206172656e7420746865206f776e6572206f662074686973204c6f747460008201527f6572790000000000000000000000000000000000000000000000000000000000602082015250565b600061333c602383612e88565b9150613347826132e0565b604082019050919050565b6000602082019050818103600083015261336b8161332f565b9050919050565b7f596f752063616e74207769746864726177203000000000000000000000000000600082015250565b60006133a8601383612e88565b91506133b382613372565b602082019050919050565b600060208201905081810360008301526133d78161339b565b9050919050565b7f596f752063616e74207769746864726177206d6f7265206d6f6e65792074686160008201527f6e20796f75206861766500000000000000000000000000000000000000000000602082015250565b600061343a602a83612e88565b9150613445826133de565b604082019050919050565b600060208201905081810360008301526134698161342d565b9050919050565b7f596f75206172656e7420746865206f776e6572206f662074686973204c6f747460008201527f6572792063686f6f73652074686520636f72726563742053656e646572000000602082015250565b60006134cc603d83612e88565b91506134d782613470565b604082019050919050565b600060208201905081810360008301526134fb816134bf565b9050919050565b7f5468652074696d652069736e74206e6f77000000000000000000000000000000600082015250565b6000613538601183612e88565b915061354382613502565b602082019050919050565b600060208201905081810360008301526135678161352b565b9050919050565b7f4e487b7100000000000000000000000000000000000000000000000000000000600052603260045260246000fd5b60006135a882612c71565b91507fffffffffffffffffffffffffffffffffffffffffffffffffffffffffffffffff8214156135db576135da612f71565b5b60018201905091905056fea2646970667358221220a396f02d61477a92065c5f5936ca673f3ac44b70e89c7e907afff9fdb47919fa64736f6c634300080a0033",
  "immutableReferences": {},
  "source": "// SPDX-License-Identifier: MIT\r\n\r\npragma solidity ^0.8.0;\r\n\r\nimport \"@openzeppelin/contracts/utils/math/SafeMath.sol\";\r\nimport \"@chainlink/contracts/src/v0.8/interfaces/AggregatorV3Interface.sol\";\r\n\r\ncontract Lottery {\r\n\r\n    using SafeMath for uint256;\r\n\r\n    constructor() {\r\n        Owner_Contract = msg.sender;\r\n        Contract_Address = address(this);\r\n    }\r\n\r\n    address public Owner_Contract;\r\n    address public Contract_Address;\r\n    uint256 public OWNER_FEE = 2;\r\n    uint256 public Owner_Profits;\r\n\r\n    mapping (address => Competitor) public users;\r\n\r\n    event Deposit (address, uint256) ;\r\n    event withdraw (address, uint256);\r\n    event Sender (address);\r\n\r\n    struct Competitor {\r\n        address funder;\r\n        uint256 amount;\r\n        uint256 wins;\r\n        uint256 amountWins;\r\n        bool betUpPrediction;\r\n        bool betDownPrediction;\r\n        uint256 betAmountUpPrediction;\r\n        uint256 betAmountDownPrediction;\r\n    }\r\n\r\n    address[] public usersAddress;\r\n       \r\n\r\n    modifier OnlyOwner(){\r\n        require(msg.sender == Owner_Contract,\"You arent the owner of this Lottery\");\r\n        _;\r\n    }\r\n\r\n    function changeOwnerFee(uint256 _fee) public OnlyOwner {\r\n        OWNER_FEE = _fee;\r\n    }\r\n\r\n    function getSender() public returns(address){\r\n        emit Sender (msg.sender);\r\n        return msg.sender;\r\n    }\r\n\r\n    receive()external payable{\r\n        emit Deposit(msg.sender,msg.value);\r\n    }\r\n\r\n    function userFunding() public payable{\r\n        require(msg.sender.balance > 0 ether,\"Your wallet don have money\");\r\n        require(msg.value > 0 ether,\"Your amount funded is invalid, please spend more ETH\");\r\n        \r\n        users[msg.sender] = Competitor(\r\n                            msg.sender, users[msg.sender].amount, \r\n                            users[msg.sender].wins, \r\n                            users[msg.sender].amountWins,\r\n                            users[msg.sender].betUpPrediction,\r\n                            users[msg.sender].betDownPrediction,\r\n                            users[msg.sender].betAmountUpPrediction,\r\n                            users[msg.sender].betAmountDownPrediction\r\n                            );\r\n\r\n        users[msg.sender].amount += msg.value ;\r\n        usersAddress.push(msg.sender);\r\n\r\n        emit Deposit(msg.sender,msg.value);\r\n    }\r\n\r\n    function userWithdrawall (uint256 _amountWithdrawall) public {\r\n        require(_amountWithdrawall != 0,\"You cant withdraw 0\");        \r\n        require(_amountWithdrawall <= users[msg.sender].amount && users[msg.sender].amount > 0,\"You cant withdraw more money than you have\");\r\n        \r\n\r\n        users[msg.sender].amount -= _amountWithdrawall;\r\n        payable(msg.sender).transfer(_amountWithdrawall);\r\n\r\n        emit withdraw(msg.sender, _amountWithdrawall);\r\n    }      \r\n\r\n    function ownerWithdrawall (uint256 _amountWithdrawall) public OnlyOwner{\r\n        require(_amountWithdrawall != 0,\"You cant withdraw 0\");   \r\n        require(_amountWithdrawall <= Owner_Profits,\"You cant withdraw more money than you have\"); \r\n\r\n        Owner_Profits -= _amountWithdrawall;\r\n        payable(Owner_Contract).transfer(_amountWithdrawall);\r\n\r\n        emit withdraw(msg.sender, _amountWithdrawall);\r\n    }\r\n\r\n    function userDeposit() public view returns(uint256){\r\n        return users[msg.sender].amount;\r\n    }\r\n\r\n    function userWins() public view returns(uint256){\r\n        return users[msg.sender].wins;\r\n    }\r\n\r\n    function userProfits() public view returns(uint256){\r\n        return users[msg.sender].amountWins;\r\n    }\r\n\r\n}\r\n\r\ncontract Prediction is Lottery {\r\n\r\n    AggregatorV3Interface internal priceFeed;\r\n\r\n    constructor() {\r\n        //BNB Chain TestNet\r\n        //BNB/USD\r\n\r\n        priceFeed = AggregatorV3Interface(\r\n            0x2514895c72f50D8bd4B4F9b1110F0D6bD2c97526\r\n        );\r\n    }\r\n    \r\n    uint256 private Bet_Up;\r\n    uint256 private Bet_Down;    \r\n\r\n    uint256 private Bet_Up_Factor;\r\n    uint256 private Bet_Down_Factor;\r\n\r\n    int private ActualPrice; //Alimentado por chainlink\r\n    int private PriceLocked; // Precio Bloqueado desde chainlink\r\n\r\n    uint256 private timeLocked;\r\n\r\n    event betPriceUp (address, uint256);\r\n    event betPriceDown (address, uint256);\r\n\r\n    function priceUp (uint256 _betAmount) public {\r\n        require(_betAmount > 100 wei, \"You should bet more\");\r\n        require(users[msg.sender].amount > 0 && users[msg.sender].amount >= _betAmount,\"You dont have enough balance\");\r\n\r\n        uint256  _Owner_Profits;\r\n        users[msg.sender].amount -= _betAmount;\r\n        _Owner_Profits = (_betAmount*OWNER_FEE)/100;\r\n        _betAmount -= _Owner_Profits;\r\n        Owner_Profits += _Owner_Profits;\r\n        Bet_Up += _betAmount;\r\n        calculateBetFactor();\r\n\r\n        users[msg.sender].betUpPrediction = true;\r\n        users[msg.sender].betAmountUpPrediction += _betAmount;\r\n\r\n        emit betPriceUp (msg.sender, _betAmount);\r\n    }\r\n\r\n    function priceDown (uint256 _betAmount) public {\r\n        require(_betAmount > 100 wei, \"You should bet more\");\r\n        require(users[msg.sender].amount > 0 && users[msg.sender].amount >= _betAmount,\"You dont have enough balance\");\r\n\r\n        uint256  _Owner_Profits;\r\n        users[msg.sender].amount -= _betAmount;\r\n        _Owner_Profits = (_betAmount*OWNER_FEE)/100;\r\n        _betAmount -= _Owner_Profits;\r\n        Owner_Profits += _Owner_Profits;\r\n        Bet_Down += _betAmount;\r\n        calculateBetFactor();\r\n\r\n        users[msg.sender].betDownPrediction = true;\r\n        users[msg.sender].betAmountDownPrediction += _betAmount;\r\n\r\n        emit betPriceDown (msg.sender, _betAmount);\r\n    }    \r\n\r\n    function calculateBetFactor() private {\r\n\r\n        if(Bet_Up != 0){\r\n            Bet_Up_Factor = (betTotalPrediction() * 1 ether )/ Bet_Up ;\r\n        }\r\n        if(Bet_Down != 0){\r\n            Bet_Down_Factor = (betTotalPrediction() * 1 ether)/ Bet_Down;\r\n        }     \r\n\r\n    }\r\n\r\n    function betTotalPrediction() public view returns(uint256){\r\n        return (Bet_Up + Bet_Down);\r\n    }\r\n\r\n    function priceLocked(/*int _price*/) private {// Precio Bloqueado desde chainlink\r\n        timeLocked = block.timestamp;\r\n        //PriceLocked = _price;\r\n        (,PriceLocked,,,) =priceFeed.latestRoundData(); \r\n    }\r\n\r\n    function actualPrice(/*int _price*/) private {// Alimentado por chainlink\r\n\r\n        //ActualPrice =_price;        \r\n        (,ActualPrice,,,) =priceFeed.latestRoundData(); \r\n    }\r\n\r\n    function priceLoked() public view returns(int){\r\n        return PriceLocked;\r\n    }\r\n\r\n    function timeLoked () public view returns(uint256){\r\n        return timeLocked;\r\n    }\r\n    function pricePair() public view returns (int){\r\n        int price;\r\n        (,price,,,) =priceFeed.latestRoundData();\r\n        return price;\r\n    }\r\n\r\n    \r\n\r\n    function betUpFactor() public view returns(uint256){\r\n        return Bet_Up_Factor;\r\n    }\r\n\r\n    function betDownFactor() public view returns(uint256){\r\n        return Bet_Down_Factor;\r\n    }\r\n\r\n    function RewardsCalculated() public { //Solo puede ser ejecutada en el tiempo correcto - revisar esto     \r\n        require(getSender() == Owner_Contract,\"You arent the owner of this Lottery choose the correct Sender\");\r\n        require(block.timestamp >= (timeLocked + 5 minutes),\"The time isnt now\");\r\n        actualPrice();\r\n\r\n        if(checkBalance()){\r\n            if(ActualPrice > PriceLocked){ \r\n                for(uint256 i=0; i <usersAddress.length; i++){\r\n                    if(users[usersAddress[i]].betUpPrediction && users[usersAddress[i]].betAmountUpPrediction > 0 && users[usersAddress[i]].betAmountUpPrediction <= betTotalPrediction()){\r\n                        users[usersAddress[i]].amount += (users[usersAddress[i]].betAmountUpPrediction * Bet_Up_Factor) / 1 ether;\r\n                        users[usersAddress[i]].betAmountUpPrediction = 0;\r\n                        users[usersAddress[i]].betUpPrediction = false;                        \r\n                    }\r\n                    if(users[usersAddress[i]].betDownPrediction){\r\n                        users[usersAddress[i]].betAmountDownPrediction = 0;\r\n                        users[usersAddress[i]].betDownPrediction = false;                        \r\n                    }\r\n\r\n                }\r\n            }\r\n            if(ActualPrice < PriceLocked){ \r\n                for(uint256 i=0; i <usersAddress.length; i++){\r\n                    if(users[usersAddress[i]].betDownPrediction && users[usersAddress[i]].betAmountDownPrediction > 0 && users[usersAddress[i]].betAmountDownPrediction <= betTotalPrediction()){\r\n                        users[usersAddress[i]].amount += (users[usersAddress[i]].betAmountDownPrediction * Bet_Down_Factor) / 1 ether;\r\n                        users[usersAddress[i]].betAmountDownPrediction = 0;\r\n                        users[usersAddress[i]].betDownPrediction = false;                        \r\n                    }\r\n                    if(users[usersAddress[i]].betUpPrediction){\r\n                        users[usersAddress[i]].betAmountUpPrediction = 0;\r\n                        users[usersAddress[i]].betUpPrediction = false;                       \r\n                    }\r\n\r\n                }\r\n                \r\n            }\r\n            if(actualPrice == priceLocked){          \r\n                \r\n                for(uint256 i=0; i <usersAddress.length; i++){\r\n                    users[usersAddress[i]].amount += users[usersAddress[i]].betAmountUpPrediction  ;\r\n                    users[usersAddress[i]].betAmountUpPrediction = 0;\r\n                    users[usersAddress[i]].betUpPrediction = false;\r\n\r\n                    users[usersAddress[i]].amount += users[usersAddress[i]].betAmountDownPrediction ;\r\n                    users[usersAddress[i]].betAmountDownPrediction = 0;\r\n                    users[usersAddress[i]].betDownPrediction = false;\r\n                }\r\n                \r\n            }    \r\n            Bet_Up=0;\r\n            Bet_Up_Factor=0;\r\n            Bet_Down=0;\r\n            Bet_Down_Factor=0;\r\n\r\n            priceLocked();\r\n        }    \r\n\r\n    }\r\n\r\n    function checkBalance() public view returns(bool){\r\n            uint256 _checkedBalance;\r\n            bool _checkedBalanceFlag = false;\r\n\r\n            for(uint256 i=0; i <usersAddress.length; i++){\r\n                _checkedBalance += users[usersAddress[i]].betAmountUpPrediction + users[usersAddress[i]].betAmountDownPrediction;\r\n            }\r\n            \r\n            if(_checkedBalance == betTotalPrediction()){_checkedBalanceFlag = true;}\r\n            else{_checkedBalanceFlag = false;}\r\n\r\n            return _checkedBalanceFlag;\r\n        }\r\n\r\n\r\n\r\n}",
  "sourcePath": "C:\\Users\\User\\Documents\\LotteryV2\\PrimerPrograma\\lottery-dapp\\src\\contracts\\Lottery.sol",
  "compiler": {
    "name": "solc",
    "version": "0.8.10+commit.fc410830.Emscripten.clang"
  },
  "schemaVersion": "3.4.11",
  "updatedAt": "2022-12-26T01:20:54.103Z",
  "networkType": "ethereum",
  "devdoc": {
    "kind": "dev",
    "methods": {},
    "version": 1
  },
  "userdoc": {
    "kind": "user",
    "methods": {},
    "version": 1
  }
}