{
  "contractName": "Prediction",
  "abi": [
    {
      "inputs": [],
      "stateMutability": "nonpayable",
      "type": "constructor"
    },
    {
      "anonymous": false,
      "inputs": [
        {
          "indexed": false,
          "internalType": "address",
          "name": "",
          "type": "address"
        },
        {
          "indexed": false,
          "internalType": "uint256",
          "name": "",
          "type": "uint256"
        }
      ],
      "name": "Deposit",
      "type": "event"
    },
    {
      "anonymous": false,
      "inputs": [
        {
          "indexed": false,
          "internalType": "address",
          "name": "",
          "type": "address"
        },
        {
          "indexed": false,
          "internalType": "uint256",
          "name": "",
          "type": "uint256"
        }
      ],
      "name": "betPriceDown",
      "type": "event"
    },
    {
      "anonymous": false,
      "inputs": [
        {
          "indexed": false,
          "internalType": "address",
          "name": "",
          "type": "address"
        },
        {
          "indexed": false,
          "internalType": "uint256",
          "name": "",
          "type": "uint256"
        }
      ],
      "name": "betPriceUp",
      "type": "event"
    },
    {
      "anonymous": false,
      "inputs": [
        {
          "indexed": false,
          "internalType": "address",
          "name": "",
          "type": "address"
        },
        {
          "indexed": false,
          "internalType": "uint256",
          "name": "",
          "type": "uint256"
        }
      ],
      "name": "withdraw",
      "type": "event"
    },
    {
      "inputs": [],
      "name": "Contract_Address",
      "outputs": [
        {
          "internalType": "address",
          "name": "",
          "type": "address"
        }
      ],
      "stateMutability": "view",
      "type": "function"
    },
    {
      "inputs": [],
      "name": "OWNER_FEE",
      "outputs": [
        {
          "internalType": "uint256",
          "name": "",
          "type": "uint256"
        }
      ],
      "stateMutability": "view",
      "type": "function"
    },
    {
      "inputs": [],
      "name": "Owner_Contract",
      "outputs": [
        {
          "internalType": "address",
          "name": "",
          "type": "address"
        }
      ],
      "stateMutability": "view",
      "type": "function"
    },
    {
      "inputs": [],
      "name": "Owner_Profits",
      "outputs": [
        {
          "internalType": "uint256",
          "name": "",
          "type": "uint256"
        }
      ],
      "stateMutability": "view",
      "type": "function"
    },
    {
      "inputs": [
        {
          "internalType": "uint256",
          "name": "_fee",
          "type": "uint256"
        }
      ],
      "name": "changeOwnerFee",
      "outputs": [],
      "stateMutability": "nonpayable",
      "type": "function"
    },
    {
      "inputs": [
        {
          "internalType": "uint256",
          "name": "_amountWithdrawall",
          "type": "uint256"
        }
      ],
      "name": "ownerWithdrawall",
      "outputs": [],
      "stateMutability": "nonpayable",
      "type": "function"
    },
    {
      "inputs": [],
      "name": "userDeposit",
      "outputs": [
        {
          "internalType": "uint256",
          "name": "",
          "type": "uint256"
        }
      ],
      "stateMutability": "view",
      "type": "function"
    },
    {
      "inputs": [],
      "name": "userFunding",
      "outputs": [],
      "stateMutability": "payable",
      "type": "function"
    },
    {
      "inputs": [],
      "name": "userProfits",
      "outputs": [
        {
          "internalType": "uint256",
          "name": "",
          "type": "uint256"
        }
      ],
      "stateMutability": "view",
      "type": "function"
    },
    {
      "inputs": [],
      "name": "userWins",
      "outputs": [
        {
          "internalType": "uint256",
          "name": "",
          "type": "uint256"
        }
      ],
      "stateMutability": "view",
      "type": "function"
    },
    {
      "inputs": [
        {
          "internalType": "uint256",
          "name": "_amountWithdrawall",
          "type": "uint256"
        }
      ],
      "name": "userWithdrawall",
      "outputs": [],
      "stateMutability": "nonpayable",
      "type": "function"
    },
    {
      "inputs": [
        {
          "internalType": "address",
          "name": "",
          "type": "address"
        }
      ],
      "name": "users",
      "outputs": [
        {
          "internalType": "address",
          "name": "funder",
          "type": "address"
        },
        {
          "internalType": "uint256",
          "name": "amount",
          "type": "uint256"
        },
        {
          "internalType": "uint256",
          "name": "wins",
          "type": "uint256"
        },
        {
          "internalType": "uint256",
          "name": "amountWins",
          "type": "uint256"
        },
        {
          "internalType": "bool",
          "name": "betUpPrediction",
          "type": "bool"
        },
        {
          "internalType": "bool",
          "name": "betDownPrediction",
          "type": "bool"
        },
        {
          "internalType": "uint256",
          "name": "betAmountUpPrediction",
          "type": "uint256"
        },
        {
          "internalType": "uint256",
          "name": "betAmountDownPrediction",
          "type": "uint256"
        }
      ],
      "stateMutability": "view",
      "type": "function"
    },
    {
      "inputs": [
        {
          "internalType": "uint256",
          "name": "",
          "type": "uint256"
        }
      ],
      "name": "usersAddress",
      "outputs": [
        {
          "internalType": "address",
          "name": "",
          "type": "address"
        }
      ],
      "stateMutability": "view",
      "type": "function"
    },
    {
      "stateMutability": "payable",
      "type": "receive"
    },
    {
      "inputs": [
        {
          "internalType": "uint256",
          "name": "_betAmount",
          "type": "uint256"
        }
      ],
      "name": "priceUp",
      "outputs": [],
      "stateMutability": "nonpayable",
      "type": "function"
    },
    {
      "inputs": [
        {
          "internalType": "uint256",
          "name": "_betAmount",
          "type": "uint256"
        }
      ],
      "name": "priceDown",
      "outputs": [],
      "stateMutability": "nonpayable",
      "type": "function"
    },
    {
      "inputs": [],
      "name": "betTotalPrediction",
      "outputs": [
        {
          "internalType": "uint256",
          "name": "",
          "type": "uint256"
        }
      ],
      "stateMutability": "view",
      "type": "function"
    },
    {
      "inputs": [],
      "name": "timeLoked",
      "outputs": [
        {
          "internalType": "uint256",
          "name": "",
          "type": "uint256"
        }
      ],
      "stateMutability": "view",
      "type": "function"
    },
    {
      "inputs": [],
      "name": "pricePair",
      "outputs": [
        {
          "internalType": "int256",
          "name": "",
          "type": "int256"
        }
      ],
      "stateMutability": "view",
      "type": "function"
    },
    {
      "inputs": [],
      "name": "betUpFactor",
      "outputs": [
        {
          "internalType": "uint256",
          "name": "",
          "type": "uint256"
        }
      ],
      "stateMutability": "view",
      "type": "function"
    },
    {
      "inputs": [],
      "name": "betDownFactor",
      "outputs": [
        {
          "internalType": "uint256",
          "name": "",
          "type": "uint256"
        }
      ],
      "stateMutability": "view",
      "type": "function"
    },
    {
      "inputs": [],
      "name": "RewardsCalculated",
      "outputs": [],
      "stateMutability": "nonpayable",
      "type": "function"
    },
    {
      "inputs": [],
      "name": "checkBalance",
      "outputs": [
        {
          "internalType": "bool",
          "name": "",
          "type": "bool"
        }
      ],
      "stateMutability": "view",
      "type": "function"
    }
  ],
  "bytecode": "0x60806040526002805534801561001457600080fd5b50336000806101000a81548173ffffffffffffffffffffffffffffffffffffffff021916908373ffffffffffffffffffffffffffffffffffffffff16021790555030600160006101000a81548173ffffffffffffffffffffffffffffffffffffffff021916908373ffffffffffffffffffffffffffffffffffffffff160217905550732514895c72f50d8bd4b4f9b1110f0d6bd2c97526600660006101000a81548173ffffffffffffffffffffffffffffffffffffffff021916908373ffffffffffffffffffffffffffffffffffffffff1602179055506134d4806100fa6000396000f3fe6080604052600436106101395760003560e01c8063880df190116100ab578063a87430ba1161006f578063a87430ba14610405578063b065b79a14610449578063c71daccb14610472578063cd0a36921461049d578063cf147c05146104c8578063e16f66d4146104f357610179565b8063880df190146103465780639b7d17c914610371578063a1ea8cd51461039a578063a2c86962146103b1578063a5d04808146103dc57610179565b80635dab0fe3116100fd5780635dab0fe314610265578063731d4480146102905780637b12df39146102bb5780637e84a7d8146102e657806381648ba0146102f0578063863a66291461031b57610179565b80630b28a86f1461017e5780631ebb7036146101a75780632c91324c146101d2578063481461131461020f57806357e113e01461023a57610179565b36610179577fe1fffcc4923d04b559f4d29a8bfc6cda04eb5b0d3c460751c2402c5c5cc9109c333460405161016f929190612bd4565b60405180910390a1005b600080fd5b34801561018a57600080fd5b506101a560048036038101906101a09190612c2e565b61051c565b005b3480156101b357600080fd5b506101bc6107e2565b6040516101c99190612c5b565b60405180910390f35b3480156101de57600080fd5b506101f960048036038101906101f49190612c2e565b6107ec565b6040516102069190612c76565b60405180910390f35b34801561021b57600080fd5b5061022461082b565b6040516102319190612c5b565b60405180910390f35b34801561024657600080fd5b5061024f610875565b60405161025c9190612c5b565b60405180910390f35b34801561027157600080fd5b5061027a61088c565b6040516102879190612c5b565b60405180910390f35b34801561029c57600080fd5b506102a5610892565b6040516102b29190612c5b565b60405180910390f35b3480156102c757600080fd5b506102d061089c565b6040516102dd9190612c5b565b60405180910390f35b6102ee6108e6565b005b3480156102fc57600080fd5b50610305610db1565b6040516103129190612c5b565b60405180910390f35b34801561032757600080fd5b50610330610dbb565b60405161033d9190612caa565b60405180910390f35b34801561035257600080fd5b5061035b610e65565b6040516103689190612c5b565b60405180910390f35b34801561037d57600080fd5b5061039860048036038101906103939190612c2e565b610eaf565b005b3480156103a657600080fd5b506103af611084565b005b3480156103bd57600080fd5b506103c6612224565b6040516103d39190612c5b565b60405180910390f35b3480156103e857600080fd5b5061040360048036038101906103fe9190612c2e565b61222a565b005b34801561041157600080fd5b5061042c60048036038101906104279190612cf1565b6124f0565b604051610440989796959493929190612d39565b60405180910390f35b34801561045557600080fd5b50610470600480360381019061046b9190612c2e565b612572565b005b34801561047e57600080fd5b50610487612765565b6040516104949190612db7565b60405180910390f35b3480156104a957600080fd5b506104b26128cb565b6040516104bf9190612c76565b60405180910390f35b3480156104d457600080fd5b506104dd6128f1565b6040516104ea9190612c76565b60405180910390f35b3480156104ff57600080fd5b5061051a60048036038101906105159190612c2e565b612915565b005b6064811161055f576040517f08c379a000000000000000000000000000000000000000000000000000000000815260040161055690612e2f565b60405180910390fd5b6000600460003373ffffffffffffffffffffffffffffffffffffffff1673ffffffffffffffffffffffffffffffffffffffff168152602001908152602001600020600101541180156105f3575080600460003373ffffffffffffffffffffffffffffffffffffffff1673ffffffffffffffffffffffffffffffffffffffff1681526020019081526020016000206001015410155b610632576040517f08c379a000000000000000000000000000000000000000000000000000000000815260040161062990612e9b565b60405180910390fd5b600081600460003373ffffffffffffffffffffffffffffffffffffffff1673ffffffffffffffffffffffffffffffffffffffff16815260200190815260200160002060010160008282546106869190612eea565b9250508190555060646002548361069d9190612f1e565b6106a79190612fa7565b905080826106b59190612eea565b915080600360008282546106c99190612fd8565b9250508190555081600860008282546106e29190612fd8565b925050819055506106f16129af565b6001600460003373ffffffffffffffffffffffffffffffffffffffff1673ffffffffffffffffffffffffffffffffffffffff16815260200190815260200160002060040160016101000a81548160ff02191690831515021790555081600460003373ffffffffffffffffffffffffffffffffffffffff1673ffffffffffffffffffffffffffffffffffffffff168152602001908152602001600020600601600082825461079e9190612fd8565b925050819055507ff711f01ae5de38645cc7107885d9a6b83d2c8b8f45e43564ae4cdc174db2976f33836040516107d6929190612bd4565b60405180910390a15050565b6000600d54905090565b600581815481106107fc57600080fd5b906000526020600020016000915054906101000a900473ffffffffffffffffffffffffffffffffffffffff1681565b6000600460003373ffffffffffffffffffffffffffffffffffffffff1673ffffffffffffffffffffffffffffffffffffffff16815260200190815260200160002060010154905090565b60006008546007546108879190612fd8565b905090565b60025481565b6000600954905090565b6000600460003373ffffffffffffffffffffffffffffffffffffffff1673ffffffffffffffffffffffffffffffffffffffff16815260200190815260200160002060030154905090565b60003373ffffffffffffffffffffffffffffffffffffffff163111610940576040517f08c379a00000000000000000000000000000000000000000000000000000000081526004016109379061307a565b60405180910390fd5b60003411610983576040517f08c379a000000000000000000000000000000000000000000000000000000000815260040161097a9061310c565b60405180910390fd5b6040518061010001604052803373ffffffffffffffffffffffffffffffffffffffff168152602001600460003373ffffffffffffffffffffffffffffffffffffffff1673ffffffffffffffffffffffffffffffffffffffff168152602001908152602001600020600101548152602001600460003373ffffffffffffffffffffffffffffffffffffffff1673ffffffffffffffffffffffffffffffffffffffff168152602001908152602001600020600201548152602001600460003373ffffffffffffffffffffffffffffffffffffffff1673ffffffffffffffffffffffffffffffffffffffff168152602001908152602001600020600301548152602001600460003373ffffffffffffffffffffffffffffffffffffffff1673ffffffffffffffffffffffffffffffffffffffff16815260200190815260200160002060040160009054906101000a900460ff1615158152602001600460003373ffffffffffffffffffffffffffffffffffffffff1673ffffffffffffffffffffffffffffffffffffffff16815260200190815260200160002060040160019054906101000a900460ff1615158152602001600460003373ffffffffffffffffffffffffffffffffffffffff1673ffffffffffffffffffffffffffffffffffffffff168152602001908152602001600020600501548152602001600460003373ffffffffffffffffffffffffffffffffffffffff1673ffffffffffffffffffffffffffffffffffffffff16815260200190815260200160002060060154815250600460003373ffffffffffffffffffffffffffffffffffffffff1673ffffffffffffffffffffffffffffffffffffffff16815260200190815260200160002060008201518160000160006101000a81548173ffffffffffffffffffffffffffffffffffffffff021916908373ffffffffffffffffffffffffffffffffffffffff16021790555060208201518160010155604082015181600201556060820151816003015560808201518160040160006101000a81548160ff02191690831515021790555060a08201518160040160016101000a81548160ff02191690831515021790555060c0820151816005015560e0820151816006015590505034600460003373ffffffffffffffffffffffffffffffffffffffff1673ffffffffffffffffffffffffffffffffffffffff1681526020019081526020016000206001016000828254610d0c9190612fd8565b925050819055506005339080600181540180825580915050600190039060005260206000200160009091909190916101000a81548173ffffffffffffffffffffffffffffffffffffffff021916908373ffffffffffffffffffffffffffffffffffffffff1602179055507fe1fffcc4923d04b559f4d29a8bfc6cda04eb5b0d3c460751c2402c5c5cc9109c3334604051610da7929190612bd4565b60405180910390a1565b6000600a54905090565b600080600660009054906101000a900473ffffffffffffffffffffffffffffffffffffffff1673ffffffffffffffffffffffffffffffffffffffff1663feaf968c6040518163ffffffff1660e01b815260040160a060405180830381865afa158015610e2b573d6000803e3d6000fd5b505050506040513d601f19601f82011682018060405250810190610e4f91906131af565b9091929350909150905050809150508091505090565b6000600460003373ffffffffffffffffffffffffffffffffffffffff1673ffffffffffffffffffffffffffffffffffffffff16815260200190815260200160002060020154905090565b600160009054906101000a900473ffffffffffffffffffffffffffffffffffffffff1673ffffffffffffffffffffffffffffffffffffffff163373ffffffffffffffffffffffffffffffffffffffff1614610f3f576040517f08c379a0000000000000000000000000000000000000000000000000000000008152600401610f369061329c565b60405180910390fd5b6000811415610f83576040517f08c379a0000000000000000000000000000000000000000000000000000000008152600401610f7a90613308565b60405180910390fd5b600354811115610fc8576040517f08c379a0000000000000000000000000000000000000000000000000000000008152600401610fbf9061339a565b60405180910390fd5b8060036000828254610fda9190612eea565b9250508190555060008054906101000a900473ffffffffffffffffffffffffffffffffffffffff1673ffffffffffffffffffffffffffffffffffffffff166108fc829081150290604051600060405180830381858888f19350505050158015611047573d6000803e3d6000fd5b507ff3fef3a3f44f9c277339b67d54f015748bd8d6b77a985b0ab6e71126b018c34a3382604051611079929190612bd4565b60405180910390a150565b600160009054906101000a900473ffffffffffffffffffffffffffffffffffffffff1673ffffffffffffffffffffffffffffffffffffffff163373ffffffffffffffffffffffffffffffffffffffff1614611114576040517f08c379a000000000000000000000000000000000000000000000000000000000815260040161110b9061329c565b60405180910390fd5b61012c600d546111249190612fd8565b421015611166576040517f08c379a000000000000000000000000000000000000000000000000000000000815260040161115d90613406565b60405180910390fd5b61116e612a23565b611176612765565b1561222257600c54600b5413156117685760005b6005805490508110156117665760046000600583815481106111af576111ae613426565b5b9060005260206000200160009054906101000a900473ffffffffffffffffffffffffffffffffffffffff1673ffffffffffffffffffffffffffffffffffffffff1673ffffffffffffffffffffffffffffffffffffffff16815260200190815260200160002060040160009054906101000a900460ff1680156112b157506000600460006005848154811061124657611245613426565b5b9060005260206000200160009054906101000a900473ffffffffffffffffffffffffffffffffffffffff1673ffffffffffffffffffffffffffffffffffffffff1673ffffffffffffffffffffffffffffffffffffffff16815260200190815260200160002060050154115b801561134457506112c0610875565b60046000600584815481106112d8576112d7613426565b5b9060005260206000200160009054906101000a900473ffffffffffffffffffffffffffffffffffffffff1673ffffffffffffffffffffffffffffffffffffffff1673ffffffffffffffffffffffffffffffffffffffff1681526020019081526020016000206005015411155b156115a057670de0b6b3a7640000600954600460006005858154811061136d5761136c613426565b5b9060005260206000200160009054906101000a900473ffffffffffffffffffffffffffffffffffffffff1673ffffffffffffffffffffffffffffffffffffffff1673ffffffffffffffffffffffffffffffffffffffff168152602001908152602001600020600501546113e09190612f1e565b6113ea9190612fa7565b600460006005848154811061140257611401613426565b5b9060005260206000200160009054906101000a900473ffffffffffffffffffffffffffffffffffffffff1673ffffffffffffffffffffffffffffffffffffffff1673ffffffffffffffffffffffffffffffffffffffff16815260200190815260200160002060010160008282546114799190612fd8565b925050819055506000600460006005848154811061149a57611499613426565b5b9060005260206000200160009054906101000a900473ffffffffffffffffffffffffffffffffffffffff1673ffffffffffffffffffffffffffffffffffffffff1673ffffffffffffffffffffffffffffffffffffffff16815260200190815260200160002060050181905550600060046000600584815481106115205761151f613426565b5b9060005260206000200160009054906101000a900473ffffffffffffffffffffffffffffffffffffffff1673ffffffffffffffffffffffffffffffffffffffff1673ffffffffffffffffffffffffffffffffffffffff16815260200190815260200160002060040160006101000a81548160ff0219169083151502179055505b60046000600583815481106115b8576115b7613426565b5b9060005260206000200160009054906101000a900473ffffffffffffffffffffffffffffffffffffffff1673ffffffffffffffffffffffffffffffffffffffff1673ffffffffffffffffffffffffffffffffffffffff16815260200190815260200160002060040160019054906101000a900460ff1615611753576000600460006005848154811061164d5761164c613426565b5b9060005260206000200160009054906101000a900473ffffffffffffffffffffffffffffffffffffffff1673ffffffffffffffffffffffffffffffffffffffff1673ffffffffffffffffffffffffffffffffffffffff16815260200190815260200160002060060181905550600060046000600584815481106116d3576116d2613426565b5b9060005260206000200160009054906101000a900473ffffffffffffffffffffffffffffffffffffffff1673ffffffffffffffffffffffffffffffffffffffff1673ffffffffffffffffffffffffffffffffffffffff16815260200190815260200160002060040160016101000a81548160ff0219169083151502179055505b808061175e90613455565b91505061118a565b505b600c54600b541215611d555760005b600580549050811015611d5357600460006005838154811061179c5761179b613426565b5b9060005260206000200160009054906101000a900473ffffffffffffffffffffffffffffffffffffffff1673ffffffffffffffffffffffffffffffffffffffff1673ffffffffffffffffffffffffffffffffffffffff16815260200190815260200160002060040160019054906101000a900460ff16801561189e57506000600460006005848154811061183357611832613426565b5b9060005260206000200160009054906101000a900473ffffffffffffffffffffffffffffffffffffffff1673ffffffffffffffffffffffffffffffffffffffff1673ffffffffffffffffffffffffffffffffffffffff16815260200190815260200160002060060154115b801561193157506118ad610875565b60046000600584815481106118c5576118c4613426565b5b9060005260206000200160009054906101000a900473ffffffffffffffffffffffffffffffffffffffff1673ffffffffffffffffffffffffffffffffffffffff1673ffffffffffffffffffffffffffffffffffffffff1681526020019081526020016000206006015411155b15611b8d57670de0b6b3a7640000600a54600460006005858154811061195a57611959613426565b5b9060005260206000200160009054906101000a900473ffffffffffffffffffffffffffffffffffffffff1673ffffffffffffffffffffffffffffffffffffffff1673ffffffffffffffffffffffffffffffffffffffff168152602001908152602001600020600601546119cd9190612f1e565b6119d79190612fa7565b60046000600584815481106119ef576119ee613426565b5b9060005260206000200160009054906101000a900473ffffffffffffffffffffffffffffffffffffffff1673ffffffffffffffffffffffffffffffffffffffff1673ffffffffffffffffffffffffffffffffffffffff1681526020019081526020016000206001016000828254611a669190612fd8565b9250508190555060006004600060058481548110611a8757611a86613426565b5b9060005260206000200160009054906101000a900473ffffffffffffffffffffffffffffffffffffffff1673ffffffffffffffffffffffffffffffffffffffff1673ffffffffffffffffffffffffffffffffffffffff1681526020019081526020016000206006018190555060006004600060058481548110611b0d57611b0c613426565b5b9060005260206000200160009054906101000a900473ffffffffffffffffffffffffffffffffffffffff1673ffffffffffffffffffffffffffffffffffffffff1673ffffffffffffffffffffffffffffffffffffffff16815260200190815260200160002060040160016101000a81548160ff0219169083151502179055505b6004600060058381548110611ba557611ba4613426565b5b9060005260206000200160009054906101000a900473ffffffffffffffffffffffffffffffffffffffff1673ffffffffffffffffffffffffffffffffffffffff1673ffffffffffffffffffffffffffffffffffffffff16815260200190815260200160002060040160009054906101000a900460ff1615611d405760006004600060058481548110611c3a57611c39613426565b5b9060005260206000200160009054906101000a900473ffffffffffffffffffffffffffffffffffffffff1673ffffffffffffffffffffffffffffffffffffffff1673ffffffffffffffffffffffffffffffffffffffff1681526020019081526020016000206005018190555060006004600060058481548110611cc057611cbf613426565b5b9060005260206000200160009054906101000a900473ffffffffffffffffffffffffffffffffffffffff1673ffffffffffffffffffffffffffffffffffffffff1673ffffffffffffffffffffffffffffffffffffffff16815260200190815260200160002060040160006101000a81548160ff0219169083151502179055505b8080611d4b90613455565b915050611777565b505b612acb612a239063ffffffff1614156121f95760005b6005805490508110156121f7576004600060058381548110611d9057611d8f613426565b5b9060005260206000200160009054906101000a900473ffffffffffffffffffffffffffffffffffffffff1673ffffffffffffffffffffffffffffffffffffffff1673ffffffffffffffffffffffffffffffffffffffff168152602001908152602001600020600501546004600060058481548110611e1157611e10613426565b5b9060005260206000200160009054906101000a900473ffffffffffffffffffffffffffffffffffffffff1673ffffffffffffffffffffffffffffffffffffffff1673ffffffffffffffffffffffffffffffffffffffff1681526020019081526020016000206001016000828254611e889190612fd8565b9250508190555060006004600060058481548110611ea957611ea8613426565b5b9060005260206000200160009054906101000a900473ffffffffffffffffffffffffffffffffffffffff1673ffffffffffffffffffffffffffffffffffffffff1673ffffffffffffffffffffffffffffffffffffffff1681526020019081526020016000206005018190555060006004600060058481548110611f2f57611f2e613426565b5b9060005260206000200160009054906101000a900473ffffffffffffffffffffffffffffffffffffffff1673ffffffffffffffffffffffffffffffffffffffff1673ffffffffffffffffffffffffffffffffffffffff16815260200190815260200160002060040160006101000a81548160ff0219169083151502179055506004600060058381548110611fc657611fc5613426565b5b9060005260206000200160009054906101000a900473ffffffffffffffffffffffffffffffffffffffff1673ffffffffffffffffffffffffffffffffffffffff1673ffffffffffffffffffffffffffffffffffffffff16815260200190815260200160002060060154600460006005848154811061204757612046613426565b5b9060005260206000200160009054906101000a900473ffffffffffffffffffffffffffffffffffffffff1673ffffffffffffffffffffffffffffffffffffffff1673ffffffffffffffffffffffffffffffffffffffff16815260200190815260200160002060010160008282546120be9190612fd8565b92505081905550600060046000600584815481106120df576120de613426565b5b9060005260206000200160009054906101000a900473ffffffffffffffffffffffffffffffffffffffff1673ffffffffffffffffffffffffffffffffffffffff1673ffffffffffffffffffffffffffffffffffffffff168152602001908152602001600020600601819055506000600460006005848154811061216557612164613426565b5b9060005260206000200160009054906101000a900473ffffffffffffffffffffffffffffffffffffffff1673ffffffffffffffffffffffffffffffffffffffff1673ffffffffffffffffffffffffffffffffffffffff16815260200190815260200160002060040160016101000a81548160ff02191690831515021790555080806121ef90613455565b915050611d6b565b505b6000600781905550600060098190555060006008819055506000600a81905550612221612acb565b5b565b60035481565b6064811161226d576040517f08c379a000000000000000000000000000000000000000000000000000000000815260040161226490612e2f565b60405180910390fd5b6000600460003373ffffffffffffffffffffffffffffffffffffffff1673ffffffffffffffffffffffffffffffffffffffff16815260200190815260200160002060010154118015612301575080600460003373ffffffffffffffffffffffffffffffffffffffff1673ffffffffffffffffffffffffffffffffffffffff1681526020019081526020016000206001015410155b612340576040517f08c379a000000000000000000000000000000000000000000000000000000000815260040161233790612e9b565b60405180910390fd5b600081600460003373ffffffffffffffffffffffffffffffffffffffff1673ffffffffffffffffffffffffffffffffffffffff16815260200190815260200160002060010160008282546123949190612eea565b925050819055506064600254836123ab9190612f1e565b6123b59190612fa7565b905080826123c39190612eea565b915080600360008282546123d79190612fd8565b9250508190555081600760008282546123f09190612fd8565b925050819055506123ff6129af565b6001600460003373ffffffffffffffffffffffffffffffffffffffff1673ffffffffffffffffffffffffffffffffffffffff16815260200190815260200160002060040160006101000a81548160ff02191690831515021790555081600460003373ffffffffffffffffffffffffffffffffffffffff1673ffffffffffffffffffffffffffffffffffffffff16815260200190815260200160002060050160008282546124ac9190612fd8565b925050819055507f671f01305b599ef1b0852f7a403578f70febad050931e5b911b400f98c0d925933836040516124e4929190612bd4565b60405180910390a15050565b60046020528060005260406000206000915090508060000160009054906101000a900473ffffffffffffffffffffffffffffffffffffffff16908060010154908060020154908060030154908060040160009054906101000a900460ff16908060040160019054906101000a900460ff16908060050154908060060154905088565b60008114156125b6576040517f08c379a00000000000000000000000000000000000000000000000000000000081526004016125ad90613308565b60405180910390fd5b600460003373ffffffffffffffffffffffffffffffffffffffff1673ffffffffffffffffffffffffffffffffffffffff16815260200190815260200160002060010154811115801561264a57506000600460003373ffffffffffffffffffffffffffffffffffffffff1673ffffffffffffffffffffffffffffffffffffffff16815260200190815260200160002060010154115b612689576040517f08c379a00000000000000000000000000000000000000000000000000000000081526004016126809061339a565b60405180910390fd5b80600460003373ffffffffffffffffffffffffffffffffffffffff1673ffffffffffffffffffffffffffffffffffffffff16815260200190815260200160002060010160008282546126db9190612eea565b925050819055503373ffffffffffffffffffffffffffffffffffffffff166108fc829081150290604051600060405180830381858888f19350505050158015612728573d6000803e3d6000fd5b507ff3fef3a3f44f9c277339b67d54f015748bd8d6b77a985b0ab6e71126b018c34a338260405161275a929190612bd4565b60405180910390a150565b6000806000805b6005805490508110156128a557600460006005838154811061279157612790613426565b5b9060005260206000200160009054906101000a900473ffffffffffffffffffffffffffffffffffffffff1673ffffffffffffffffffffffffffffffffffffffff1673ffffffffffffffffffffffffffffffffffffffff16815260200190815260200160002060060154600460006005848154811061281257612811613426565b5b9060005260206000200160009054906101000a900473ffffffffffffffffffffffffffffffffffffffff1673ffffffffffffffffffffffffffffffffffffffff1673ffffffffffffffffffffffffffffffffffffffff168152602001908152602001600020600501546128859190612fd8565b836128909190612fd8565b9250808061289d90613455565b91505061276c565b506128ae610875565b8214156128be57600190506128c3565b600090505b809250505090565b600160009054906101000a900473ffffffffffffffffffffffffffffffffffffffff1681565b60008054906101000a900473ffffffffffffffffffffffffffffffffffffffff1681565b600160009054906101000a900473ffffffffffffffffffffffffffffffffffffffff1673ffffffffffffffffffffffffffffffffffffffff163373ffffffffffffffffffffffffffffffffffffffff16146129a5576040517f08c379a000000000000000000000000000000000000000000000000000000000815260040161299c9061329c565b60405180910390fd5b8060028190555050565b6000600754146129e857600754670de0b6b3a76400006129cd610875565b6129d79190612f1e565b6129e19190612fa7565b6009819055505b600060085414612a2157600854670de0b6b3a7640000612a06610875565b612a109190612f1e565b612a1a9190612fa7565b600a819055505b565b600660009054906101000a900473ffffffffffffffffffffffffffffffffffffffff1673ffffffffffffffffffffffffffffffffffffffff1663feaf968c6040518163ffffffff1660e01b815260040160a060405180830381865afa158015612a90573d6000803e3d6000fd5b505050506040513d601f19601f82011682018060405250810190612ab491906131af565b9091929350909150905050600b6000829190505550565b42600d81905550600660009054906101000a900473ffffffffffffffffffffffffffffffffffffffff1673ffffffffffffffffffffffffffffffffffffffff1663feaf968c6040518163ffffffff1660e01b815260040160a060405180830381865afa158015612b3f573d6000803e3d6000fd5b505050506040513d601f19601f82011682018060405250810190612b6391906131af565b9091929350909150905050600c6000829190505550565b600073ffffffffffffffffffffffffffffffffffffffff82169050919050565b6000612ba582612b7a565b9050919050565b612bb581612b9a565b82525050565b6000819050919050565b612bce81612bbb565b82525050565b6000604082019050612be96000830185612bac565b612bf66020830184612bc5565b9392505050565b600080fd5b612c0b81612bbb565b8114612c1657600080fd5b50565b600081359050612c2881612c02565b92915050565b600060208284031215612c4457612c43612bfd565b5b6000612c5284828501612c19565b91505092915050565b6000602082019050612c706000830184612bc5565b92915050565b6000602082019050612c8b6000830184612bac565b92915050565b6000819050919050565b612ca481612c91565b82525050565b6000602082019050612cbf6000830184612c9b565b92915050565b612cce81612b9a565b8114612cd957600080fd5b50565b600081359050612ceb81612cc5565b92915050565b600060208284031215612d0757612d06612bfd565b5b6000612d1584828501612cdc565b91505092915050565b60008115159050919050565b612d3381612d1e565b82525050565b600061010082019050612d4f600083018b612bac565b612d5c602083018a612bc5565b612d696040830189612bc5565b612d766060830188612bc5565b612d836080830187612d2a565b612d9060a0830186612d2a565b612d9d60c0830185612bc5565b612daa60e0830184612bc5565b9998505050505050505050565b6000602082019050612dcc6000830184612d2a565b92915050565b600082825260208201905092915050565b7f596f752073686f756c6420626574206d6f726500000000000000000000000000600082015250565b6000612e19601383612dd2565b9150612e2482612de3565b602082019050919050565b60006020820190508181036000830152612e4881612e0c565b9050919050565b7f596f7520646f6e74206861766520656e6f7567682062616c616e636500000000600082015250565b6000612e85601c83612dd2565b9150612e9082612e4f565b602082019050919050565b60006020820190508181036000830152612eb481612e78565b9050919050565b7f4e487b7100000000000000000000000000000000000000000000000000000000600052601160045260246000fd5b6000612ef582612bbb565b9150612f0083612bbb565b925082821015612f1357612f12612ebb565b5b828203905092915050565b6000612f2982612bbb565b9150612f3483612bbb565b9250817fffffffffffffffffffffffffffffffffffffffffffffffffffffffffffffffff0483118215151615612f6d57612f6c612ebb565b5b828202905092915050565b7f4e487b7100000000000000000000000000000000000000000000000000000000600052601260045260246000fd5b6000612fb282612bbb565b9150612fbd83612bbb565b925082612fcd57612fcc612f78565b5b828204905092915050565b6000612fe382612bbb565b9150612fee83612bbb565b9250827fffffffffffffffffffffffffffffffffffffffffffffffffffffffffffffffff0382111561302357613022612ebb565b5b828201905092915050565b7f596f75722077616c6c657420646f6e2068617665206d6f6e6579000000000000600082015250565b6000613064601a83612dd2565b915061306f8261302e565b602082019050919050565b6000602082019050818103600083015261309381613057565b9050919050565b7f596f757220616d6f756e742066756e64656420697320696e76616c69642c207060008201527f6c65617365207370656e64206d6f726520455448000000000000000000000000602082015250565b60006130f6603483612dd2565b91506131018261309a565b604082019050919050565b60006020820190508181036000830152613125816130e9565b9050919050565b600069ffffffffffffffffffff82169050919050565b61314b8161312c565b811461315657600080fd5b50565b60008151905061316881613142565b92915050565b61317781612c91565b811461318257600080fd5b50565b6000815190506131948161316e565b92915050565b6000815190506131a981612c02565b92915050565b600080600080600060a086880312156131cb576131ca612bfd565b5b60006131d988828901613159565b95505060206131ea88828901613185565b94505060406131fb8882890161319a565b935050606061320c8882890161319a565b925050608061321d88828901613159565b9150509295509295909350565b7f596f75206172656e7420746865206f776e6572206f662074686973204c6f747460008201527f6572790000000000000000000000000000000000000000000000000000000000602082015250565b6000613286602383612dd2565b91506132918261322a565b604082019050919050565b600060208201905081810360008301526132b581613279565b9050919050565b7f596f752063616e74207769746864726177203000000000000000000000000000600082015250565b60006132f2601383612dd2565b91506132fd826132bc565b602082019050919050565b60006020820190508181036000830152613321816132e5565b9050919050565b7f596f752063616e74207769746864726177206d6f7265206d6f6e65792074686160008201527f6e20796f75206861766500000000000000000000000000000000000000000000602082015250565b6000613384602a83612dd2565b915061338f82613328565b604082019050919050565b600060208201905081810360008301526133b381613377565b9050919050565b7f5468652074696d652069736e74206e6f77000000000000000000000000000000600082015250565b60006133f0601183612dd2565b91506133fb826133ba565b602082019050919050565b6000602082019050818103600083015261341f816133e3565b9050919050565b7f4e487b7100000000000000000000000000000000000000000000000000000000600052603260045260246000fd5b600061346082612bbb565b91507fffffffffffffffffffffffffffffffffffffffffffffffffffffffffffffffff82141561349357613492612ebb565b5b60018201905091905056fea264697066735822122012c7147f0a653ca1469f91720a515a43f49630e389d0e01c7d123206fc5901c364736f6c634300080a0033",
  "immutableReferences": {},
  "source": "// SPDX-License-Identifier: MIT\r\n\r\npragma solidity ^0.8.0;\r\n\r\nimport \"@openzeppelin/contracts/utils/math/SafeMath.sol\";\r\nimport \"@chainlink/contracts/src/v0.8/interfaces/AggregatorV3Interface.sol\";\r\n\r\ncontract Lottery {\r\n\r\n    using SafeMath for uint256;\r\n\r\n    constructor() {\r\n        Owner_Contract = msg.sender;\r\n        Contract_Address = address(this);\r\n    }\r\n\r\n    address public Owner_Contract;\r\n    address public Contract_Address;\r\n    uint256 public OWNER_FEE = 2;\r\n    uint256 public Owner_Profits;\r\n\r\n    mapping (address => Competitor) public users;\r\n\r\n    event Deposit (address, uint256) ;\r\n    event withdraw (address, uint256);\r\n\r\n    struct Competitor {\r\n        address funder;\r\n        uint256 amount;\r\n        uint256 wins;\r\n        uint256 amountWins;\r\n        bool betUpPrediction;\r\n        bool betDownPrediction;\r\n        uint256 betAmountUpPrediction;\r\n        uint256 betAmountDownPrediction;\r\n    }\r\n\r\n    address[] public usersAddress;\r\n       \r\n\r\n    modifier OnlyOwner(){\r\n        require(msg.sender == Contract_Address,\"You arent the owner of this Lottery\");\r\n        _;\r\n    }\r\n\r\n    modifier OnlyContract(){\r\n        require(msg.sender == Owner_Contract,\"You arent the contract\");\r\n        _;\r\n    }\r\n\r\n    function changeOwnerFee(uint256 _fee) public OnlyOwner {\r\n        OWNER_FEE = _fee;\r\n    }\r\n\r\n    receive()external payable{\r\n        emit Deposit(msg.sender,msg.value);\r\n    }\r\n\r\n    function userFunding() public payable{\r\n        require(msg.sender.balance > 0 ether,\"Your wallet don have money\");\r\n        require(msg.value > 0 ether,\"Your amount funded is invalid, please spend more ETH\");\r\n        \r\n        users[msg.sender] = Competitor(\r\n                            msg.sender, users[msg.sender].amount, \r\n                            users[msg.sender].wins, \r\n                            users[msg.sender].amountWins,\r\n                            users[msg.sender].betUpPrediction,\r\n                            users[msg.sender].betDownPrediction,\r\n                            users[msg.sender].betAmountUpPrediction,\r\n                            users[msg.sender].betAmountDownPrediction\r\n                            );\r\n\r\n        users[msg.sender].amount += msg.value ;\r\n        usersAddress.push(msg.sender);\r\n\r\n        emit Deposit(msg.sender,msg.value);\r\n    }\r\n\r\n    function userWithdrawall (uint256 _amountWithdrawall) public {\r\n        require(_amountWithdrawall != 0,\"You cant withdraw 0\");        \r\n        require(_amountWithdrawall <= users[msg.sender].amount && users[msg.sender].amount > 0,\"You cant withdraw more money than you have\");\r\n        \r\n\r\n        users[msg.sender].amount -= _amountWithdrawall;\r\n        payable(msg.sender).transfer(_amountWithdrawall);\r\n\r\n        emit withdraw(msg.sender, _amountWithdrawall);\r\n    }      \r\n\r\n    function ownerWithdrawall (uint256 _amountWithdrawall) public OnlyOwner{\r\n        require(_amountWithdrawall != 0,\"You cant withdraw 0\");   \r\n        require(_amountWithdrawall <= Owner_Profits,\"You cant withdraw more money than you have\"); \r\n\r\n        Owner_Profits -= _amountWithdrawall;\r\n        payable(Owner_Contract).transfer(_amountWithdrawall);\r\n\r\n        emit withdraw(msg.sender, _amountWithdrawall);\r\n    }\r\n\r\n    function userDeposit() public view returns(uint256){\r\n        return users[msg.sender].amount;\r\n    }\r\n\r\n    function userWins() public view returns(uint256){\r\n        return users[msg.sender].wins;\r\n    }\r\n\r\n    function userProfits() public view returns(uint256){\r\n        return users[msg.sender].amountWins;\r\n    }\r\n\r\n}\r\n\r\ncontract Prediction is Lottery {\r\n\r\n    AggregatorV3Interface internal priceFeed;\r\n\r\n    constructor() {\r\n        //BNB Chain TestNet\r\n        //BNB/USD\r\n\r\n        priceFeed = AggregatorV3Interface(\r\n            0x2514895c72f50D8bd4B4F9b1110F0D6bD2c97526\r\n        );\r\n    }\r\n    \r\n    uint256 private Bet_Up;\r\n    uint256 private Bet_Down;    \r\n\r\n    uint256 private Bet_Up_Factor;\r\n    uint256 private Bet_Down_Factor;\r\n\r\n    int private ActualPrice; //Alimentado por chainlink\r\n    int private PriceLocked; // Precio Bloqueado desde chainlink\r\n\r\n    uint256 private timeLocked;\r\n\r\n    event betPriceUp (address, uint256);\r\n    event betPriceDown (address, uint256);\r\n\r\n    function priceUp (uint256 _betAmount) public {\r\n        require(_betAmount > 100 wei, \"You should bet more\");\r\n        require(users[msg.sender].amount > 0 && users[msg.sender].amount >= _betAmount,\"You dont have enough balance\");\r\n\r\n        uint256  _Owner_Profits;\r\n        users[msg.sender].amount -= _betAmount;\r\n        _Owner_Profits = (_betAmount*OWNER_FEE)/100;\r\n        _betAmount -= _Owner_Profits;\r\n        Owner_Profits += _Owner_Profits;\r\n        Bet_Up += _betAmount;\r\n        calculateBetFactor();\r\n\r\n        users[msg.sender].betUpPrediction = true;\r\n        users[msg.sender].betAmountUpPrediction += _betAmount;\r\n\r\n        emit betPriceUp (msg.sender, _betAmount);\r\n    }\r\n\r\n    function priceDown (uint256 _betAmount) public {\r\n        require(_betAmount > 100 wei, \"You should bet more\");\r\n        require(users[msg.sender].amount > 0 && users[msg.sender].amount >= _betAmount,\"You dont have enough balance\");\r\n\r\n        uint256  _Owner_Profits;\r\n        users[msg.sender].amount -= _betAmount;\r\n        _Owner_Profits = (_betAmount*OWNER_FEE)/100;\r\n        _betAmount -= _Owner_Profits;\r\n        Owner_Profits += _Owner_Profits;\r\n        Bet_Down += _betAmount;\r\n        calculateBetFactor();\r\n\r\n        users[msg.sender].betDownPrediction = true;\r\n        users[msg.sender].betAmountDownPrediction += _betAmount;\r\n\r\n        emit betPriceDown (msg.sender, _betAmount);\r\n    }    \r\n\r\n    function calculateBetFactor() private {\r\n\r\n        if(Bet_Up != 0){\r\n            Bet_Up_Factor = (betTotalPrediction() * 1 ether )/ Bet_Up ;\r\n        }\r\n        if(Bet_Down != 0){\r\n            Bet_Down_Factor = (betTotalPrediction() * 1 ether)/ Bet_Down;\r\n        }     \r\n\r\n    }\r\n\r\n    function betTotalPrediction() public view returns(uint256){\r\n        return (Bet_Up + Bet_Down);\r\n    }\r\n\r\n    function priceLocked(/*int _price*/) private {// Precio Bloqueado desde chainlink\r\n        timeLocked = block.timestamp;\r\n        //PriceLocked = _price;\r\n        (,PriceLocked,,,) =priceFeed.latestRoundData(); \r\n    }\r\n\r\n    function actualPrice(/*int _price*/) private {// Alimentado por chainlink\r\n\r\n        //ActualPrice =_price;        \r\n        (,ActualPrice,,,) =priceFeed.latestRoundData(); \r\n    }\r\n\r\n    function timeLoked () public view returns(uint256){\r\n        return timeLocked;\r\n    }\r\n    function pricePair() public view returns (int){\r\n        int price;\r\n        (,price,,,) =priceFeed.latestRoundData();\r\n        return price;\r\n    }\r\n\r\n    \r\n\r\n    function betUpFactor() public view returns(uint256){\r\n        return Bet_Up_Factor;\r\n    }\r\n\r\n    function betDownFactor() public view returns(uint256){\r\n        return Bet_Down_Factor;\r\n    }\r\n\r\n    function RewardsCalculated() public OnlyOwner{ //Solo puede ser ejecutada en el tiempo correcto - revisar esto     \r\n\r\n        require(block.timestamp >= (timeLocked + 5 minutes),\"The time isnt now\");\r\n        actualPrice();\r\n\r\n        if(checkBalance()){\r\n            if(ActualPrice > PriceLocked){ \r\n                for(uint256 i=0; i <usersAddress.length; i++){\r\n                    if(users[usersAddress[i]].betUpPrediction && users[usersAddress[i]].betAmountUpPrediction > 0 && users[usersAddress[i]].betAmountUpPrediction <= betTotalPrediction()){\r\n                        users[usersAddress[i]].amount += (users[usersAddress[i]].betAmountUpPrediction * Bet_Up_Factor) / 1 ether;\r\n                        users[usersAddress[i]].betAmountUpPrediction = 0;\r\n                        users[usersAddress[i]].betUpPrediction = false;                        \r\n                    }\r\n                    if(users[usersAddress[i]].betDownPrediction){\r\n                        users[usersAddress[i]].betAmountDownPrediction = 0;\r\n                        users[usersAddress[i]].betDownPrediction = false;                        \r\n                    }\r\n\r\n                }\r\n            }\r\n            if(ActualPrice < PriceLocked){ \r\n                for(uint256 i=0; i <usersAddress.length; i++){\r\n                    if(users[usersAddress[i]].betDownPrediction && users[usersAddress[i]].betAmountDownPrediction > 0 && users[usersAddress[i]].betAmountDownPrediction <= betTotalPrediction()){\r\n                        users[usersAddress[i]].amount += (users[usersAddress[i]].betAmountDownPrediction * Bet_Down_Factor) / 1 ether;\r\n                        users[usersAddress[i]].betAmountDownPrediction = 0;\r\n                        users[usersAddress[i]].betDownPrediction = false;                        \r\n                    }\r\n                    if(users[usersAddress[i]].betUpPrediction){\r\n                        users[usersAddress[i]].betAmountUpPrediction = 0;\r\n                        users[usersAddress[i]].betUpPrediction = false;                       \r\n                    }\r\n\r\n                }\r\n                \r\n            }\r\n            if(actualPrice == priceLocked){          \r\n                \r\n                for(uint256 i=0; i <usersAddress.length; i++){\r\n                    users[usersAddress[i]].amount += users[usersAddress[i]].betAmountUpPrediction  ;\r\n                    users[usersAddress[i]].betAmountUpPrediction = 0;\r\n                    users[usersAddress[i]].betUpPrediction = false;\r\n\r\n                    users[usersAddress[i]].amount += users[usersAddress[i]].betAmountDownPrediction ;\r\n                    users[usersAddress[i]].betAmountDownPrediction = 0;\r\n                    users[usersAddress[i]].betDownPrediction = false;\r\n                }\r\n                \r\n            }    \r\n            Bet_Up=0;\r\n            Bet_Up_Factor=0;\r\n            Bet_Down=0;\r\n            Bet_Down_Factor=0;\r\n\r\n            priceLocked();\r\n        }    \r\n\r\n    }\r\n\r\n    function checkBalance() public view returns(bool){\r\n            uint256 _checkedBalance;\r\n            bool _checkedBalanceFlag = false;\r\n\r\n            for(uint256 i=0; i <usersAddress.length; i++){\r\n                _checkedBalance += users[usersAddress[i]].betAmountUpPrediction + users[usersAddress[i]].betAmountDownPrediction;\r\n            }\r\n            \r\n            if(_checkedBalance == betTotalPrediction()){_checkedBalanceFlag = true;}\r\n            else{_checkedBalanceFlag = false;}\r\n\r\n            return _checkedBalanceFlag;\r\n        }\r\n\r\n\r\n\r\n}",
  "sourcePath": "C:\\Users\\User\\Documents\\LotteryV2\\PrimerPrograma\\lottery-dapp\\src\\contracts\\Lottery.sol",
  "compiler": {
    "name": "solc",
    "version": "0.8.10+commit.fc410830.Emscripten.clang"
  },
  "schemaVersion": "3.4.11",
  "updatedAt": "2022-12-19T16:40:07.314Z",
  "devdoc": {
    "kind": "dev",
    "methods": {},
    "version": 1
  },
  "userdoc": {
    "kind": "user",
    "methods": {},
    "version": 1
  }
}