{
  "contractName": "Prediction",
  "abi": [
    {
      "inputs": [],
      "stateMutability": "nonpayable",
      "type": "constructor"
    },
    {
      "anonymous": false,
      "inputs": [
        {
          "indexed": false,
          "internalType": "address",
          "name": "",
          "type": "address"
        },
        {
          "indexed": false,
          "internalType": "uint256",
          "name": "",
          "type": "uint256"
        }
      ],
      "name": "Deposit",
      "type": "event"
    },
    {
      "anonymous": false,
      "inputs": [
        {
          "indexed": false,
          "internalType": "address",
          "name": "",
          "type": "address"
        },
        {
          "indexed": false,
          "internalType": "uint256",
          "name": "",
          "type": "uint256"
        }
      ],
      "name": "betPriceDown",
      "type": "event"
    },
    {
      "anonymous": false,
      "inputs": [
        {
          "indexed": false,
          "internalType": "address",
          "name": "",
          "type": "address"
        },
        {
          "indexed": false,
          "internalType": "uint256",
          "name": "",
          "type": "uint256"
        }
      ],
      "name": "betPriceUp",
      "type": "event"
    },
    {
      "anonymous": false,
      "inputs": [
        {
          "indexed": false,
          "internalType": "address",
          "name": "",
          "type": "address"
        },
        {
          "indexed": false,
          "internalType": "uint256",
          "name": "",
          "type": "uint256"
        }
      ],
      "name": "withdraw",
      "type": "event"
    },
    {
      "inputs": [],
      "name": "Contract_Address",
      "outputs": [
        {
          "internalType": "address",
          "name": "",
          "type": "address"
        }
      ],
      "stateMutability": "view",
      "type": "function",
      "constant": true
    },
    {
      "inputs": [],
      "name": "OWNER_FEE",
      "outputs": [
        {
          "internalType": "uint256",
          "name": "",
          "type": "uint256"
        }
      ],
      "stateMutability": "view",
      "type": "function",
      "constant": true
    },
    {
      "inputs": [],
      "name": "Owner_Contract",
      "outputs": [
        {
          "internalType": "address",
          "name": "",
          "type": "address"
        }
      ],
      "stateMutability": "view",
      "type": "function",
      "constant": true
    },
    {
      "inputs": [],
      "name": "Owner_Profits",
      "outputs": [
        {
          "internalType": "uint256",
          "name": "",
          "type": "uint256"
        }
      ],
      "stateMutability": "view",
      "type": "function",
      "constant": true
    },
    {
      "inputs": [
        {
          "internalType": "uint256",
          "name": "_fee",
          "type": "uint256"
        }
      ],
      "name": "changeOwnerFee",
      "outputs": [],
      "stateMutability": "nonpayable",
      "type": "function"
    },
    {
      "inputs": [
        {
          "internalType": "uint256",
          "name": "_amountWithdrawall",
          "type": "uint256"
        }
      ],
      "name": "ownerWithdrawall",
      "outputs": [],
      "stateMutability": "nonpayable",
      "type": "function"
    },
    {
      "inputs": [],
      "name": "userDeposit",
      "outputs": [
        {
          "internalType": "uint256",
          "name": "",
          "type": "uint256"
        }
      ],
      "stateMutability": "view",
      "type": "function",
      "constant": true
    },
    {
      "inputs": [],
      "name": "userFunding",
      "outputs": [],
      "stateMutability": "payable",
      "type": "function",
      "payable": true
    },
    {
      "inputs": [],
      "name": "userProfits",
      "outputs": [
        {
          "internalType": "uint256",
          "name": "",
          "type": "uint256"
        }
      ],
      "stateMutability": "view",
      "type": "function",
      "constant": true
    },
    {
      "inputs": [],
      "name": "userWins",
      "outputs": [
        {
          "internalType": "uint256",
          "name": "",
          "type": "uint256"
        }
      ],
      "stateMutability": "view",
      "type": "function",
      "constant": true
    },
    {
      "inputs": [
        {
          "internalType": "uint256",
          "name": "_amountWithdrawall",
          "type": "uint256"
        }
      ],
      "name": "userWithdrawall",
      "outputs": [],
      "stateMutability": "nonpayable",
      "type": "function"
    },
    {
      "inputs": [
        {
          "internalType": "address",
          "name": "",
          "type": "address"
        }
      ],
      "name": "users",
      "outputs": [
        {
          "internalType": "address",
          "name": "funder",
          "type": "address"
        },
        {
          "internalType": "uint256",
          "name": "amount",
          "type": "uint256"
        },
        {
          "internalType": "uint256",
          "name": "wins",
          "type": "uint256"
        },
        {
          "internalType": "uint256",
          "name": "amountWins",
          "type": "uint256"
        },
        {
          "internalType": "bool",
          "name": "betUpPrediction",
          "type": "bool"
        },
        {
          "internalType": "bool",
          "name": "betDownPrediction",
          "type": "bool"
        },
        {
          "internalType": "uint256",
          "name": "betAmountUpPrediction",
          "type": "uint256"
        },
        {
          "internalType": "uint256",
          "name": "betAmountDownPrediction",
          "type": "uint256"
        }
      ],
      "stateMutability": "view",
      "type": "function",
      "constant": true
    },
    {
      "inputs": [
        {
          "internalType": "uint256",
          "name": "",
          "type": "uint256"
        }
      ],
      "name": "usersAddress",
      "outputs": [
        {
          "internalType": "address",
          "name": "",
          "type": "address"
        }
      ],
      "stateMutability": "view",
      "type": "function",
      "constant": true
    },
    {
      "stateMutability": "payable",
      "type": "receive",
      "payable": true
    },
    {
      "inputs": [
        {
          "internalType": "uint256",
          "name": "_betAmount",
          "type": "uint256"
        }
      ],
      "name": "priceUp",
      "outputs": [],
      "stateMutability": "nonpayable",
      "type": "function"
    },
    {
      "inputs": [
        {
          "internalType": "uint256",
          "name": "_betAmount",
          "type": "uint256"
        }
      ],
      "name": "priceDown",
      "outputs": [],
      "stateMutability": "nonpayable",
      "type": "function"
    },
    {
      "inputs": [],
      "name": "betTotalPrediction",
      "outputs": [
        {
          "internalType": "uint256",
          "name": "",
          "type": "uint256"
        }
      ],
      "stateMutability": "view",
      "type": "function",
      "constant": true
    },
    {
      "inputs": [],
      "name": "betUpFactor",
      "outputs": [
        {
          "internalType": "uint256",
          "name": "",
          "type": "uint256"
        }
      ],
      "stateMutability": "view",
      "type": "function",
      "constant": true
    },
    {
      "inputs": [],
      "name": "betDownFactor",
      "outputs": [
        {
          "internalType": "uint256",
          "name": "",
          "type": "uint256"
        }
      ],
      "stateMutability": "view",
      "type": "function",
      "constant": true
    },
    {
      "inputs": [],
      "name": "RewardsCalculated",
      "outputs": [],
      "stateMutability": "nonpayable",
      "type": "function"
    },
    {
      "inputs": [],
      "name": "checkBalance",
      "outputs": [
        {
          "internalType": "bool",
          "name": "",
          "type": "bool"
        }
      ],
      "stateMutability": "view",
      "type": "function",
      "constant": true
    }
  ],
  "bytecode": "0x60806040526002805534801561001457600080fd5b50336000806101000a81548173ffffffffffffffffffffffffffffffffffffffff021916908373ffffffffffffffffffffffffffffffffffffffff16021790555030600160006101000a81548173ffffffffffffffffffffffffffffffffffffffff021916908373ffffffffffffffffffffffffffffffffffffffff160217905550732514895c72f50d8bd4b4f9b1110f0d6bd2c97526600660006101000a81548173ffffffffffffffffffffffffffffffffffffffff021916908373ffffffffffffffffffffffffffffffffffffffff16021790555061338a806100fa6000396000f3fe6080604052600436106101235760003560e01c80639b7d17c9116100a0578063b065b79a11610064578063b065b79a146103dd578063c71daccb14610406578063cd0a369214610431578063cf147c051461045c578063e16f66d41461048757610163565b80639b7d17c914610305578063a1ea8cd51461032e578063a2c8696214610345578063a5d0480814610370578063a87430ba1461039957610163565b8063731d4480116100e7578063731d44801461024f5780637b12df391461027a5780637e84a7d8146102a557806381648ba0146102af578063880df190146102da57610163565b80630b28a86f146101685780632c91324c1461019157806348146113146101ce57806357e113e0146101f95780635dab0fe31461022457610163565b36610163577fe1fffcc4923d04b559f4d29a8bfc6cda04eb5b0d3c460751c2402c5c5cc9109c3334604051610159929190612ab4565b60405180910390a1005b600080fd5b34801561017457600080fd5b5061018f600480360381019061018a9190612b0e565b6104b0565b005b34801561019d57600080fd5b506101b860048036038101906101b39190612b0e565b610776565b6040516101c59190612b3b565b60405180910390f35b3480156101da57600080fd5b506101e36107b5565b6040516101f09190612b56565b60405180910390f35b34801561020557600080fd5b5061020e6107ff565b60405161021b9190612b56565b60405180910390f35b34801561023057600080fd5b50610239610816565b6040516102469190612b56565b60405180910390f35b34801561025b57600080fd5b5061026461081c565b6040516102719190612b56565b60405180910390f35b34801561028657600080fd5b5061028f610826565b60405161029c9190612b56565b60405180910390f35b6102ad610870565b005b3480156102bb57600080fd5b506102c4610d3b565b6040516102d19190612b56565b60405180910390f35b3480156102e657600080fd5b506102ef610d45565b6040516102fc9190612b56565b60405180910390f35b34801561031157600080fd5b5061032c60048036038101906103279190612b0e565b610d8f565b005b34801561033a57600080fd5b50610343610f64565b005b34801561035157600080fd5b5061035a612104565b6040516103679190612b56565b60405180910390f35b34801561037c57600080fd5b5061039760048036038101906103929190612b0e565b61210a565b005b3480156103a557600080fd5b506103c060048036038101906103bb9190612b9d565b6123d0565b6040516103d4989796959493929190612be5565b60405180910390f35b3480156103e957600080fd5b5061040460048036038101906103ff9190612b0e565b612452565b005b34801561041257600080fd5b5061041b612645565b6040516104289190612c63565b60405180910390f35b34801561043d57600080fd5b506104466127ab565b6040516104539190612b3b565b60405180910390f35b34801561046857600080fd5b506104716127d1565b60405161047e9190612b3b565b60405180910390f35b34801561049357600080fd5b506104ae60048036038101906104a99190612b0e565b6127f5565b005b606481116104f3576040517f08c379a00000000000000000000000000000000000000000000000000000000081526004016104ea90612cdb565b60405180910390fd5b6000600460003373ffffffffffffffffffffffffffffffffffffffff1673ffffffffffffffffffffffffffffffffffffffff16815260200190815260200160002060010154118015610587575080600460003373ffffffffffffffffffffffffffffffffffffffff1673ffffffffffffffffffffffffffffffffffffffff1681526020019081526020016000206001015410155b6105c6576040517f08c379a00000000000000000000000000000000000000000000000000000000081526004016105bd90612d47565b60405180910390fd5b600081600460003373ffffffffffffffffffffffffffffffffffffffff1673ffffffffffffffffffffffffffffffffffffffff168152602001908152602001600020600101600082825461061a9190612d96565b925050819055506064600254836106319190612dca565b61063b9190612e53565b905080826106499190612d96565b9150806003600082825461065d9190612e84565b9250508190555081600860008282546106769190612e84565b9250508190555061068561288f565b6001600460003373ffffffffffffffffffffffffffffffffffffffff1673ffffffffffffffffffffffffffffffffffffffff16815260200190815260200160002060040160016101000a81548160ff02191690831515021790555081600460003373ffffffffffffffffffffffffffffffffffffffff1673ffffffffffffffffffffffffffffffffffffffff16815260200190815260200160002060060160008282546107329190612e84565b925050819055507ff711f01ae5de38645cc7107885d9a6b83d2c8b8f45e43564ae4cdc174db2976f338360405161076a929190612ab4565b60405180910390a15050565b6005818154811061078657600080fd5b906000526020600020016000915054906101000a900473ffffffffffffffffffffffffffffffffffffffff1681565b6000600460003373ffffffffffffffffffffffffffffffffffffffff1673ffffffffffffffffffffffffffffffffffffffff16815260200190815260200160002060010154905090565b60006008546007546108119190612e84565b905090565b60025481565b6000600954905090565b6000600460003373ffffffffffffffffffffffffffffffffffffffff1673ffffffffffffffffffffffffffffffffffffffff16815260200190815260200160002060030154905090565b60003373ffffffffffffffffffffffffffffffffffffffff1631116108ca576040517f08c379a00000000000000000000000000000000000000000000000000000000081526004016108c190612f26565b60405180910390fd5b6000341161090d576040517f08c379a000000000000000000000000000000000000000000000000000000000815260040161090490612fb8565b60405180910390fd5b6040518061010001604052803373ffffffffffffffffffffffffffffffffffffffff168152602001600460003373ffffffffffffffffffffffffffffffffffffffff1673ffffffffffffffffffffffffffffffffffffffff168152602001908152602001600020600101548152602001600460003373ffffffffffffffffffffffffffffffffffffffff1673ffffffffffffffffffffffffffffffffffffffff168152602001908152602001600020600201548152602001600460003373ffffffffffffffffffffffffffffffffffffffff1673ffffffffffffffffffffffffffffffffffffffff168152602001908152602001600020600301548152602001600460003373ffffffffffffffffffffffffffffffffffffffff1673ffffffffffffffffffffffffffffffffffffffff16815260200190815260200160002060040160009054906101000a900460ff1615158152602001600460003373ffffffffffffffffffffffffffffffffffffffff1673ffffffffffffffffffffffffffffffffffffffff16815260200190815260200160002060040160019054906101000a900460ff1615158152602001600460003373ffffffffffffffffffffffffffffffffffffffff1673ffffffffffffffffffffffffffffffffffffffff168152602001908152602001600020600501548152602001600460003373ffffffffffffffffffffffffffffffffffffffff1673ffffffffffffffffffffffffffffffffffffffff16815260200190815260200160002060060154815250600460003373ffffffffffffffffffffffffffffffffffffffff1673ffffffffffffffffffffffffffffffffffffffff16815260200190815260200160002060008201518160000160006101000a81548173ffffffffffffffffffffffffffffffffffffffff021916908373ffffffffffffffffffffffffffffffffffffffff16021790555060208201518160010155604082015181600201556060820151816003015560808201518160040160006101000a81548160ff02191690831515021790555060a08201518160040160016101000a81548160ff02191690831515021790555060c0820151816005015560e0820151816006015590505034600460003373ffffffffffffffffffffffffffffffffffffffff1673ffffffffffffffffffffffffffffffffffffffff1681526020019081526020016000206001016000828254610c969190612e84565b925050819055506005339080600181540180825580915050600190039060005260206000200160009091909190916101000a81548173ffffffffffffffffffffffffffffffffffffffff021916908373ffffffffffffffffffffffffffffffffffffffff1602179055507fe1fffcc4923d04b559f4d29a8bfc6cda04eb5b0d3c460751c2402c5c5cc9109c3334604051610d31929190612ab4565b60405180910390a1565b6000600a54905090565b6000600460003373ffffffffffffffffffffffffffffffffffffffff1673ffffffffffffffffffffffffffffffffffffffff16815260200190815260200160002060020154905090565b600160009054906101000a900473ffffffffffffffffffffffffffffffffffffffff1673ffffffffffffffffffffffffffffffffffffffff163373ffffffffffffffffffffffffffffffffffffffff1614610e1f576040517f08c379a0000000000000000000000000000000000000000000000000000000008152600401610e169061304a565b60405180910390fd5b6000811415610e63576040517f08c379a0000000000000000000000000000000000000000000000000000000008152600401610e5a906130b6565b60405180910390fd5b600354811115610ea8576040517f08c379a0000000000000000000000000000000000000000000000000000000008152600401610e9f90613148565b60405180910390fd5b8060036000828254610eba9190612d96565b9250508190555060008054906101000a900473ffffffffffffffffffffffffffffffffffffffff1673ffffffffffffffffffffffffffffffffffffffff166108fc829081150290604051600060405180830381858888f19350505050158015610f27573d6000803e3d6000fd5b507ff3fef3a3f44f9c277339b67d54f015748bd8d6b77a985b0ab6e71126b018c34a3382604051610f59929190612ab4565b60405180910390a150565b600160009054906101000a900473ffffffffffffffffffffffffffffffffffffffff1673ffffffffffffffffffffffffffffffffffffffff163373ffffffffffffffffffffffffffffffffffffffff1614610ff4576040517f08c379a0000000000000000000000000000000000000000000000000000000008152600401610feb9061304a565b60405180910390fd5b61012c600d546110049190612e84565b421015611046576040517f08c379a000000000000000000000000000000000000000000000000000000000815260040161103d906131b4565b60405180910390fd5b61104e612903565b611056612645565b1561210257600c54600b5413156116485760005b60058054905081101561164657600460006005838154811061108f5761108e6131d4565b5b9060005260206000200160009054906101000a900473ffffffffffffffffffffffffffffffffffffffff1673ffffffffffffffffffffffffffffffffffffffff1673ffffffffffffffffffffffffffffffffffffffff16815260200190815260200160002060040160009054906101000a900460ff168015611191575060006004600060058481548110611126576111256131d4565b5b9060005260206000200160009054906101000a900473ffffffffffffffffffffffffffffffffffffffff1673ffffffffffffffffffffffffffffffffffffffff1673ffffffffffffffffffffffffffffffffffffffff16815260200190815260200160002060050154115b801561122457506111a06107ff565b60046000600584815481106111b8576111b76131d4565b5b9060005260206000200160009054906101000a900473ffffffffffffffffffffffffffffffffffffffff1673ffffffffffffffffffffffffffffffffffffffff1673ffffffffffffffffffffffffffffffffffffffff1681526020019081526020016000206005015411155b1561148057670de0b6b3a7640000600954600460006005858154811061124d5761124c6131d4565b5b9060005260206000200160009054906101000a900473ffffffffffffffffffffffffffffffffffffffff1673ffffffffffffffffffffffffffffffffffffffff1673ffffffffffffffffffffffffffffffffffffffff168152602001908152602001600020600501546112c09190612dca565b6112ca9190612e53565b60046000600584815481106112e2576112e16131d4565b5b9060005260206000200160009054906101000a900473ffffffffffffffffffffffffffffffffffffffff1673ffffffffffffffffffffffffffffffffffffffff1673ffffffffffffffffffffffffffffffffffffffff16815260200190815260200160002060010160008282546113599190612e84565b925050819055506000600460006005848154811061137a576113796131d4565b5b9060005260206000200160009054906101000a900473ffffffffffffffffffffffffffffffffffffffff1673ffffffffffffffffffffffffffffffffffffffff1673ffffffffffffffffffffffffffffffffffffffff1681526020019081526020016000206005018190555060006004600060058481548110611400576113ff6131d4565b5b9060005260206000200160009054906101000a900473ffffffffffffffffffffffffffffffffffffffff1673ffffffffffffffffffffffffffffffffffffffff1673ffffffffffffffffffffffffffffffffffffffff16815260200190815260200160002060040160006101000a81548160ff0219169083151502179055505b6004600060058381548110611498576114976131d4565b5b9060005260206000200160009054906101000a900473ffffffffffffffffffffffffffffffffffffffff1673ffffffffffffffffffffffffffffffffffffffff1673ffffffffffffffffffffffffffffffffffffffff16815260200190815260200160002060040160019054906101000a900460ff1615611633576000600460006005848154811061152d5761152c6131d4565b5b9060005260206000200160009054906101000a900473ffffffffffffffffffffffffffffffffffffffff1673ffffffffffffffffffffffffffffffffffffffff1673ffffffffffffffffffffffffffffffffffffffff16815260200190815260200160002060060181905550600060046000600584815481106115b3576115b26131d4565b5b9060005260206000200160009054906101000a900473ffffffffffffffffffffffffffffffffffffffff1673ffffffffffffffffffffffffffffffffffffffff1673ffffffffffffffffffffffffffffffffffffffff16815260200190815260200160002060040160016101000a81548160ff0219169083151502179055505b808061163e90613203565b91505061106a565b505b600c54600b541215611c355760005b600580549050811015611c3357600460006005838154811061167c5761167b6131d4565b5b9060005260206000200160009054906101000a900473ffffffffffffffffffffffffffffffffffffffff1673ffffffffffffffffffffffffffffffffffffffff1673ffffffffffffffffffffffffffffffffffffffff16815260200190815260200160002060040160019054906101000a900460ff16801561177e575060006004600060058481548110611713576117126131d4565b5b9060005260206000200160009054906101000a900473ffffffffffffffffffffffffffffffffffffffff1673ffffffffffffffffffffffffffffffffffffffff1673ffffffffffffffffffffffffffffffffffffffff16815260200190815260200160002060060154115b8015611811575061178d6107ff565b60046000600584815481106117a5576117a46131d4565b5b9060005260206000200160009054906101000a900473ffffffffffffffffffffffffffffffffffffffff1673ffffffffffffffffffffffffffffffffffffffff1673ffffffffffffffffffffffffffffffffffffffff1681526020019081526020016000206006015411155b15611a6d57670de0b6b3a7640000600a54600460006005858154811061183a576118396131d4565b5b9060005260206000200160009054906101000a900473ffffffffffffffffffffffffffffffffffffffff1673ffffffffffffffffffffffffffffffffffffffff1673ffffffffffffffffffffffffffffffffffffffff168152602001908152602001600020600601546118ad9190612dca565b6118b79190612e53565b60046000600584815481106118cf576118ce6131d4565b5b9060005260206000200160009054906101000a900473ffffffffffffffffffffffffffffffffffffffff1673ffffffffffffffffffffffffffffffffffffffff1673ffffffffffffffffffffffffffffffffffffffff16815260200190815260200160002060010160008282546119469190612e84565b9250508190555060006004600060058481548110611967576119666131d4565b5b9060005260206000200160009054906101000a900473ffffffffffffffffffffffffffffffffffffffff1673ffffffffffffffffffffffffffffffffffffffff1673ffffffffffffffffffffffffffffffffffffffff16815260200190815260200160002060060181905550600060046000600584815481106119ed576119ec6131d4565b5b9060005260206000200160009054906101000a900473ffffffffffffffffffffffffffffffffffffffff1673ffffffffffffffffffffffffffffffffffffffff1673ffffffffffffffffffffffffffffffffffffffff16815260200190815260200160002060040160016101000a81548160ff0219169083151502179055505b6004600060058381548110611a8557611a846131d4565b5b9060005260206000200160009054906101000a900473ffffffffffffffffffffffffffffffffffffffff1673ffffffffffffffffffffffffffffffffffffffff1673ffffffffffffffffffffffffffffffffffffffff16815260200190815260200160002060040160009054906101000a900460ff1615611c205760006004600060058481548110611b1a57611b196131d4565b5b9060005260206000200160009054906101000a900473ffffffffffffffffffffffffffffffffffffffff1673ffffffffffffffffffffffffffffffffffffffff1673ffffffffffffffffffffffffffffffffffffffff1681526020019081526020016000206005018190555060006004600060058481548110611ba057611b9f6131d4565b5b9060005260206000200160009054906101000a900473ffffffffffffffffffffffffffffffffffffffff1673ffffffffffffffffffffffffffffffffffffffff1673ffffffffffffffffffffffffffffffffffffffff16815260200190815260200160002060040160006101000a81548160ff0219169083151502179055505b8080611c2b90613203565b915050611657565b505b6129ab6129039063ffffffff1614156120d95760005b6005805490508110156120d7576004600060058381548110611c7057611c6f6131d4565b5b9060005260206000200160009054906101000a900473ffffffffffffffffffffffffffffffffffffffff1673ffffffffffffffffffffffffffffffffffffffff1673ffffffffffffffffffffffffffffffffffffffff168152602001908152602001600020600501546004600060058481548110611cf157611cf06131d4565b5b9060005260206000200160009054906101000a900473ffffffffffffffffffffffffffffffffffffffff1673ffffffffffffffffffffffffffffffffffffffff1673ffffffffffffffffffffffffffffffffffffffff1681526020019081526020016000206001016000828254611d689190612e84565b9250508190555060006004600060058481548110611d8957611d886131d4565b5b9060005260206000200160009054906101000a900473ffffffffffffffffffffffffffffffffffffffff1673ffffffffffffffffffffffffffffffffffffffff1673ffffffffffffffffffffffffffffffffffffffff1681526020019081526020016000206005018190555060006004600060058481548110611e0f57611e0e6131d4565b5b9060005260206000200160009054906101000a900473ffffffffffffffffffffffffffffffffffffffff1673ffffffffffffffffffffffffffffffffffffffff1673ffffffffffffffffffffffffffffffffffffffff16815260200190815260200160002060040160006101000a81548160ff0219169083151502179055506004600060058381548110611ea657611ea56131d4565b5b9060005260206000200160009054906101000a900473ffffffffffffffffffffffffffffffffffffffff1673ffffffffffffffffffffffffffffffffffffffff1673ffffffffffffffffffffffffffffffffffffffff168152602001908152602001600020600601546004600060058481548110611f2757611f266131d4565b5b9060005260206000200160009054906101000a900473ffffffffffffffffffffffffffffffffffffffff1673ffffffffffffffffffffffffffffffffffffffff1673ffffffffffffffffffffffffffffffffffffffff1681526020019081526020016000206001016000828254611f9e9190612e84565b9250508190555060006004600060058481548110611fbf57611fbe6131d4565b5b9060005260206000200160009054906101000a900473ffffffffffffffffffffffffffffffffffffffff1673ffffffffffffffffffffffffffffffffffffffff1673ffffffffffffffffffffffffffffffffffffffff1681526020019081526020016000206006018190555060006004600060058481548110612045576120446131d4565b5b9060005260206000200160009054906101000a900473ffffffffffffffffffffffffffffffffffffffff1673ffffffffffffffffffffffffffffffffffffffff1673ffffffffffffffffffffffffffffffffffffffff16815260200190815260200160002060040160016101000a81548160ff02191690831515021790555080806120cf90613203565b915050611c4b565b505b6000600781905550600060098190555060006008819055506000600a819055506121016129ab565b5b565b60035481565b6064811161214d576040517f08c379a000000000000000000000000000000000000000000000000000000000815260040161214490612cdb565b60405180910390fd5b6000600460003373ffffffffffffffffffffffffffffffffffffffff1673ffffffffffffffffffffffffffffffffffffffff168152602001908152602001600020600101541180156121e1575080600460003373ffffffffffffffffffffffffffffffffffffffff1673ffffffffffffffffffffffffffffffffffffffff1681526020019081526020016000206001015410155b612220576040517f08c379a000000000000000000000000000000000000000000000000000000000815260040161221790612d47565b60405180910390fd5b600081600460003373ffffffffffffffffffffffffffffffffffffffff1673ffffffffffffffffffffffffffffffffffffffff16815260200190815260200160002060010160008282546122749190612d96565b9250508190555060646002548361228b9190612dca565b6122959190612e53565b905080826122a39190612d96565b915080600360008282546122b79190612e84565b9250508190555081600760008282546122d09190612e84565b925050819055506122df61288f565b6001600460003373ffffffffffffffffffffffffffffffffffffffff1673ffffffffffffffffffffffffffffffffffffffff16815260200190815260200160002060040160006101000a81548160ff02191690831515021790555081600460003373ffffffffffffffffffffffffffffffffffffffff1673ffffffffffffffffffffffffffffffffffffffff168152602001908152602001600020600501600082825461238c9190612e84565b925050819055507f671f01305b599ef1b0852f7a403578f70febad050931e5b911b400f98c0d925933836040516123c4929190612ab4565b60405180910390a15050565b60046020528060005260406000206000915090508060000160009054906101000a900473ffffffffffffffffffffffffffffffffffffffff16908060010154908060020154908060030154908060040160009054906101000a900460ff16908060040160019054906101000a900460ff16908060050154908060060154905088565b6000811415612496576040517f08c379a000000000000000000000000000000000000000000000000000000000815260040161248d906130b6565b60405180910390fd5b600460003373ffffffffffffffffffffffffffffffffffffffff1673ffffffffffffffffffffffffffffffffffffffff16815260200190815260200160002060010154811115801561252a57506000600460003373ffffffffffffffffffffffffffffffffffffffff1673ffffffffffffffffffffffffffffffffffffffff16815260200190815260200160002060010154115b612569576040517f08c379a000000000000000000000000000000000000000000000000000000000815260040161256090613148565b60405180910390fd5b80600460003373ffffffffffffffffffffffffffffffffffffffff1673ffffffffffffffffffffffffffffffffffffffff16815260200190815260200160002060010160008282546125bb9190612d96565b925050819055503373ffffffffffffffffffffffffffffffffffffffff166108fc829081150290604051600060405180830381858888f19350505050158015612608573d6000803e3d6000fd5b507ff3fef3a3f44f9c277339b67d54f015748bd8d6b77a985b0ab6e71126b018c34a338260405161263a929190612ab4565b60405180910390a150565b6000806000805b600580549050811015612785576004600060058381548110612671576126706131d4565b5b9060005260206000200160009054906101000a900473ffffffffffffffffffffffffffffffffffffffff1673ffffffffffffffffffffffffffffffffffffffff1673ffffffffffffffffffffffffffffffffffffffff1681526020019081526020016000206006015460046000600584815481106126f2576126f16131d4565b5b9060005260206000200160009054906101000a900473ffffffffffffffffffffffffffffffffffffffff1673ffffffffffffffffffffffffffffffffffffffff1673ffffffffffffffffffffffffffffffffffffffff168152602001908152602001600020600501546127659190612e84565b836127709190612e84565b9250808061277d90613203565b91505061264c565b5061278e6107ff565b82141561279e57600190506127a3565b600090505b809250505090565b600160009054906101000a900473ffffffffffffffffffffffffffffffffffffffff1681565b60008054906101000a900473ffffffffffffffffffffffffffffffffffffffff1681565b600160009054906101000a900473ffffffffffffffffffffffffffffffffffffffff1673ffffffffffffffffffffffffffffffffffffffff163373ffffffffffffffffffffffffffffffffffffffff1614612885576040517f08c379a000000000000000000000000000000000000000000000000000000000815260040161287c9061304a565b60405180910390fd5b8060028190555050565b6000600754146128c857600754670de0b6b3a76400006128ad6107ff565b6128b79190612dca565b6128c19190612e53565b6009819055505b60006008541461290157600854670de0b6b3a76400006128e66107ff565b6128f09190612dca565b6128fa9190612e53565b600a819055505b565b600660009054906101000a900473ffffffffffffffffffffffffffffffffffffffff1673ffffffffffffffffffffffffffffffffffffffff1663feaf968c6040518163ffffffff1660e01b815260040160a060405180830381865afa158015612970573d6000803e3d6000fd5b505050506040513d601f19601f8201168201806040525081019061299491906132d9565b9091929350909150905050600b6000829190505550565b42600d81905550600660009054906101000a900473ffffffffffffffffffffffffffffffffffffffff1673ffffffffffffffffffffffffffffffffffffffff1663feaf968c6040518163ffffffff1660e01b815260040160a060405180830381865afa158015612a1f573d6000803e3d6000fd5b505050506040513d601f19601f82011682018060405250810190612a4391906132d9565b9091929350909150905050600c6000829190505550565b600073ffffffffffffffffffffffffffffffffffffffff82169050919050565b6000612a8582612a5a565b9050919050565b612a9581612a7a565b82525050565b6000819050919050565b612aae81612a9b565b82525050565b6000604082019050612ac96000830185612a8c565b612ad66020830184612aa5565b9392505050565b600080fd5b612aeb81612a9b565b8114612af657600080fd5b50565b600081359050612b0881612ae2565b92915050565b600060208284031215612b2457612b23612add565b5b6000612b3284828501612af9565b91505092915050565b6000602082019050612b506000830184612a8c565b92915050565b6000602082019050612b6b6000830184612aa5565b92915050565b612b7a81612a7a565b8114612b8557600080fd5b50565b600081359050612b9781612b71565b92915050565b600060208284031215612bb357612bb2612add565b5b6000612bc184828501612b88565b91505092915050565b60008115159050919050565b612bdf81612bca565b82525050565b600061010082019050612bfb600083018b612a8c565b612c08602083018a612aa5565b612c156040830189612aa5565b612c226060830188612aa5565b612c2f6080830187612bd6565b612c3c60a0830186612bd6565b612c4960c0830185612aa5565b612c5660e0830184612aa5565b9998505050505050505050565b6000602082019050612c786000830184612bd6565b92915050565b600082825260208201905092915050565b7f596f752073686f756c6420626574206d6f726500000000000000000000000000600082015250565b6000612cc5601383612c7e565b9150612cd082612c8f565b602082019050919050565b60006020820190508181036000830152612cf481612cb8565b9050919050565b7f596f7520646f6e74206861766520656e6f7567682062616c616e636500000000600082015250565b6000612d31601c83612c7e565b9150612d3c82612cfb565b602082019050919050565b60006020820190508181036000830152612d6081612d24565b9050919050565b7f4e487b7100000000000000000000000000000000000000000000000000000000600052601160045260246000fd5b6000612da182612a9b565b9150612dac83612a9b565b925082821015612dbf57612dbe612d67565b5b828203905092915050565b6000612dd582612a9b565b9150612de083612a9b565b9250817fffffffffffffffffffffffffffffffffffffffffffffffffffffffffffffffff0483118215151615612e1957612e18612d67565b5b828202905092915050565b7f4e487b7100000000000000000000000000000000000000000000000000000000600052601260045260246000fd5b6000612e5e82612a9b565b9150612e6983612a9b565b925082612e7957612e78612e24565b5b828204905092915050565b6000612e8f82612a9b565b9150612e9a83612a9b565b9250827fffffffffffffffffffffffffffffffffffffffffffffffffffffffffffffffff03821115612ecf57612ece612d67565b5b828201905092915050565b7f596f75722077616c6c657420646f6e2068617665206d6f6e6579000000000000600082015250565b6000612f10601a83612c7e565b9150612f1b82612eda565b602082019050919050565b60006020820190508181036000830152612f3f81612f03565b9050919050565b7f596f757220616d6f756e742066756e64656420697320696e76616c69642c207060008201527f6c65617365207370656e64206d6f726520455448000000000000000000000000602082015250565b6000612fa2603483612c7e565b9150612fad82612f46565b604082019050919050565b60006020820190508181036000830152612fd181612f95565b9050919050565b7f596f75206172656e7420746865206f776e6572206f662074686973204c6f747460008201527f6572790000000000000000000000000000000000000000000000000000000000602082015250565b6000613034602383612c7e565b915061303f82612fd8565b604082019050919050565b6000602082019050818103600083015261306381613027565b9050919050565b7f596f752063616e74207769746864726177203000000000000000000000000000600082015250565b60006130a0601383612c7e565b91506130ab8261306a565b602082019050919050565b600060208201905081810360008301526130cf81613093565b9050919050565b7f596f752063616e74207769746864726177206d6f7265206d6f6e65792074686160008201527f6e20796f75206861766500000000000000000000000000000000000000000000602082015250565b6000613132602a83612c7e565b915061313d826130d6565b604082019050919050565b6000602082019050818103600083015261316181613125565b9050919050565b7f5468652074696d652069736e74206e6f77000000000000000000000000000000600082015250565b600061319e601183612c7e565b91506131a982613168565b602082019050919050565b600060208201905081810360008301526131cd81613191565b9050919050565b7f4e487b7100000000000000000000000000000000000000000000000000000000600052603260045260246000fd5b600061320e82612a9b565b91507fffffffffffffffffffffffffffffffffffffffffffffffffffffffffffffffff82141561324157613240612d67565b5b600182019050919050565b600069ffffffffffffffffffff82169050919050565b61326b8161324c565b811461327657600080fd5b50565b60008151905061328881613262565b92915050565b6000819050919050565b6132a18161328e565b81146132ac57600080fd5b50565b6000815190506132be81613298565b92915050565b6000815190506132d381612ae2565b92915050565b600080600080600060a086880312156132f5576132f4612add565b5b600061330388828901613279565b9550506020613314888289016132af565b9450506040613325888289016132c4565b9350506060613336888289016132c4565b925050608061334788828901613279565b915050929550929590935056fea2646970667358221220f2d99d69943471c3f7371ef230cb4e7d932fb44bbcd2a047b475d33820cc434964736f6c634300080a0033",
  "immutableReferences": {},
  "source": "// SPDX-License-Identifier: MIT\r\n\r\npragma solidity ^0.8.0;\r\n\r\nimport \"@openzeppelin/contracts/utils/math/SafeMath.sol\";\r\nimport \"@chainlink/contracts/src/v0.8/interfaces/AggregatorV3Interface.sol\";\r\n\r\ncontract Lottery {\r\n\r\n    using SafeMath for uint256;\r\n\r\n    constructor() {\r\n        Owner_Contract = msg.sender;\r\n        Contract_Address = address(this);\r\n    }\r\n\r\n    address public Owner_Contract;\r\n    address public Contract_Address;\r\n    uint256 public OWNER_FEE = 2;\r\n    uint256 public Owner_Profits;\r\n\r\n    mapping (address => Competitor) public users;\r\n\r\n    event Deposit (address, uint256) ;\r\n    event withdraw (address, uint256);\r\n\r\n    struct Competitor {\r\n        address funder;\r\n        uint256 amount;\r\n        uint256 wins;\r\n        uint256 amountWins;\r\n        bool betUpPrediction;\r\n        bool betDownPrediction;\r\n        uint256 betAmountUpPrediction;\r\n        uint256 betAmountDownPrediction;\r\n    }\r\n\r\n    address[] public usersAddress;\r\n       \r\n\r\n    modifier OnlyOwner(){\r\n        require(msg.sender == Contract_Address,\"You arent the owner of this Lottery\");\r\n        _;\r\n    }\r\n\r\n    modifier OnlyContract(){\r\n        require(msg.sender == Owner_Contract,\"You arent the contract\");\r\n        _;\r\n    }\r\n\r\n    function changeOwnerFee(uint256 _fee) public OnlyOwner {\r\n        OWNER_FEE = _fee;\r\n    }\r\n\r\n    receive()external payable{\r\n        emit Deposit(msg.sender,msg.value);\r\n    }\r\n\r\n    function userFunding() public payable{\r\n        require(msg.sender.balance > 0 ether,\"Your wallet don have money\");\r\n        require(msg.value > 0 ether,\"Your amount funded is invalid, please spend more ETH\");\r\n        \r\n        users[msg.sender] = Competitor(\r\n                            msg.sender, users[msg.sender].amount, \r\n                            users[msg.sender].wins, \r\n                            users[msg.sender].amountWins,\r\n                            users[msg.sender].betUpPrediction,\r\n                            users[msg.sender].betDownPrediction,\r\n                            users[msg.sender].betAmountUpPrediction,\r\n                            users[msg.sender].betAmountDownPrediction\r\n                            );\r\n\r\n        users[msg.sender].amount += msg.value ;\r\n        usersAddress.push(msg.sender);\r\n\r\n        emit Deposit(msg.sender,msg.value);\r\n    }\r\n\r\n    function userWithdrawall (uint256 _amountWithdrawall) public {\r\n        require(_amountWithdrawall != 0,\"You cant withdraw 0\");        \r\n        require(_amountWithdrawall <= users[msg.sender].amount && users[msg.sender].amount > 0,\"You cant withdraw more money than you have\");\r\n        \r\n\r\n        users[msg.sender].amount -= _amountWithdrawall;\r\n        payable(msg.sender).transfer(_amountWithdrawall);\r\n\r\n        emit withdraw(msg.sender, _amountWithdrawall);\r\n    }      \r\n\r\n    function ownerWithdrawall (uint256 _amountWithdrawall) public OnlyOwner{\r\n        require(_amountWithdrawall != 0,\"You cant withdraw 0\");   \r\n        require(_amountWithdrawall <= Owner_Profits,\"You cant withdraw more money than you have\"); \r\n\r\n        Owner_Profits -= _amountWithdrawall;\r\n        payable(Owner_Contract).transfer(_amountWithdrawall);\r\n\r\n        emit withdraw(msg.sender, _amountWithdrawall);\r\n    }\r\n\r\n    function userDeposit() public view returns(uint256){\r\n        return users[msg.sender].amount;\r\n    }\r\n\r\n    function userWins() public view returns(uint256){\r\n        return users[msg.sender].wins;\r\n    }\r\n\r\n    function userProfits() public view returns(uint256){\r\n        return users[msg.sender].amountWins;\r\n    }\r\n\r\n}\r\n\r\ncontract Prediction is Lottery {\r\n\r\n    AggregatorV3Interface internal priceFeed;\r\n\r\n    constructor() {\r\n        //BNB Chain TestNet\r\n        //BNB/USD\r\n\r\n        priceFeed = AggregatorV3Interface(\r\n            0x2514895c72f50D8bd4B4F9b1110F0D6bD2c97526\r\n        );\r\n    }\r\n    \r\n    uint256 private Bet_Up;\r\n    uint256 private Bet_Down;    \r\n\r\n    uint256 private Bet_Up_Factor;\r\n    uint256 private Bet_Down_Factor;\r\n\r\n    int private ActualPrice; //Alimentado por chainlink\r\n    int private PriceLocked; // Precio Bloqueado desde chainlink\r\n\r\n    uint256 private timeLocked;\r\n\r\n    event betPriceUp (address, uint256);\r\n    event betPriceDown (address, uint256);\r\n\r\n    function priceUp (uint256 _betAmount) public {\r\n        require(_betAmount > 100 wei, \"You should bet more\");\r\n        require(users[msg.sender].amount > 0 && users[msg.sender].amount >= _betAmount,\"You dont have enough balance\");\r\n\r\n        uint256  _Owner_Profits;\r\n        users[msg.sender].amount -= _betAmount;\r\n        _Owner_Profits = (_betAmount*OWNER_FEE)/100;\r\n        _betAmount -= _Owner_Profits;\r\n        Owner_Profits += _Owner_Profits;\r\n        Bet_Up += _betAmount;\r\n        calculateBetFactor();\r\n\r\n        users[msg.sender].betUpPrediction = true;\r\n        users[msg.sender].betAmountUpPrediction += _betAmount;\r\n\r\n        emit betPriceUp (msg.sender, _betAmount);\r\n    }\r\n\r\n    function priceDown (uint256 _betAmount) public {\r\n        require(_betAmount > 100 wei, \"You should bet more\");\r\n        require(users[msg.sender].amount > 0 && users[msg.sender].amount >= _betAmount,\"You dont have enough balance\");\r\n\r\n        uint256  _Owner_Profits;\r\n        users[msg.sender].amount -= _betAmount;\r\n        _Owner_Profits = (_betAmount*OWNER_FEE)/100;\r\n        _betAmount -= _Owner_Profits;\r\n        Owner_Profits += _Owner_Profits;\r\n        Bet_Down += _betAmount;\r\n        calculateBetFactor();\r\n\r\n        users[msg.sender].betDownPrediction = true;\r\n        users[msg.sender].betAmountDownPrediction += _betAmount;\r\n\r\n        emit betPriceDown (msg.sender, _betAmount);\r\n    }    \r\n\r\n    function calculateBetFactor() private {\r\n\r\n        if(Bet_Up != 0){\r\n            Bet_Up_Factor = (betTotalPrediction() * 1 ether )/ Bet_Up ;\r\n        }\r\n        if(Bet_Down != 0){\r\n            Bet_Down_Factor = (betTotalPrediction() * 1 ether)/ Bet_Down;\r\n        }     \r\n\r\n    }\r\n\r\n    function betTotalPrediction() public view returns(uint256){\r\n        return (Bet_Up + Bet_Down);\r\n    }\r\n\r\n    function priceLocked(/*int _price*/) private {// Precio Bloqueado desde chainlink\r\n        timeLocked = block.timestamp;\r\n        //PriceLocked = _price;\r\n        (,PriceLocked,,,) =priceFeed.latestRoundData(); \r\n    }\r\n\r\n    function actualPrice(/*int _price*/) private {// Alimentado por chainlink\r\n\r\n        //ActualPrice =_price;        \r\n        (,ActualPrice,,,) =priceFeed.latestRoundData(); \r\n    }\r\n\r\n    \r\n\r\n    function betUpFactor() public view returns(uint256){\r\n        return Bet_Up_Factor;\r\n    }\r\n\r\n    function betDownFactor() public view returns(uint256){\r\n        return Bet_Down_Factor;\r\n    }\r\n\r\n    function RewardsCalculated() public OnlyOwner{ //Solo puede ser ejecutada en el tiempo correcto - revisar esto     \r\n\r\n        require(block.timestamp >= (timeLocked + 5 minutes),\"The time isnt now\");\r\n        actualPrice();\r\n\r\n        if(checkBalance()){\r\n            if(ActualPrice > PriceLocked){ \r\n                for(uint256 i=0; i <usersAddress.length; i++){\r\n                    if(users[usersAddress[i]].betUpPrediction && users[usersAddress[i]].betAmountUpPrediction > 0 && users[usersAddress[i]].betAmountUpPrediction <= betTotalPrediction()){\r\n                        users[usersAddress[i]].amount += (users[usersAddress[i]].betAmountUpPrediction * Bet_Up_Factor) / 1 ether;\r\n                        users[usersAddress[i]].betAmountUpPrediction = 0;\r\n                        users[usersAddress[i]].betUpPrediction = false;                        \r\n                    }\r\n                    if(users[usersAddress[i]].betDownPrediction){\r\n                        users[usersAddress[i]].betAmountDownPrediction = 0;\r\n                        users[usersAddress[i]].betDownPrediction = false;                        \r\n                    }\r\n\r\n                }\r\n            }\r\n            if(ActualPrice < PriceLocked){ \r\n                for(uint256 i=0; i <usersAddress.length; i++){\r\n                    if(users[usersAddress[i]].betDownPrediction && users[usersAddress[i]].betAmountDownPrediction > 0 && users[usersAddress[i]].betAmountDownPrediction <= betTotalPrediction()){\r\n                        users[usersAddress[i]].amount += (users[usersAddress[i]].betAmountDownPrediction * Bet_Down_Factor) / 1 ether;\r\n                        users[usersAddress[i]].betAmountDownPrediction = 0;\r\n                        users[usersAddress[i]].betDownPrediction = false;                        \r\n                    }\r\n                    if(users[usersAddress[i]].betUpPrediction){\r\n                        users[usersAddress[i]].betAmountUpPrediction = 0;\r\n                        users[usersAddress[i]].betUpPrediction = false;                       \r\n                    }\r\n\r\n                }\r\n                \r\n            }\r\n            if(actualPrice == priceLocked){          \r\n                \r\n                for(uint256 i=0; i <usersAddress.length; i++){\r\n                    users[usersAddress[i]].amount += users[usersAddress[i]].betAmountUpPrediction  ;\r\n                    users[usersAddress[i]].betAmountUpPrediction = 0;\r\n                    users[usersAddress[i]].betUpPrediction = false;\r\n\r\n                    users[usersAddress[i]].amount += users[usersAddress[i]].betAmountDownPrediction ;\r\n                    users[usersAddress[i]].betAmountDownPrediction = 0;\r\n                    users[usersAddress[i]].betDownPrediction = false;\r\n                }\r\n                \r\n            }    \r\n            Bet_Up=0;\r\n            Bet_Up_Factor=0;\r\n            Bet_Down=0;\r\n            Bet_Down_Factor=0;\r\n\r\n            priceLocked();\r\n        }    \r\n\r\n    }\r\n\r\n    function checkBalance() public view returns(bool){\r\n            uint256 _checkedBalance;\r\n            bool _checkedBalanceFlag = false;\r\n\r\n            for(uint256 i=0; i <usersAddress.length; i++){\r\n                _checkedBalance += users[usersAddress[i]].betAmountUpPrediction + users[usersAddress[i]].betAmountDownPrediction;\r\n            }\r\n            \r\n            if(_checkedBalance == betTotalPrediction()){_checkedBalanceFlag = true;}\r\n            else{_checkedBalanceFlag = false;}\r\n\r\n            return _checkedBalanceFlag;\r\n        }\r\n\r\n\r\n\r\n}",
  "sourcePath": "D:\\Documentos\\Visual\\LoteriaV2\\PrimerPrograma\\lottery-dapp\\src\\contracts\\Lottery.sol",
  "compiler": {
    "name": "solc",
    "version": "0.8.10+commit.fc410830.Emscripten.clang"
  },
  "schemaVersion": "3.4.3",
  "updatedAt": "2022-12-13T21:24:53.163Z",
  "networkType": "ethereum",
  "devdoc": {
    "kind": "dev",
    "methods": {},
    "version": 1
  },
  "userdoc": {
    "kind": "user",
    "methods": {},
    "version": 1
  }
}