{
  "contractName": "Prediction",
  "abi": [
    {
      "inputs": [],
      "stateMutability": "nonpayable",
      "type": "constructor"
    },
    {
      "anonymous": false,
      "inputs": [
        {
          "indexed": false,
          "internalType": "address",
          "name": "",
          "type": "address"
        },
        {
          "indexed": false,
          "internalType": "uint256",
          "name": "",
          "type": "uint256"
        }
      ],
      "name": "Deposit",
      "type": "event"
    },
    {
      "anonymous": false,
      "inputs": [
        {
          "indexed": false,
          "internalType": "address",
          "name": "",
          "type": "address"
        },
        {
          "indexed": false,
          "internalType": "uint256",
          "name": "",
          "type": "uint256"
        }
      ],
      "name": "betPriceDown",
      "type": "event"
    },
    {
      "anonymous": false,
      "inputs": [
        {
          "indexed": false,
          "internalType": "address",
          "name": "",
          "type": "address"
        },
        {
          "indexed": false,
          "internalType": "uint256",
          "name": "",
          "type": "uint256"
        }
      ],
      "name": "betPriceUp",
      "type": "event"
    },
    {
      "anonymous": false,
      "inputs": [
        {
          "indexed": false,
          "internalType": "address",
          "name": "",
          "type": "address"
        },
        {
          "indexed": false,
          "internalType": "uint256",
          "name": "",
          "type": "uint256"
        }
      ],
      "name": "withdraw",
      "type": "event"
    },
    {
      "inputs": [],
      "name": "Contract_Address",
      "outputs": [
        {
          "internalType": "address",
          "name": "",
          "type": "address"
        }
      ],
      "stateMutability": "view",
      "type": "function",
      "constant": true
    },
    {
      "inputs": [],
      "name": "OWNER_FEE",
      "outputs": [
        {
          "internalType": "uint256",
          "name": "",
          "type": "uint256"
        }
      ],
      "stateMutability": "view",
      "type": "function",
      "constant": true
    },
    {
      "inputs": [],
      "name": "Owner_Contract",
      "outputs": [
        {
          "internalType": "address",
          "name": "",
          "type": "address"
        }
      ],
      "stateMutability": "view",
      "type": "function",
      "constant": true
    },
    {
      "inputs": [],
      "name": "Owner_Profits",
      "outputs": [
        {
          "internalType": "uint256",
          "name": "",
          "type": "uint256"
        }
      ],
      "stateMutability": "view",
      "type": "function",
      "constant": true
    },
    {
      "inputs": [
        {
          "internalType": "uint256",
          "name": "_fee",
          "type": "uint256"
        }
      ],
      "name": "changeOwnerFee",
      "outputs": [],
      "stateMutability": "nonpayable",
      "type": "function"
    },
    {
      "inputs": [
        {
          "internalType": "uint256",
          "name": "_amountWithdrawall",
          "type": "uint256"
        }
      ],
      "name": "ownerWithdrawall",
      "outputs": [],
      "stateMutability": "nonpayable",
      "type": "function"
    },
    {
      "inputs": [],
      "name": "userDeposit",
      "outputs": [
        {
          "internalType": "uint256",
          "name": "",
          "type": "uint256"
        }
      ],
      "stateMutability": "view",
      "type": "function",
      "constant": true
    },
    {
      "inputs": [],
      "name": "userFunding",
      "outputs": [],
      "stateMutability": "payable",
      "type": "function",
      "payable": true
    },
    {
      "inputs": [],
      "name": "userProfits",
      "outputs": [
        {
          "internalType": "uint256",
          "name": "",
          "type": "uint256"
        }
      ],
      "stateMutability": "view",
      "type": "function",
      "constant": true
    },
    {
      "inputs": [],
      "name": "userWins",
      "outputs": [
        {
          "internalType": "uint256",
          "name": "",
          "type": "uint256"
        }
      ],
      "stateMutability": "view",
      "type": "function",
      "constant": true
    },
    {
      "inputs": [
        {
          "internalType": "uint256",
          "name": "_amountWithdrawall",
          "type": "uint256"
        }
      ],
      "name": "userWithdrawall",
      "outputs": [],
      "stateMutability": "nonpayable",
      "type": "function"
    },
    {
      "inputs": [
        {
          "internalType": "address",
          "name": "",
          "type": "address"
        }
      ],
      "name": "users",
      "outputs": [
        {
          "internalType": "address",
          "name": "funder",
          "type": "address"
        },
        {
          "internalType": "uint256",
          "name": "amount",
          "type": "uint256"
        },
        {
          "internalType": "uint256",
          "name": "wins",
          "type": "uint256"
        },
        {
          "internalType": "uint256",
          "name": "amountWins",
          "type": "uint256"
        },
        {
          "internalType": "bool",
          "name": "betUpPrediction",
          "type": "bool"
        },
        {
          "internalType": "bool",
          "name": "betDownPrediction",
          "type": "bool"
        },
        {
          "internalType": "uint256",
          "name": "betAmountUpPrediction",
          "type": "uint256"
        },
        {
          "internalType": "uint256",
          "name": "betAmountDownPrediction",
          "type": "uint256"
        }
      ],
      "stateMutability": "view",
      "type": "function",
      "constant": true
    },
    {
      "inputs": [
        {
          "internalType": "uint256",
          "name": "",
          "type": "uint256"
        }
      ],
      "name": "usersAddress",
      "outputs": [
        {
          "internalType": "address",
          "name": "",
          "type": "address"
        }
      ],
      "stateMutability": "view",
      "type": "function",
      "constant": true
    },
    {
      "stateMutability": "payable",
      "type": "receive",
      "payable": true
    },
    {
      "inputs": [
        {
          "internalType": "uint256",
          "name": "_betAmount",
          "type": "uint256"
        }
      ],
      "name": "priceUp",
      "outputs": [],
      "stateMutability": "nonpayable",
      "type": "function"
    },
    {
      "inputs": [
        {
          "internalType": "uint256",
          "name": "_betAmount",
          "type": "uint256"
        }
      ],
      "name": "priceDown",
      "outputs": [],
      "stateMutability": "nonpayable",
      "type": "function"
    },
    {
      "inputs": [],
      "name": "betTotalPrediction",
      "outputs": [
        {
          "internalType": "uint256",
          "name": "",
          "type": "uint256"
        }
      ],
      "stateMutability": "view",
      "type": "function",
      "constant": true
    },
    {
      "inputs": [],
      "name": "priceLoked",
      "outputs": [
        {
          "internalType": "int256",
          "name": "",
          "type": "int256"
        }
      ],
      "stateMutability": "view",
      "type": "function",
      "constant": true
    },
    {
      "inputs": [],
      "name": "timeLoked",
      "outputs": [
        {
          "internalType": "uint256",
          "name": "",
          "type": "uint256"
        }
      ],
      "stateMutability": "view",
      "type": "function",
      "constant": true
    },
    {
      "inputs": [],
      "name": "pricePair",
      "outputs": [
        {
          "internalType": "int256",
          "name": "",
          "type": "int256"
        }
      ],
      "stateMutability": "view",
      "type": "function",
      "constant": true
    },
    {
      "inputs": [],
      "name": "betUpFactor",
      "outputs": [
        {
          "internalType": "uint256",
          "name": "",
          "type": "uint256"
        }
      ],
      "stateMutability": "view",
      "type": "function",
      "constant": true
    },
    {
      "inputs": [],
      "name": "betDownFactor",
      "outputs": [
        {
          "internalType": "uint256",
          "name": "",
          "type": "uint256"
        }
      ],
      "stateMutability": "view",
      "type": "function",
      "constant": true
    },
    {
      "inputs": [],
      "name": "RewardsCalculated",
      "outputs": [],
      "stateMutability": "nonpayable",
      "type": "function"
    },
    {
      "inputs": [],
      "name": "checkBalance",
      "outputs": [
        {
          "internalType": "bool",
          "name": "",
          "type": "bool"
        }
      ],
      "stateMutability": "view",
      "type": "function",
      "constant": true
    }
  ],
  "bytecode": "0x60806040526002805534801561001457600080fd5b50336000806101000a81548173ffffffffffffffffffffffffffffffffffffffff021916908373ffffffffffffffffffffffffffffffffffffffff16021790555030600160006101000a81548173ffffffffffffffffffffffffffffffffffffffff021916908373ffffffffffffffffffffffffffffffffffffffff160217905550732514895c72f50d8bd4b4f9b1110f0d6bd2c97526600660006101000a81548173ffffffffffffffffffffffffffffffffffffffff021916908373ffffffffffffffffffffffffffffffffffffffff1602179055506135a0806100fa6000396000f3fe6080604052600436106101445760003560e01c8063863a6629116100b6578063a87430ba1161006f578063a87430ba1461043b578063b065b79a1461047f578063c71daccb146104a8578063cd0a3692146104d3578063cf147c05146104fe578063e16f66d41461052957610184565b8063863a662914610351578063880df1901461037c5780639b7d17c9146103a7578063a1ea8cd5146103d0578063a2c86962146103e7578063a5d048081461041257610184565b80635dab0fe3116101085780635dab0fe314610270578063731d44801461029b5780637b12df39146102c65780637d58b9e9146102f15780637e84a7d81461031c57806381648ba01461032657610184565b80630b28a86f146101895780631ebb7036146101b25780632c91324c146101dd578063481461131461021a57806357e113e01461024557610184565b36610184577fe1fffcc4923d04b559f4d29a8bfc6cda04eb5b0d3c460751c2402c5c5cc9109c333460405161017a929190612c0e565b60405180910390a1005b600080fd5b34801561019557600080fd5b506101b060048036038101906101ab9190612c68565b610552565b005b3480156101be57600080fd5b506101c7610818565b6040516101d49190612c95565b60405180910390f35b3480156101e957600080fd5b5061020460048036038101906101ff9190612c68565b610822565b6040516102119190612cb0565b60405180910390f35b34801561022657600080fd5b5061022f610861565b60405161023c9190612c95565b60405180910390f35b34801561025157600080fd5b5061025a6108ab565b6040516102679190612c95565b60405180910390f35b34801561027c57600080fd5b506102856108c2565b6040516102929190612c95565b60405180910390f35b3480156102a757600080fd5b506102b06108c8565b6040516102bd9190612c95565b60405180910390f35b3480156102d257600080fd5b506102db6108d2565b6040516102e89190612c95565b60405180910390f35b3480156102fd57600080fd5b5061030661091c565b6040516103139190612ce4565b60405180910390f35b610324610926565b005b34801561033257600080fd5b5061033b610df1565b6040516103489190612c95565b60405180910390f35b34801561035d57600080fd5b50610366610dfb565b6040516103739190612ce4565b60405180910390f35b34801561038857600080fd5b50610391610ea5565b60405161039e9190612c95565b60405180910390f35b3480156103b357600080fd5b506103ce60048036038101906103c99190612c68565b610eef565b005b3480156103dc57600080fd5b506103e56110c2565b005b3480156103f357600080fd5b506103fc612260565b6040516104099190612c95565b60405180910390f35b34801561041e57600080fd5b5061043960048036038101906104349190612c68565b612266565b005b34801561044757600080fd5b50610462600480360381019061045d9190612d2b565b61252c565b604051610476989796959493929190612d73565b60405180910390f35b34801561048b57600080fd5b506104a660048036038101906104a19190612c68565b6125ae565b005b3480156104b457600080fd5b506104bd6127a1565b6040516104ca9190612df1565b60405180910390f35b3480156104df57600080fd5b506104e8612907565b6040516104f59190612cb0565b60405180910390f35b34801561050a57600080fd5b5061051361292d565b6040516105209190612cb0565b60405180910390f35b34801561053557600080fd5b50610550600480360381019061054b9190612c68565b612951565b005b60648111610595576040517f08c379a000000000000000000000000000000000000000000000000000000000815260040161058c90612e69565b60405180910390fd5b6000600460003373ffffffffffffffffffffffffffffffffffffffff1673ffffffffffffffffffffffffffffffffffffffff16815260200190815260200160002060010154118015610629575080600460003373ffffffffffffffffffffffffffffffffffffffff1673ffffffffffffffffffffffffffffffffffffffff1681526020019081526020016000206001015410155b610668576040517f08c379a000000000000000000000000000000000000000000000000000000000815260040161065f90612ed5565b60405180910390fd5b600081600460003373ffffffffffffffffffffffffffffffffffffffff1673ffffffffffffffffffffffffffffffffffffffff16815260200190815260200160002060010160008282546106bc9190612f24565b925050819055506064600254836106d39190612f58565b6106dd9190612fe1565b905080826106eb9190612f24565b915080600360008282546106ff9190613012565b9250508190555081600860008282546107189190613012565b925050819055506107276129e9565b6001600460003373ffffffffffffffffffffffffffffffffffffffff1673ffffffffffffffffffffffffffffffffffffffff16815260200190815260200160002060040160016101000a81548160ff02191690831515021790555081600460003373ffffffffffffffffffffffffffffffffffffffff1673ffffffffffffffffffffffffffffffffffffffff16815260200190815260200160002060060160008282546107d49190613012565b925050819055507ff711f01ae5de38645cc7107885d9a6b83d2c8b8f45e43564ae4cdc174db2976f338360405161080c929190612c0e565b60405180910390a15050565b6000600d54905090565b6005818154811061083257600080fd5b906000526020600020016000915054906101000a900473ffffffffffffffffffffffffffffffffffffffff1681565b6000600460003373ffffffffffffffffffffffffffffffffffffffff1673ffffffffffffffffffffffffffffffffffffffff16815260200190815260200160002060010154905090565b60006008546007546108bd9190613012565b905090565b60025481565b6000600954905090565b6000600460003373ffffffffffffffffffffffffffffffffffffffff1673ffffffffffffffffffffffffffffffffffffffff16815260200190815260200160002060030154905090565b6000600c54905090565b60003373ffffffffffffffffffffffffffffffffffffffff163111610980576040517f08c379a0000000000000000000000000000000000000000000000000000000008152600401610977906130b4565b60405180910390fd5b600034116109c3576040517f08c379a00000000000000000000000000000000000000000000000000000000081526004016109ba90613146565b60405180910390fd5b6040518061010001604052803373ffffffffffffffffffffffffffffffffffffffff168152602001600460003373ffffffffffffffffffffffffffffffffffffffff1673ffffffffffffffffffffffffffffffffffffffff168152602001908152602001600020600101548152602001600460003373ffffffffffffffffffffffffffffffffffffffff1673ffffffffffffffffffffffffffffffffffffffff168152602001908152602001600020600201548152602001600460003373ffffffffffffffffffffffffffffffffffffffff1673ffffffffffffffffffffffffffffffffffffffff168152602001908152602001600020600301548152602001600460003373ffffffffffffffffffffffffffffffffffffffff1673ffffffffffffffffffffffffffffffffffffffff16815260200190815260200160002060040160009054906101000a900460ff1615158152602001600460003373ffffffffffffffffffffffffffffffffffffffff1673ffffffffffffffffffffffffffffffffffffffff16815260200190815260200160002060040160019054906101000a900460ff1615158152602001600460003373ffffffffffffffffffffffffffffffffffffffff1673ffffffffffffffffffffffffffffffffffffffff168152602001908152602001600020600501548152602001600460003373ffffffffffffffffffffffffffffffffffffffff1673ffffffffffffffffffffffffffffffffffffffff16815260200190815260200160002060060154815250600460003373ffffffffffffffffffffffffffffffffffffffff1673ffffffffffffffffffffffffffffffffffffffff16815260200190815260200160002060008201518160000160006101000a81548173ffffffffffffffffffffffffffffffffffffffff021916908373ffffffffffffffffffffffffffffffffffffffff16021790555060208201518160010155604082015181600201556060820151816003015560808201518160040160006101000a81548160ff02191690831515021790555060a08201518160040160016101000a81548160ff02191690831515021790555060c0820151816005015560e0820151816006015590505034600460003373ffffffffffffffffffffffffffffffffffffffff1673ffffffffffffffffffffffffffffffffffffffff1681526020019081526020016000206001016000828254610d4c9190613012565b925050819055506005339080600181540180825580915050600190039060005260206000200160009091909190916101000a81548173ffffffffffffffffffffffffffffffffffffffff021916908373ffffffffffffffffffffffffffffffffffffffff1602179055507fe1fffcc4923d04b559f4d29a8bfc6cda04eb5b0d3c460751c2402c5c5cc9109c3334604051610de7929190612c0e565b60405180910390a1565b6000600a54905090565b600080600660009054906101000a900473ffffffffffffffffffffffffffffffffffffffff1673ffffffffffffffffffffffffffffffffffffffff1663feaf968c6040518163ffffffff1660e01b815260040160a060405180830381865afa158015610e6b573d6000803e3d6000fd5b505050506040513d601f19601f82011682018060405250810190610e8f91906131e9565b9091929350909150905050809150508091505090565b6000600460003373ffffffffffffffffffffffffffffffffffffffff1673ffffffffffffffffffffffffffffffffffffffff16815260200190815260200160002060020154905090565b60008054906101000a900473ffffffffffffffffffffffffffffffffffffffff1673ffffffffffffffffffffffffffffffffffffffff163373ffffffffffffffffffffffffffffffffffffffff1614610f7d576040517f08c379a0000000000000000000000000000000000000000000000000000000008152600401610f74906132d6565b60405180910390fd5b6000811415610fc1576040517f08c379a0000000000000000000000000000000000000000000000000000000008152600401610fb890613342565b60405180910390fd5b600354811115611006576040517f08c379a0000000000000000000000000000000000000000000000000000000008152600401610ffd906133d4565b60405180910390fd5b80600360008282546110189190612f24565b9250508190555060008054906101000a900473ffffffffffffffffffffffffffffffffffffffff1673ffffffffffffffffffffffffffffffffffffffff166108fc829081150290604051600060405180830381858888f19350505050158015611085573d6000803e3d6000fd5b507ff3fef3a3f44f9c277339b67d54f015748bd8d6b77a985b0ab6e71126b018c34a33826040516110b7929190612c0e565b60405180910390a150565b60008054906101000a900473ffffffffffffffffffffffffffffffffffffffff1673ffffffffffffffffffffffffffffffffffffffff163373ffffffffffffffffffffffffffffffffffffffff1614611150576040517f08c379a000000000000000000000000000000000000000000000000000000000815260040161114790613466565b60405180910390fd5b61012c600d546111609190613012565b4210156111a2576040517f08c379a0000000000000000000000000000000000000000000000000000000008152600401611199906134d2565b60405180910390fd5b6111aa612a5d565b6111b26127a1565b1561225e57600c54600b5413156117a45760005b6005805490508110156117a25760046000600583815481106111eb576111ea6134f2565b5b9060005260206000200160009054906101000a900473ffffffffffffffffffffffffffffffffffffffff1673ffffffffffffffffffffffffffffffffffffffff1673ffffffffffffffffffffffffffffffffffffffff16815260200190815260200160002060040160009054906101000a900460ff1680156112ed575060006004600060058481548110611282576112816134f2565b5b9060005260206000200160009054906101000a900473ffffffffffffffffffffffffffffffffffffffff1673ffffffffffffffffffffffffffffffffffffffff1673ffffffffffffffffffffffffffffffffffffffff16815260200190815260200160002060050154115b801561138057506112fc6108ab565b6004600060058481548110611314576113136134f2565b5b9060005260206000200160009054906101000a900473ffffffffffffffffffffffffffffffffffffffff1673ffffffffffffffffffffffffffffffffffffffff1673ffffffffffffffffffffffffffffffffffffffff1681526020019081526020016000206005015411155b156115dc57670de0b6b3a764000060095460046000600585815481106113a9576113a86134f2565b5b9060005260206000200160009054906101000a900473ffffffffffffffffffffffffffffffffffffffff1673ffffffffffffffffffffffffffffffffffffffff1673ffffffffffffffffffffffffffffffffffffffff1681526020019081526020016000206005015461141c9190612f58565b6114269190612fe1565b600460006005848154811061143e5761143d6134f2565b5b9060005260206000200160009054906101000a900473ffffffffffffffffffffffffffffffffffffffff1673ffffffffffffffffffffffffffffffffffffffff1673ffffffffffffffffffffffffffffffffffffffff16815260200190815260200160002060010160008282546114b59190613012565b92505081905550600060046000600584815481106114d6576114d56134f2565b5b9060005260206000200160009054906101000a900473ffffffffffffffffffffffffffffffffffffffff1673ffffffffffffffffffffffffffffffffffffffff1673ffffffffffffffffffffffffffffffffffffffff168152602001908152602001600020600501819055506000600460006005848154811061155c5761155b6134f2565b5b9060005260206000200160009054906101000a900473ffffffffffffffffffffffffffffffffffffffff1673ffffffffffffffffffffffffffffffffffffffff1673ffffffffffffffffffffffffffffffffffffffff16815260200190815260200160002060040160006101000a81548160ff0219169083151502179055505b60046000600583815481106115f4576115f36134f2565b5b9060005260206000200160009054906101000a900473ffffffffffffffffffffffffffffffffffffffff1673ffffffffffffffffffffffffffffffffffffffff1673ffffffffffffffffffffffffffffffffffffffff16815260200190815260200160002060040160019054906101000a900460ff161561178f5760006004600060058481548110611689576116886134f2565b5b9060005260206000200160009054906101000a900473ffffffffffffffffffffffffffffffffffffffff1673ffffffffffffffffffffffffffffffffffffffff1673ffffffffffffffffffffffffffffffffffffffff168152602001908152602001600020600601819055506000600460006005848154811061170f5761170e6134f2565b5b9060005260206000200160009054906101000a900473ffffffffffffffffffffffffffffffffffffffff1673ffffffffffffffffffffffffffffffffffffffff1673ffffffffffffffffffffffffffffffffffffffff16815260200190815260200160002060040160016101000a81548160ff0219169083151502179055505b808061179a90613521565b9150506111c6565b505b600c54600b541215611d915760005b600580549050811015611d8f5760046000600583815481106117d8576117d76134f2565b5b9060005260206000200160009054906101000a900473ffffffffffffffffffffffffffffffffffffffff1673ffffffffffffffffffffffffffffffffffffffff1673ffffffffffffffffffffffffffffffffffffffff16815260200190815260200160002060040160019054906101000a900460ff1680156118da57506000600460006005848154811061186f5761186e6134f2565b5b9060005260206000200160009054906101000a900473ffffffffffffffffffffffffffffffffffffffff1673ffffffffffffffffffffffffffffffffffffffff1673ffffffffffffffffffffffffffffffffffffffff16815260200190815260200160002060060154115b801561196d57506118e96108ab565b6004600060058481548110611901576119006134f2565b5b9060005260206000200160009054906101000a900473ffffffffffffffffffffffffffffffffffffffff1673ffffffffffffffffffffffffffffffffffffffff1673ffffffffffffffffffffffffffffffffffffffff1681526020019081526020016000206006015411155b15611bc957670de0b6b3a7640000600a546004600060058581548110611996576119956134f2565b5b9060005260206000200160009054906101000a900473ffffffffffffffffffffffffffffffffffffffff1673ffffffffffffffffffffffffffffffffffffffff1673ffffffffffffffffffffffffffffffffffffffff16815260200190815260200160002060060154611a099190612f58565b611a139190612fe1565b6004600060058481548110611a2b57611a2a6134f2565b5b9060005260206000200160009054906101000a900473ffffffffffffffffffffffffffffffffffffffff1673ffffffffffffffffffffffffffffffffffffffff1673ffffffffffffffffffffffffffffffffffffffff1681526020019081526020016000206001016000828254611aa29190613012565b9250508190555060006004600060058481548110611ac357611ac26134f2565b5b9060005260206000200160009054906101000a900473ffffffffffffffffffffffffffffffffffffffff1673ffffffffffffffffffffffffffffffffffffffff1673ffffffffffffffffffffffffffffffffffffffff1681526020019081526020016000206006018190555060006004600060058481548110611b4957611b486134f2565b5b9060005260206000200160009054906101000a900473ffffffffffffffffffffffffffffffffffffffff1673ffffffffffffffffffffffffffffffffffffffff1673ffffffffffffffffffffffffffffffffffffffff16815260200190815260200160002060040160016101000a81548160ff0219169083151502179055505b6004600060058381548110611be157611be06134f2565b5b9060005260206000200160009054906101000a900473ffffffffffffffffffffffffffffffffffffffff1673ffffffffffffffffffffffffffffffffffffffff1673ffffffffffffffffffffffffffffffffffffffff16815260200190815260200160002060040160009054906101000a900460ff1615611d7c5760006004600060058481548110611c7657611c756134f2565b5b9060005260206000200160009054906101000a900473ffffffffffffffffffffffffffffffffffffffff1673ffffffffffffffffffffffffffffffffffffffff1673ffffffffffffffffffffffffffffffffffffffff1681526020019081526020016000206005018190555060006004600060058481548110611cfc57611cfb6134f2565b5b9060005260206000200160009054906101000a900473ffffffffffffffffffffffffffffffffffffffff1673ffffffffffffffffffffffffffffffffffffffff1673ffffffffffffffffffffffffffffffffffffffff16815260200190815260200160002060040160006101000a81548160ff0219169083151502179055505b8080611d8790613521565b9150506117b3565b505b612b05612a5d9063ffffffff1614156122355760005b600580549050811015612233576004600060058381548110611dcc57611dcb6134f2565b5b9060005260206000200160009054906101000a900473ffffffffffffffffffffffffffffffffffffffff1673ffffffffffffffffffffffffffffffffffffffff1673ffffffffffffffffffffffffffffffffffffffff168152602001908152602001600020600501546004600060058481548110611e4d57611e4c6134f2565b5b9060005260206000200160009054906101000a900473ffffffffffffffffffffffffffffffffffffffff1673ffffffffffffffffffffffffffffffffffffffff1673ffffffffffffffffffffffffffffffffffffffff1681526020019081526020016000206001016000828254611ec49190613012565b9250508190555060006004600060058481548110611ee557611ee46134f2565b5b9060005260206000200160009054906101000a900473ffffffffffffffffffffffffffffffffffffffff1673ffffffffffffffffffffffffffffffffffffffff1673ffffffffffffffffffffffffffffffffffffffff1681526020019081526020016000206005018190555060006004600060058481548110611f6b57611f6a6134f2565b5b9060005260206000200160009054906101000a900473ffffffffffffffffffffffffffffffffffffffff1673ffffffffffffffffffffffffffffffffffffffff1673ffffffffffffffffffffffffffffffffffffffff16815260200190815260200160002060040160006101000a81548160ff0219169083151502179055506004600060058381548110612002576120016134f2565b5b9060005260206000200160009054906101000a900473ffffffffffffffffffffffffffffffffffffffff1673ffffffffffffffffffffffffffffffffffffffff1673ffffffffffffffffffffffffffffffffffffffff168152602001908152602001600020600601546004600060058481548110612083576120826134f2565b5b9060005260206000200160009054906101000a900473ffffffffffffffffffffffffffffffffffffffff1673ffffffffffffffffffffffffffffffffffffffff1673ffffffffffffffffffffffffffffffffffffffff16815260200190815260200160002060010160008282546120fa9190613012565b925050819055506000600460006005848154811061211b5761211a6134f2565b5b9060005260206000200160009054906101000a900473ffffffffffffffffffffffffffffffffffffffff1673ffffffffffffffffffffffffffffffffffffffff1673ffffffffffffffffffffffffffffffffffffffff16815260200190815260200160002060060181905550600060046000600584815481106121a1576121a06134f2565b5b9060005260206000200160009054906101000a900473ffffffffffffffffffffffffffffffffffffffff1673ffffffffffffffffffffffffffffffffffffffff1673ffffffffffffffffffffffffffffffffffffffff16815260200190815260200160002060040160016101000a81548160ff021916908315150217905550808061222b90613521565b915050611da7565b505b6000600781905550600060098190555060006008819055506000600a8190555061225d612b05565b5b565b60035481565b606481116122a9576040517f08c379a00000000000000000000000000000000000000000000000000000000081526004016122a090612e69565b60405180910390fd5b6000600460003373ffffffffffffffffffffffffffffffffffffffff1673ffffffffffffffffffffffffffffffffffffffff1681526020019081526020016000206001015411801561233d575080600460003373ffffffffffffffffffffffffffffffffffffffff1673ffffffffffffffffffffffffffffffffffffffff1681526020019081526020016000206001015410155b61237c576040517f08c379a000000000000000000000000000000000000000000000000000000000815260040161237390612ed5565b60405180910390fd5b600081600460003373ffffffffffffffffffffffffffffffffffffffff1673ffffffffffffffffffffffffffffffffffffffff16815260200190815260200160002060010160008282546123d09190612f24565b925050819055506064600254836123e79190612f58565b6123f19190612fe1565b905080826123ff9190612f24565b915080600360008282546124139190613012565b92505081905550816007600082825461242c9190613012565b9250508190555061243b6129e9565b6001600460003373ffffffffffffffffffffffffffffffffffffffff1673ffffffffffffffffffffffffffffffffffffffff16815260200190815260200160002060040160006101000a81548160ff02191690831515021790555081600460003373ffffffffffffffffffffffffffffffffffffffff1673ffffffffffffffffffffffffffffffffffffffff16815260200190815260200160002060050160008282546124e89190613012565b925050819055507f671f01305b599ef1b0852f7a403578f70febad050931e5b911b400f98c0d92593383604051612520929190612c0e565b60405180910390a15050565b60046020528060005260406000206000915090508060000160009054906101000a900473ffffffffffffffffffffffffffffffffffffffff16908060010154908060020154908060030154908060040160009054906101000a900460ff16908060040160019054906101000a900460ff16908060050154908060060154905088565b60008114156125f2576040517f08c379a00000000000000000000000000000000000000000000000000000000081526004016125e990613342565b60405180910390fd5b600460003373ffffffffffffffffffffffffffffffffffffffff1673ffffffffffffffffffffffffffffffffffffffff16815260200190815260200160002060010154811115801561268657506000600460003373ffffffffffffffffffffffffffffffffffffffff1673ffffffffffffffffffffffffffffffffffffffff16815260200190815260200160002060010154115b6126c5576040517f08c379a00000000000000000000000000000000000000000000000000000000081526004016126bc906133d4565b60405180910390fd5b80600460003373ffffffffffffffffffffffffffffffffffffffff1673ffffffffffffffffffffffffffffffffffffffff16815260200190815260200160002060010160008282546127179190612f24565b925050819055503373ffffffffffffffffffffffffffffffffffffffff166108fc829081150290604051600060405180830381858888f19350505050158015612764573d6000803e3d6000fd5b507ff3fef3a3f44f9c277339b67d54f015748bd8d6b77a985b0ab6e71126b018c34a3382604051612796929190612c0e565b60405180910390a150565b6000806000805b6005805490508110156128e15760046000600583815481106127cd576127cc6134f2565b5b9060005260206000200160009054906101000a900473ffffffffffffffffffffffffffffffffffffffff1673ffffffffffffffffffffffffffffffffffffffff1673ffffffffffffffffffffffffffffffffffffffff16815260200190815260200160002060060154600460006005848154811061284e5761284d6134f2565b5b9060005260206000200160009054906101000a900473ffffffffffffffffffffffffffffffffffffffff1673ffffffffffffffffffffffffffffffffffffffff1673ffffffffffffffffffffffffffffffffffffffff168152602001908152602001600020600501546128c19190613012565b836128cc9190613012565b925080806128d990613521565b9150506127a8565b506128ea6108ab565b8214156128fa57600190506128ff565b600090505b809250505090565b600160009054906101000a900473ffffffffffffffffffffffffffffffffffffffff1681565b60008054906101000a900473ffffffffffffffffffffffffffffffffffffffff1681565b60008054906101000a900473ffffffffffffffffffffffffffffffffffffffff1673ffffffffffffffffffffffffffffffffffffffff163373ffffffffffffffffffffffffffffffffffffffff16146129df576040517f08c379a00000000000000000000000000000000000000000000000000000000081526004016129d6906132d6565b60405180910390fd5b8060028190555050565b600060075414612a2257600754670de0b6b3a7640000612a076108ab565b612a119190612f58565b612a1b9190612fe1565b6009819055505b600060085414612a5b57600854670de0b6b3a7640000612a406108ab565b612a4a9190612f58565b612a549190612fe1565b600a819055505b565b600660009054906101000a900473ffffffffffffffffffffffffffffffffffffffff1673ffffffffffffffffffffffffffffffffffffffff1663feaf968c6040518163ffffffff1660e01b815260040160a060405180830381865afa158015612aca573d6000803e3d6000fd5b505050506040513d601f19601f82011682018060405250810190612aee91906131e9565b9091929350909150905050600b6000829190505550565b42600d81905550600660009054906101000a900473ffffffffffffffffffffffffffffffffffffffff1673ffffffffffffffffffffffffffffffffffffffff1663feaf968c6040518163ffffffff1660e01b815260040160a060405180830381865afa158015612b79573d6000803e3d6000fd5b505050506040513d601f19601f82011682018060405250810190612b9d91906131e9565b9091929350909150905050600c6000829190505550565b600073ffffffffffffffffffffffffffffffffffffffff82169050919050565b6000612bdf82612bb4565b9050919050565b612bef81612bd4565b82525050565b6000819050919050565b612c0881612bf5565b82525050565b6000604082019050612c236000830185612be6565b612c306020830184612bff565b9392505050565b600080fd5b612c4581612bf5565b8114612c5057600080fd5b50565b600081359050612c6281612c3c565b92915050565b600060208284031215612c7e57612c7d612c37565b5b6000612c8c84828501612c53565b91505092915050565b6000602082019050612caa6000830184612bff565b92915050565b6000602082019050612cc56000830184612be6565b92915050565b6000819050919050565b612cde81612ccb565b82525050565b6000602082019050612cf96000830184612cd5565b92915050565b612d0881612bd4565b8114612d1357600080fd5b50565b600081359050612d2581612cff565b92915050565b600060208284031215612d4157612d40612c37565b5b6000612d4f84828501612d16565b91505092915050565b60008115159050919050565b612d6d81612d58565b82525050565b600061010082019050612d89600083018b612be6565b612d96602083018a612bff565b612da36040830189612bff565b612db06060830188612bff565b612dbd6080830187612d64565b612dca60a0830186612d64565b612dd760c0830185612bff565b612de460e0830184612bff565b9998505050505050505050565b6000602082019050612e066000830184612d64565b92915050565b600082825260208201905092915050565b7f596f752073686f756c6420626574206d6f726500000000000000000000000000600082015250565b6000612e53601383612e0c565b9150612e5e82612e1d565b602082019050919050565b60006020820190508181036000830152612e8281612e46565b9050919050565b7f596f7520646f6e74206861766520656e6f7567682062616c616e636500000000600082015250565b6000612ebf601c83612e0c565b9150612eca82612e89565b602082019050919050565b60006020820190508181036000830152612eee81612eb2565b9050919050565b7f4e487b7100000000000000000000000000000000000000000000000000000000600052601160045260246000fd5b6000612f2f82612bf5565b9150612f3a83612bf5565b925082821015612f4d57612f4c612ef5565b5b828203905092915050565b6000612f6382612bf5565b9150612f6e83612bf5565b9250817fffffffffffffffffffffffffffffffffffffffffffffffffffffffffffffffff0483118215151615612fa757612fa6612ef5565b5b828202905092915050565b7f4e487b7100000000000000000000000000000000000000000000000000000000600052601260045260246000fd5b6000612fec82612bf5565b9150612ff783612bf5565b92508261300757613006612fb2565b5b828204905092915050565b600061301d82612bf5565b915061302883612bf5565b9250827fffffffffffffffffffffffffffffffffffffffffffffffffffffffffffffffff0382111561305d5761305c612ef5565b5b828201905092915050565b7f596f75722077616c6c657420646f6e2068617665206d6f6e6579000000000000600082015250565b600061309e601a83612e0c565b91506130a982613068565b602082019050919050565b600060208201905081810360008301526130cd81613091565b9050919050565b7f596f757220616d6f756e742066756e64656420697320696e76616c69642c207060008201527f6c65617365207370656e64206d6f726520455448000000000000000000000000602082015250565b6000613130603483612e0c565b915061313b826130d4565b604082019050919050565b6000602082019050818103600083015261315f81613123565b9050919050565b600069ffffffffffffffffffff82169050919050565b61318581613166565b811461319057600080fd5b50565b6000815190506131a28161317c565b92915050565b6131b181612ccb565b81146131bc57600080fd5b50565b6000815190506131ce816131a8565b92915050565b6000815190506131e381612c3c565b92915050565b600080600080600060a0868803121561320557613204612c37565b5b600061321388828901613193565b9550506020613224888289016131bf565b9450506040613235888289016131d4565b9350506060613246888289016131d4565b925050608061325788828901613193565b9150509295509295909350565b7f596f75206172656e7420746865206f776e6572206f662074686973204c6f747460008201527f6572790000000000000000000000000000000000000000000000000000000000602082015250565b60006132c0602383612e0c565b91506132cb82613264565b604082019050919050565b600060208201905081810360008301526132ef816132b3565b9050919050565b7f596f752063616e74207769746864726177203000000000000000000000000000600082015250565b600061332c601383612e0c565b9150613337826132f6565b602082019050919050565b6000602082019050818103600083015261335b8161331f565b9050919050565b7f596f752063616e74207769746864726177206d6f7265206d6f6e65792074686160008201527f6e20796f75206861766500000000000000000000000000000000000000000000602082015250565b60006133be602a83612e0c565b91506133c982613362565b604082019050919050565b600060208201905081810360008301526133ed816133b1565b9050919050565b7f596f75206172656e7420746865206f776e6572206f662074686973204c6f747460008201527f6572792063686f6f73652074686520636f72726563742053656e646572000000602082015250565b6000613450603d83612e0c565b915061345b826133f4565b604082019050919050565b6000602082019050818103600083015261347f81613443565b9050919050565b7f5468652074696d652069736e74206e6f77000000000000000000000000000000600082015250565b60006134bc601183612e0c565b91506134c782613486565b602082019050919050565b600060208201905081810360008301526134eb816134af565b9050919050565b7f4e487b7100000000000000000000000000000000000000000000000000000000600052603260045260246000fd5b600061352c82612bf5565b91507fffffffffffffffffffffffffffffffffffffffffffffffffffffffffffffffff82141561355f5761355e612ef5565b5b60018201905091905056fea2646970667358221220aae26ab2aa7ca857833a94096c9995a3c00f664dee1de507f6935a19145f7ae664736f6c634300080a0033",
  "immutableReferences": {},
  "source": "// SPDX-License-Identifier: MIT\r\n\r\npragma solidity ^0.8.0;\r\n\r\nimport \"@openzeppelin/contracts/utils/math/SafeMath.sol\";\r\nimport \"@chainlink/contracts/src/v0.8/interfaces/AggregatorV3Interface.sol\";\r\n\r\ncontract Lottery {\r\n\r\n    using SafeMath for uint256;\r\n\r\n    constructor() {\r\n        Owner_Contract = msg.sender;\r\n        Contract_Address = address(this);\r\n    }\r\n\r\n    address public Owner_Contract;\r\n    address public Contract_Address;\r\n    uint256 public OWNER_FEE = 2;\r\n    uint256 public Owner_Profits;\r\n\r\n    mapping (address => Competitor) public users;\r\n\r\n    event Deposit (address, uint256) ;\r\n    event withdraw (address, uint256);\r\n\r\n    struct Competitor {\r\n        address funder;\r\n        uint256 amount;\r\n        uint256 wins;\r\n        uint256 amountWins;\r\n        bool betUpPrediction;\r\n        bool betDownPrediction;\r\n        uint256 betAmountUpPrediction;\r\n        uint256 betAmountDownPrediction;\r\n    }\r\n\r\n    address[] public usersAddress;\r\n       \r\n\r\n    modifier OnlyOwner(){\r\n        require(msg.sender == Owner_Contract,\"You arent the owner of this Lottery\");\r\n        _;\r\n    }\r\n\r\n    function changeOwnerFee(uint256 _fee) public OnlyOwner {\r\n        OWNER_FEE = _fee;\r\n    }\r\n\r\n    receive()external payable{\r\n        emit Deposit(msg.sender,msg.value);\r\n    }\r\n\r\n    function userFunding() public payable{\r\n        require(msg.sender.balance > 0 ether,\"Your wallet don have money\");\r\n        require(msg.value > 0 ether,\"Your amount funded is invalid, please spend more ETH\");\r\n        \r\n        users[msg.sender] = Competitor(\r\n                            msg.sender, users[msg.sender].amount, \r\n                            users[msg.sender].wins, \r\n                            users[msg.sender].amountWins,\r\n                            users[msg.sender].betUpPrediction,\r\n                            users[msg.sender].betDownPrediction,\r\n                            users[msg.sender].betAmountUpPrediction,\r\n                            users[msg.sender].betAmountDownPrediction\r\n                            );\r\n\r\n        users[msg.sender].amount += msg.value ;\r\n        usersAddress.push(msg.sender);\r\n\r\n        emit Deposit(msg.sender,msg.value);\r\n    }\r\n\r\n    function userWithdrawall (uint256 _amountWithdrawall) public {\r\n        require(_amountWithdrawall != 0,\"You cant withdraw 0\");        \r\n        require(_amountWithdrawall <= users[msg.sender].amount && users[msg.sender].amount > 0,\"You cant withdraw more money than you have\");\r\n        \r\n\r\n        users[msg.sender].amount -= _amountWithdrawall;\r\n        payable(msg.sender).transfer(_amountWithdrawall);\r\n\r\n        emit withdraw(msg.sender, _amountWithdrawall);\r\n    }      \r\n\r\n    function ownerWithdrawall (uint256 _amountWithdrawall) public OnlyOwner{\r\n        require(_amountWithdrawall != 0,\"You cant withdraw 0\");   \r\n        require(_amountWithdrawall <= Owner_Profits,\"You cant withdraw more money than you have\"); \r\n\r\n        Owner_Profits -= _amountWithdrawall;\r\n        payable(Owner_Contract).transfer(_amountWithdrawall);\r\n\r\n        emit withdraw(msg.sender, _amountWithdrawall);\r\n    }\r\n\r\n    function userDeposit() public view returns(uint256){\r\n        return users[msg.sender].amount;\r\n    }\r\n\r\n    function userWins() public view returns(uint256){\r\n        return users[msg.sender].wins;\r\n    }\r\n\r\n    function userProfits() public view returns(uint256){\r\n        return users[msg.sender].amountWins;\r\n    }\r\n\r\n}\r\n\r\ncontract Prediction is Lottery {\r\n\r\n    AggregatorV3Interface internal priceFeed;\r\n\r\n    constructor() {\r\n        //BNB Chain TestNet\r\n        //BNB/USD\r\n\r\n        priceFeed = AggregatorV3Interface(\r\n            0x2514895c72f50D8bd4B4F9b1110F0D6bD2c97526\r\n        );\r\n    }\r\n    \r\n    uint256 private Bet_Up;\r\n    uint256 private Bet_Down;    \r\n\r\n    uint256 private Bet_Up_Factor;\r\n    uint256 private Bet_Down_Factor;\r\n\r\n    int private ActualPrice; //Alimentado por chainlink\r\n    int private PriceLocked; // Precio Bloqueado desde chainlink\r\n\r\n    uint256 private timeLocked;\r\n\r\n    event betPriceUp (address, uint256);\r\n    event betPriceDown (address, uint256);\r\n\r\n    function priceUp (uint256 _betAmount) public {\r\n        require(_betAmount > 100 wei, \"You should bet more\");\r\n        require(users[msg.sender].amount > 0 && users[msg.sender].amount >= _betAmount,\"You dont have enough balance\");\r\n\r\n        uint256  _Owner_Profits;\r\n        users[msg.sender].amount -= _betAmount;\r\n        _Owner_Profits = (_betAmount*OWNER_FEE)/100;\r\n        _betAmount -= _Owner_Profits;\r\n        Owner_Profits += _Owner_Profits;\r\n        Bet_Up += _betAmount;\r\n        calculateBetFactor();\r\n\r\n        users[msg.sender].betUpPrediction = true;\r\n        users[msg.sender].betAmountUpPrediction += _betAmount;\r\n\r\n        emit betPriceUp (msg.sender, _betAmount);\r\n    }\r\n\r\n    function priceDown (uint256 _betAmount) public {\r\n        require(_betAmount > 100 wei, \"You should bet more\");\r\n        require(users[msg.sender].amount > 0 && users[msg.sender].amount >= _betAmount,\"You dont have enough balance\");\r\n\r\n        uint256  _Owner_Profits;\r\n        users[msg.sender].amount -= _betAmount;\r\n        _Owner_Profits = (_betAmount*OWNER_FEE)/100;\r\n        _betAmount -= _Owner_Profits;\r\n        Owner_Profits += _Owner_Profits;\r\n        Bet_Down += _betAmount;\r\n        calculateBetFactor();\r\n\r\n        users[msg.sender].betDownPrediction = true;\r\n        users[msg.sender].betAmountDownPrediction += _betAmount;\r\n\r\n        emit betPriceDown (msg.sender, _betAmount);\r\n    }    \r\n\r\n    function calculateBetFactor() private {\r\n\r\n        if(Bet_Up != 0){\r\n            Bet_Up_Factor = (betTotalPrediction() * 1 ether )/ Bet_Up ;\r\n        }\r\n        if(Bet_Down != 0){\r\n            Bet_Down_Factor = (betTotalPrediction() * 1 ether)/ Bet_Down;\r\n        }     \r\n\r\n    }\r\n\r\n    function betTotalPrediction() public view returns(uint256){\r\n        return (Bet_Up + Bet_Down);\r\n    }\r\n\r\n    function priceLocked(/*int _price*/) private {// Precio Bloqueado desde chainlink\r\n        timeLocked = block.timestamp;\r\n        //PriceLocked = _price;\r\n        (,PriceLocked,,,) =priceFeed.latestRoundData(); \r\n    }\r\n\r\n    function actualPrice(/*int _price*/) private {// Alimentado por chainlink\r\n\r\n        //ActualPrice =_price;        \r\n        (,ActualPrice,,,) =priceFeed.latestRoundData(); \r\n    }\r\n\r\n    function priceLoked() public view returns(int){\r\n        return PriceLocked;\r\n    }\r\n\r\n    function timeLoked () public view returns(uint256){\r\n        return timeLocked;\r\n    }\r\n    function pricePair() public view returns (int){\r\n        int price;\r\n        (,price,,,) =priceFeed.latestRoundData();\r\n        return price;\r\n    }\r\n\r\n    \r\n\r\n    function betUpFactor() public view returns(uint256){\r\n        return Bet_Up_Factor;\r\n    }\r\n\r\n    function betDownFactor() public view returns(uint256){\r\n        return Bet_Down_Factor;\r\n    }\r\n\r\n    function RewardsCalculated() public { //Solo puede ser ejecutada en el tiempo correcto - revisar esto     \r\n        require(msg.sender == Owner_Contract,\"You arent the owner of this Lottery choose the correct Sender\");\r\n        require(block.timestamp >= (timeLocked + 5 minutes),\"The time isnt now\");\r\n        actualPrice();\r\n\r\n        if(checkBalance()){\r\n            if(ActualPrice > PriceLocked){ \r\n                for(uint256 i=0; i <usersAddress.length; i++){\r\n                    if(users[usersAddress[i]].betUpPrediction && users[usersAddress[i]].betAmountUpPrediction > 0 && users[usersAddress[i]].betAmountUpPrediction <= betTotalPrediction()){\r\n                        users[usersAddress[i]].amount += (users[usersAddress[i]].betAmountUpPrediction * Bet_Up_Factor) / 1 ether;\r\n                        users[usersAddress[i]].betAmountUpPrediction = 0;\r\n                        users[usersAddress[i]].betUpPrediction = false;                        \r\n                    }\r\n                    if(users[usersAddress[i]].betDownPrediction){\r\n                        users[usersAddress[i]].betAmountDownPrediction = 0;\r\n                        users[usersAddress[i]].betDownPrediction = false;                        \r\n                    }\r\n\r\n                }\r\n            }\r\n            if(ActualPrice < PriceLocked){ \r\n                for(uint256 i=0; i <usersAddress.length; i++){\r\n                    if(users[usersAddress[i]].betDownPrediction && users[usersAddress[i]].betAmountDownPrediction > 0 && users[usersAddress[i]].betAmountDownPrediction <= betTotalPrediction()){\r\n                        users[usersAddress[i]].amount += (users[usersAddress[i]].betAmountDownPrediction * Bet_Down_Factor) / 1 ether;\r\n                        users[usersAddress[i]].betAmountDownPrediction = 0;\r\n                        users[usersAddress[i]].betDownPrediction = false;                        \r\n                    }\r\n                    if(users[usersAddress[i]].betUpPrediction){\r\n                        users[usersAddress[i]].betAmountUpPrediction = 0;\r\n                        users[usersAddress[i]].betUpPrediction = false;                       \r\n                    }\r\n\r\n                }\r\n                \r\n            }\r\n            if(actualPrice == priceLocked){          \r\n                \r\n                for(uint256 i=0; i <usersAddress.length; i++){\r\n                    users[usersAddress[i]].amount += users[usersAddress[i]].betAmountUpPrediction  ;\r\n                    users[usersAddress[i]].betAmountUpPrediction = 0;\r\n                    users[usersAddress[i]].betUpPrediction = false;\r\n\r\n                    users[usersAddress[i]].amount += users[usersAddress[i]].betAmountDownPrediction ;\r\n                    users[usersAddress[i]].betAmountDownPrediction = 0;\r\n                    users[usersAddress[i]].betDownPrediction = false;\r\n                }\r\n                \r\n            }    \r\n            Bet_Up=0;\r\n            Bet_Up_Factor=0;\r\n            Bet_Down=0;\r\n            Bet_Down_Factor=0;\r\n\r\n            priceLocked();\r\n        }    \r\n\r\n    }\r\n\r\n    function checkBalance() public view returns(bool){\r\n            uint256 _checkedBalance;\r\n            bool _checkedBalanceFlag = false;\r\n\r\n            for(uint256 i=0; i <usersAddress.length; i++){\r\n                _checkedBalance += users[usersAddress[i]].betAmountUpPrediction + users[usersAddress[i]].betAmountDownPrediction;\r\n            }\r\n            \r\n            if(_checkedBalance == betTotalPrediction()){_checkedBalanceFlag = true;}\r\n            else{_checkedBalanceFlag = false;}\r\n\r\n            return _checkedBalanceFlag;\r\n        }\r\n\r\n\r\n\r\n}",
  "sourcePath": "D:\\Documentos\\Visual\\LoteriaV2\\PrimerPrograma\\lottery-dapp\\src\\contracts\\Lottery.sol",
  "compiler": {
    "name": "solc",
    "version": "0.8.10+commit.fc410830.Emscripten.clang"
  },
  "schemaVersion": "3.4.3",
  "updatedAt": "2022-12-23T16:19:57.774Z",
  "networkType": "ethereum",
  "devdoc": {
    "kind": "dev",
    "methods": {},
    "version": 1
  },
  "userdoc": {
    "kind": "user",
    "methods": {},
    "version": 1
  }
}